{
  "address": "0x99C87134ac483f5647280CE96877CCaD3c577430",
  "abi": [
    {
      "inputs": [
        {
          "internalType": "uint32",
          "name": "_chainId",
          "type": "uint32"
        },
        {
          "components": [
            {
              "internalType": "address",
              "name": "_address",
              "type": "address"
            },
            {
              "internalType": "uint256",
              "name": "_quantity",
              "type": "uint256"
            },
            {
              "internalType": "uint32",
              "name": "_chainId",
              "type": "uint32"
            },
            {
              "internalType": "address",
              "name": "_contributor",
              "type": "address"
            },
            {
              "internalType": "address",
              "name": "_aggregator",
              "type": "address"
            }
          ],
          "internalType": "struct TokenQuantity[]",
          "name": "_requiredTokens",
          "type": "tuple[]"
        },
        {
          "internalType": "address",
          "name": "_etfToken",
          "type": "address"
        },
        {
          "internalType": "uint256",
          "name": "_etfTokenPerVault",
          "type": "uint256"
        }
      ],
      "stateMutability": "nonpayable",
      "type": "constructor"
    },
    {
      "anonymous": false,
      "inputs": [
        {
          "indexed": false,
          "internalType": "uint256",
          "name": "_vaultId",
          "type": "uint256"
        },
        {
          "indexed": false,
          "internalType": "address",
          "name": "_address",
          "type": "address"
        },
        {
          "indexed": false,
          "internalType": "uint256",
          "name": "_quantity",
          "type": "uint256"
        },
        {
          "indexed": false,
          "internalType": "uint32",
          "name": "_chainId",
          "type": "uint32"
        },
        {
          "indexed": false,
          "internalType": "address",
          "name": "_contributor",
          "type": "address"
        }
      ],
      "name": "Deposit",
      "type": "event"
    },
    {
      "inputs": [
        {
          "internalType": "uint256",
          "name": "",
          "type": "uint256"
        },
        {
          "internalType": "address",
          "name": "",
          "type": "address"
        }
      ],
      "name": "accountContributionsPerVault",
      "outputs": [
        {
          "internalType": "uint256",
          "name": "",
          "type": "uint256"
        }
      ],
      "stateMutability": "view",
      "type": "function"
    },
    {
      "inputs": [
        {
          "internalType": "address",
          "name": "",
          "type": "address"
        }
      ],
      "name": "addressToToken",
      "outputs": [
        {
          "internalType": "address",
          "name": "_address",
          "type": "address"
        },
        {
          "internalType": "uint256",
          "name": "_quantity",
          "type": "uint256"
        },
        {
          "internalType": "uint32",
          "name": "_chainId",
          "type": "uint32"
        },
        {
          "internalType": "address",
          "name": "_contributor",
          "type": "address"
        },
        {
          "internalType": "address",
          "name": "_aggregator",
          "type": "address"
        }
      ],
      "stateMutability": "view",
      "type": "function"
    },
    {
      "inputs": [
        {
          "internalType": "uint256",
          "name": "_vaultId",
          "type": "uint256"
        }
      ],
      "name": "burn",
      "outputs": [],
      "stateMutability": "nonpayable",
      "type": "function"
    },
    {
      "inputs": [],
      "name": "chainId",
      "outputs": [
        {
          "internalType": "uint32",
          "name": "",
          "type": "uint32"
        }
      ],
      "stateMutability": "view",
      "type": "function"
    },
    {
      "inputs": [
        {
          "components": [
            {
              "internalType": "uint256",
              "name": "vaultId",
              "type": "uint256"
            },
            {
              "components": [
                {
                  "internalType": "address",
                  "name": "_address",
                  "type": "address"
                },
                {
                  "internalType": "uint256",
                  "name": "_quantity",
                  "type": "uint256"
                },
                {
                  "internalType": "uint32",
                  "name": "_chainId",
                  "type": "uint32"
                },
                {
                  "internalType": "address",
                  "name": "_contributor",
                  "type": "address"
                },
                {
                  "internalType": "address",
                  "name": "_aggregator",
                  "type": "address"
                }
              ],
              "internalType": "struct TokenQuantity[]",
              "name": "tokens",
              "type": "tuple[]"
            }
          ],
          "internalType": "struct DepositInfo",
          "name": "_depositInfo",
          "type": "tuple"
        }
      ],
      "name": "deposit",
      "outputs": [],
      "stateMutability": "nonpayable",
      "type": "function"
    },
    {
      "inputs": [],
      "name": "etfToken",
      "outputs": [
        {
          "internalType": "address",
          "name": "",
          "type": "address"
        }
      ],
      "stateMutability": "view",
      "type": "function"
    },
    {
      "inputs": [],
      "name": "etfTokenPerVault",
      "outputs": [
        {
          "internalType": "uint256",
          "name": "",
          "type": "uint256"
        }
      ],
      "stateMutability": "view",
      "type": "function"
    },
    {
      "inputs": [
        {
          "internalType": "uint256",
          "name": "_vaultId",
          "type": "uint256"
        }
      ],
      "name": "getVault",
      "outputs": [
        {
          "components": [
            {
              "components": [
                {
                  "internalType": "address",
                  "name": "_address",
                  "type": "address"
                },
                {
                  "internalType": "uint256",
                  "name": "_quantity",
                  "type": "uint256"
                },
                {
                  "internalType": "uint32",
                  "name": "_chainId",
                  "type": "uint32"
                },
                {
                  "internalType": "address",
                  "name": "_contributor",
                  "type": "address"
                },
                {
                  "internalType": "address",
                  "name": "_aggregator",
                  "type": "address"
                }
              ],
              "internalType": "struct TokenQuantity[]",
              "name": "_tokens",
              "type": "tuple[]"
            },
            {
              "internalType": "enum VaultState",
              "name": "state",
              "type": "uint8"
            }
          ],
          "internalType": "struct Vault",
          "name": "",
          "type": "tuple"
        }
      ],
      "stateMutability": "view",
      "type": "function"
    },
    {
      "inputs": [],
      "name": "getVaultStates",
      "outputs": [
        {
          "internalType": "enum VaultState[]",
          "name": "",
          "type": "uint8[]"
        }
      ],
      "stateMutability": "view",
      "type": "function"
    },
    {
      "inputs": [
        {
          "internalType": "uint32",
          "name": "_origin",
          "type": "uint32"
        },
        {
          "internalType": "bytes32",
          "name": "_sender",
          "type": "bytes32"
        },
        {
          "internalType": "bytes",
          "name": "_message",
          "type": "bytes"
        }
      ],
      "name": "handle",
      "outputs": [],
      "stateMutability": "payable",
      "type": "function"
    },
    {
      "inputs": [
        {
          "internalType": "uint256",
          "name": "",
          "type": "uint256"
        }
      ],
      "name": "requiredTokens",
      "outputs": [
        {
          "internalType": "address",
          "name": "_address",
          "type": "address"
        },
        {
          "internalType": "uint256",
          "name": "_quantity",
          "type": "uint256"
        },
        {
          "internalType": "uint32",
          "name": "_chainId",
          "type": "uint32"
        },
        {
          "internalType": "address",
          "name": "_contributor",
          "type": "address"
        },
        {
          "internalType": "address",
          "name": "_aggregator",
          "type": "address"
        }
      ],
      "stateMutability": "view",
      "type": "function"
    },
    {
      "inputs": [],
      "name": "sideChainLock",
      "outputs": [
        {
          "internalType": "address",
          "name": "",
          "type": "address"
        }
      ],
      "stateMutability": "view",
      "type": "function"
    },
    {
      "inputs": [
        {
          "internalType": "uint256",
          "name": "",
          "type": "uint256"
        }
      ],
      "name": "vaults",
      "outputs": [
        {
          "internalType": "enum VaultState",
          "name": "state",
          "type": "uint8"
        }
      ],
      "stateMutability": "view",
      "type": "function"
    }
  ],
  "transactionHash": "0xf8ad3374575bff4e5b15985a47d1d4fda851931dbff81bbd563918cdb44a25fe",
  "args": [
    128123,
    [
      {
        "_address": "0xEb51553D10B3177F4FEefcB0A85D0C1F5cBb81ae",
        "_quantity": "100000000000000000000",
        "_chainId": 128123,
        "_contributor": "0x2a1F5eB3e84e58e6F1e565306298B9dE1273f203",
        "_aggregator": "0x76281BCDEFadD3dA0b57Ff8dCd188922Eaf49240"
      },
      {
        "_address": "0xEf4E389997548234E138C88567925B1B20746EdC",
        "_quantity": "200000000000000000000",
        "_chainId": 128123,
        "_contributor": "0x2a1F5eB3e84e58e6F1e565306298B9dE1273f203",
        "_aggregator": "0x11FC4928bf7CA4C3f465c36c72364D3c35f7917c"
      }
    ],
    "0xEbC26af07cbbE8E87b8Fe3A1F5ac02950D3Fa2A8",
    "100000000000000000000"
  ],
  "numDeployments": 4,
  "solcInputHash": "5403ed5254e66f13243907bea901cbeb",
  "bytecode": "0x60806040523480156200001157600080fd5b5060405162001b4b38038062001b4b8339810160408190526200003491620002bb565b600380546001600160a01b038416640100000000026001600160c01b031990911663ffffffff871617179055600481905560005b83518110156200020a57600184828151811062000089576200008962000405565b602090810291909101810151825460018082018555600094855293839020825160049092020180546001600160a01b03199081166001600160a01b0393841617825593830151948101949094556040820151600285018054606085015163ffffffff9093166001600160c01b0319909116176401000000009284169290920291909117905560809091015160039093018054909216921691909117905583518490829081106200013d576200013d62000405565b6020026020010151600260008684815181106200015e576200015e62000405565b602090810291909101810151516001600160a01b039081168352828201939093526040918201600020845181549085166001600160a01b03199182161782559185015160018201559184015160028301805460608701518616640100000000026001600160c01b031990911663ffffffff90931692909217919091179055608090930151600390910180549190921692169190911790558062000201816200041b565b91505062000068565b505050505062000443565b805163ffffffff811681146200022a57600080fd5b919050565b634e487b7160e01b600052604160045260246000fd5b60405160a081016001600160401b03811182821017156200026a576200026a6200022f565b60405290565b604051601f8201601f191681016001600160401b03811182821017156200029b576200029b6200022f565b604052919050565b80516001600160a01b03811681146200022a57600080fd5b6000806000806080808688031215620002d357600080fd5b620002de8662000215565b602087810151919650906001600160401b0380821115620002fe57600080fd5b818901915089601f8301126200031357600080fd5b8151818111156200032857620003286200022f565b62000338848260051b0162000270565b818152848101925060a091820284018501918c8311156200035857600080fd5b938501935b82851015620003dd5780858e031215620003775760008081fd5b6200038162000245565b6200038c86620002a3565b815286860151878201526040620003a581880162000215565b908201526060620003b8878201620002a3565b90820152620003c9868901620002a3565b81890152845293840193928501926200035d565b50809850505050505050620003f560408601620002a3565b6060959095015193969295505050565b634e487b7160e01b600052603260045260246000fd5b6000600182016200043c57634e487b7160e01b600052601160045260246000fd5b5060010190565b6116f880620004536000396000f3fe6080604052600436106100c25760003560e01c806369abaac91161007f578063956a45a611610059578063956a45a6146102ae5780639a8a0592146102ce5780639c58a5a414610300578063eb6a9aa01461033857600080fd5b806369abaac91461019f5780638c64ea4a146102415780639403b6341461028157600080fd5b8063014372eb146100c7578063250cab3914610112578063309bfe4a1461012857806342966c681461014a57806356d5d4751461016c5780636059f0961461017f575b600080fd5b3480156100d357600080fd5b506100ff6100e2366004611199565b600660209081526000928352604080842090915290825290205481565b6040519081526020015b60405180910390f35b34801561011e57600080fd5b506100ff60045481565b34801561013457600080fd5b5061013d610360565b60405161010991906111fd565b34801561015657600080fd5b5061016a610165366004611248565b610408565b005b61016a61017a366004611275565b610524565b34801561018b57600080fd5b5061016a61019a36600461138f565b6105d5565b3480156101ab57600080fd5b506102016101ba3660046114cc565b600260208190526000918252604090912080546001820154928201546003909201546001600160a01b03918216939263ffffffff8116926401000000009091048116911685565b604080516001600160a01b039687168152602081019590955263ffffffff909316928401929092528316606083015291909116608082015260a001610109565b34801561024d57600080fd5b5061027461025c366004611248565b60076020526000908152604090206001015460ff1681565b60405161010991906114ee565b34801561028d57600080fd5b506102a161029c366004611248565b6105ec565b6040516101099190611502565b3480156102ba57600080fd5b506102016102c9366004611248565b6106ee565b3480156102da57600080fd5b506003546102eb9063ffffffff1681565b60405163ffffffff9091168152602001610109565b34801561030c57600080fd5b50600054610320906001600160a01b031681565b6040516001600160a01b039091168152602001610109565b34801561034457600080fd5b506003546103209064010000000090046001600160a01b031681565b60408051605a808252610b6082019092526060916000919060208201610b408036833701905050905060005b815181101561040257600081815260076020526040902060010154825160ff909116908390839081106103c1576103c16115a1565b602002602001019060038111156103da576103da6111c5565b908160038111156103ed576103ed6111c5565b905250806103fa816115cd565b91505061038c565b50919050565b60005b600082815260076020526040902054811015610520576000828152600760205260409020805482908110610441576104416115a1565b600091825260208083206004909202909101548483526007909152604090912080546001600160a01b039092169163a9059cbb91339185908110610487576104876115a1565b9060005260206000209060040201600101546040518363ffffffff1660e01b81526004016104ca9291906001600160a01b03929092168252602082015260400190565b6020604051808303816000875af11580156104e9573d6000803e3d6000fd5b505050506040513d601f19601f8201168201806040525081019061050d91906115e6565b5080610518816115cd565b91505061040b565b5050565b6000546001600160a01b0316836001600160a01b03161461058c5760405162461bcd60e51b815260206004820152601f60248201527f53656e646572206973206e6f74207468652073696465436861696e4c6f636b0060448201526064015b60405180910390fd5b600061059a8284018461138f565b9050600081602001516000815181106105b5576105b56115a1565b60200260200101516040015190506105cd8282610747565b505050505050565b6003546105e990829063ffffffff16610747565b50565b6040805180820190915260608152600060208201526000828152600760209081526040808320815181546060948102820185018452928101838152909491938593919285929185015b828210156106ae5760008481526020908190206040805160a0810182526004860290920180546001600160a01b03908116845260018083015485870152600283015463ffffffff811694860194909452640100000000909304811660608501526003909101541660808301529083529092019101610635565b50505090825250600182015460209091019060ff1660038111156106d4576106d46111c5565b60038111156106e5576106e56111c5565b90525092915050565b600181815481106106fe57600080fd5b600091825260209091206004909102018054600182015460028301546003909301546001600160a01b039283169450909263ffffffff8116926401000000009091048116911685565b81516020830151600160008381526007602052604090206001015460ff166003811115610776576107766111c5565b14806107a5575060008281526007602052604081206001015460ff1660038111156107a3576107a36111c5565b145b6107f15760405162461bcd60e51b815260206004820152601a60248201527f5661756c74206973206e6f74206f70656e206f7220656d7074790000000000006044820152606401610583565b60008281526007602052604081206001015460ff166003811115610817576108176111c5565b0361098b5760005b60015481101561096b57600760008481526020019081526020016000206000016040518060a001604052806001848154811061085d5761085d6115a1565b600091825260208083206004909202909101546001600160a01b03168352820181905263ffffffff88166040830152606082015260018054608090920191859081106108ab576108ab6115a1565b60009182526020808320600360049384029091018101546001600160a01b039081169095528654600181810189559785529382902086519490930290920180549385166001600160a01b03199485161781559085015195810195909555604084015160028601805460608701518616640100000000026001600160c01b031990911663ffffffff90931692909217919091179055608090930151939092018054939091169290911691909117905580610963816115cd565b91505061081f565b5060008281526007602052604090206001908101805460ff191690911790555b60005b8151811015610e80578363ffffffff168282815181106109b0576109b06115a1565b60200260200101516040015163ffffffff1614610a355760405162461bcd60e51b815260206004820152603860248201527f546f6b656e20636861696e496420646f6573206e6f74206d617463682074686560448201527f20636861696e4964206f662074686520636f6e747261637400000000000000006064820152608401610583565b610a9860405180604001604052806011815260200170546f6b656e20616464726573733a20257360781b815250838381518110610a7457610a746115a1565b60209081029190910181015151600087815260079092526040909120548490610f37565b60026000838381518110610aae57610aae6115a1565b6020026020010151600001516001600160a01b03166001600160a01b0316815260200190815260200160002060010154600760008581526020019081526020016000206000018281548110610b0557610b056115a1565b906000526020600020906004020160010154838381518110610b2957610b296115a1565b602002602001015160200151610b3f9190611608565b1115610ba05760405162461bcd60e51b815260206004820152602a60248201527f546f6b656e207175616e746974792065786365656473207468652072657175696044820152691c995908185b5bdd5b9d60b21b6064820152608401610583565b818181518110610bb257610bb26115a1565b6020026020010151600001516001600160a01b03166323b872dd838381518110610bde57610bde6115a1565b60200260200101516060015130858581518110610bfd57610bfd6115a1565b60209081029190910181015101516040516001600160e01b031960e086901b1681526001600160a01b03938416600482015292909116602483015260448201526064016020604051808303816000875af1158015610c5f573d6000803e3d6000fd5b505050506040513d601f19601f82011682018060405250810190610c8391906115e6565b50818181518110610c9657610c966115a1565b602002602001015160200151600760008581526020019081526020016000206000018281548110610cc957610cc96115a1565b90600052602060002090600402016001016000828254610ce99190611608565b925050819055507f80590f9d7015c327349ea64242fc29353801fcad956721a0e45f725338db06f483838381518110610d2457610d246115a1565b602002602001015160000151848481518110610d4257610d426115a1565b602002602001015160200151858581518110610d6057610d606115a1565b602002602001015160400151868681518110610d7e57610d7e6115a1565b602002602001015160600151604051610dc89594939291909485526001600160a01b039384166020860152604085019290925263ffffffff16606084015216608082015260a00190565b60405180910390a160008381526006602090815260408083203384529091528120549003610e1f5760008381526005602090815260408220805460018101825590835291200180546001600160a01b031916331790555b818181518110610e3157610e316115a1565b6020908102919091018101518101516000858152600683526040808220338352909352918220805491929091610e68908490611608565b90915550819050610e78816115cd565b91505061098e565b5060005b600154811015610f0b5760018181548110610ea157610ea16115a1565b906000526020600020906004020160010154600760008581526020019081526020016000206000018281548110610eda57610eda6115a1565b9060005260206000209060040201600101541015610ef9575050505050565b80610f03816115cd565b915050610e84565b506000828152600760205260409020600101805460ff19166002179055610f3182610f80565b50505050565b610f3184848484604051602401610f51949392919061161b565b60408051601f198184030181529190526020810180516001600160e01b0316637c7a8d8f60e11b179052611158565b6000805b60008381526005602052604090205481101561100a57600083815260066020908152604080832060059092528220805491929184908110610fc757610fc76115a1565b60009182526020808320909101546001600160a01b03168352820192909252604001902054610ff69083611608565b915080611002816115cd565b915050610f84565b5060005b6000838152600560205260409020548110156111535760045460008481526006602090815260408083206005909252822080549293869390929185918790811061105a5761105a6115a1565b60009182526020808320909101546001600160a01b031683528201929092526040019020546110899190611689565b61109391906116a0565b600354600086815260056020526040902080549293506401000000009091046001600160a01b0316916340c10f199190859081106110d3576110d36115a1565b60009182526020909120015460405160e083901b6001600160e01b03191681526001600160a01b03909116600482015260248101849052604401600060405180830381600087803b15801561112757600080fd5b505af115801561113b573d6000803e3d6000fd5b5050505050808061114b906115cd565b91505061100e565b505050565b6105e98160006a636f6e736f6c652e6c6f679050600080835160208501845afa505050565b80356001600160a01b038116811461119457600080fd5b919050565b600080604083850312156111ac57600080fd5b823591506111bc6020840161117d565b90509250929050565b634e487b7160e01b600052602160045260246000fd5b600481106111f957634e487b7160e01b600052602160045260246000fd5b9052565b6020808252825182820181905260009190848201906040850190845b8181101561123c5761122c8385516111db565b9284019291840191600101611219565b50909695505050505050565b60006020828403121561125a57600080fd5b5035919050565b803563ffffffff8116811461119457600080fd5b6000806000806060858703121561128b57600080fd5b61129485611261565b935060208501359250604085013567ffffffffffffffff808211156112b857600080fd5b818701915087601f8301126112cc57600080fd5b8135818111156112db57600080fd5b8860208285010111156112ed57600080fd5b95989497505060200194505050565b634e487b7160e01b600052604160045260246000fd5b6040805190810167ffffffffffffffff81118282101715611335576113356112fc565b60405290565b60405160a0810167ffffffffffffffff81118282101715611335576113356112fc565b604051601f8201601f1916810167ffffffffffffffff81118282101715611387576113876112fc565b604052919050565b600060208083850312156113a257600080fd5b823567ffffffffffffffff808211156113ba57600080fd5b818501915060408083880312156113d057600080fd5b6113d8611312565b8335815284840135838111156113ed57600080fd5b80850194505087601f85011261140257600080fd5b833583811115611414576114146112fc565b611422868260051b0161135e565b818152868101945060a091820286018701918a83111561144157600080fd5b958701955b828710156114b95780878c03121561145e5760008081fd5b61146661133b565b61146f8861117d565b81528888013589820152611484868901611261565b868201526060611495818a0161117d565b9082015260806114a689820161117d565b9082015286529586019594870194611446565b5095820195909552979650505050505050565b6000602082840312156114de57600080fd5b6114e78261117d565b9392505050565b602081016114fc82846111db565b92915050565b600060208083526060808401855160408085880152828251808552608094508489019150868401935060005b8181101561158257845180516001600160a01b039081168552898201518a8601528582015163ffffffff1686860152888201518116898601529087015116868401529387019360a09092019160010161152e565b50509488015194611595888301876111db565b98975050505050505050565b634e487b7160e01b600052603260045260246000fd5b634e487b7160e01b600052601160045260246000fd5b6000600182016115df576115df6115b7565b5060010190565b6000602082840312156115f857600080fd5b815180151581146114e757600080fd5b808201808211156114fc576114fc6115b7565b608081526000855180608084015260005b8181101561164957602081890181015160a086840101520161162c565b50600060a08285018101919091526001600160a01b039690961660208401526040830194909452506060810191909152601f909101601f19160101919050565b80820281158282048414176114fc576114fc6115b7565b6000826116bd57634e487b7160e01b600052601260045260246000fd5b50049056fea2646970667358221220387b355144e6b0d2ba7690d24af0cf4388eea471448294d2c60d93228eee5e0864736f6c63430008110033",
  "devdoc": {
    "kind": "dev",
    "methods": {},
    "version": 1
  },
  "userdoc": {
    "kind": "user",
    "methods": {},
    "version": 1
  },
  "storageLayout": {
    "storage": [
      {
        "astId": 940,
        "contract": "contracts/ETFLock.sol:ETFLock",
        "label": "sideChainLock",
        "offset": 0,
        "slot": "0",
        "type": "t_address"
      },
      {
        "astId": 944,
        "contract": "contracts/ETFLock.sol:ETFLock",
        "label": "requiredTokens",
        "offset": 0,
        "slot": "1",
        "type": "t_array(t_struct(TokenQuantity)909_storage)dyn_storage"
      },
      {
        "astId": 949,
        "contract": "contracts/ETFLock.sol:ETFLock",
        "label": "addressToToken",
        "offset": 0,
        "slot": "2",
        "type": "t_mapping(t_address,t_struct(TokenQuantity)909_storage)"
      },
      {
        "astId": 951,
        "contract": "contracts/ETFLock.sol:ETFLock",
        "label": "chainId",
        "offset": 0,
        "slot": "3",
        "type": "t_uint32"
      },
      {
        "astId": 953,
        "contract": "contracts/ETFLock.sol:ETFLock",
        "label": "etfToken",
        "offset": 4,
        "slot": "3",
        "type": "t_address"
      },
      {
        "astId": 955,
        "contract": "contracts/ETFLock.sol:ETFLock",
        "label": "etfTokenPerVault",
        "offset": 0,
        "slot": "4",
        "type": "t_uint256"
      },
      {
        "astId": 960,
        "contract": "contracts/ETFLock.sol:ETFLock",
        "label": "contributorsByVault",
        "offset": 0,
        "slot": "5",
        "type": "t_mapping(t_uint256,t_array(t_address)dyn_storage)"
      },
      {
        "astId": 966,
        "contract": "contracts/ETFLock.sol:ETFLock",
        "label": "accountContributionsPerVault",
        "offset": 0,
        "slot": "6",
        "type": "t_mapping(t_uint256,t_mapping(t_address,t_uint256))"
      },
      {
        "astId": 983,
        "contract": "contracts/ETFLock.sol:ETFLock",
        "label": "vaults",
        "offset": 0,
        "slot": "7",
        "type": "t_mapping(t_uint256,t_struct(Vault)917_storage)"
      }
    ],
    "types": {
      "t_address": {
        "encoding": "inplace",
        "label": "address",
        "numberOfBytes": "20"
      },
      "t_array(t_address)dyn_storage": {
        "base": "t_address",
        "encoding": "dynamic_array",
        "label": "address[]",
        "numberOfBytes": "32"
      },
      "t_array(t_struct(TokenQuantity)909_storage)dyn_storage": {
        "base": "t_struct(TokenQuantity)909_storage",
        "encoding": "dynamic_array",
        "label": "struct TokenQuantity[]",
        "numberOfBytes": "32"
      },
      "t_enum(VaultState)922": {
        "encoding": "inplace",
        "label": "enum VaultState",
        "numberOfBytes": "1"
      },
      "t_mapping(t_address,t_struct(TokenQuantity)909_storage)": {
        "encoding": "mapping",
        "key": "t_address",
        "label": "mapping(address => struct TokenQuantity)",
        "numberOfBytes": "32",
        "value": "t_struct(TokenQuantity)909_storage"
      },
      "t_mapping(t_address,t_uint256)": {
        "encoding": "mapping",
        "key": "t_address",
        "label": "mapping(address => uint256)",
        "numberOfBytes": "32",
        "value": "t_uint256"
      },
      "t_mapping(t_uint256,t_array(t_address)dyn_storage)": {
        "encoding": "mapping",
        "key": "t_uint256",
        "label": "mapping(uint256 => address[])",
        "numberOfBytes": "32",
        "value": "t_array(t_address)dyn_storage"
      },
      "t_mapping(t_uint256,t_mapping(t_address,t_uint256))": {
        "encoding": "mapping",
        "key": "t_uint256",
        "label": "mapping(uint256 => mapping(address => uint256))",
        "numberOfBytes": "32",
        "value": "t_mapping(t_address,t_uint256)"
      },
      "t_mapping(t_uint256,t_struct(Vault)917_storage)": {
        "encoding": "mapping",
        "key": "t_uint256",
        "label": "mapping(uint256 => struct Vault)",
        "numberOfBytes": "32",
        "value": "t_struct(Vault)917_storage"
      },
      "t_struct(TokenQuantity)909_storage": {
        "encoding": "inplace",
        "label": "struct TokenQuantity",
        "members": [
          {
            "astId": 900,
            "contract": "contracts/ETFLock.sol:ETFLock",
            "label": "_address",
            "offset": 0,
            "slot": "0",
            "type": "t_address"
          },
          {
            "astId": 902,
            "contract": "contracts/ETFLock.sol:ETFLock",
            "label": "_quantity",
            "offset": 0,
            "slot": "1",
            "type": "t_uint256"
          },
          {
            "astId": 904,
            "contract": "contracts/ETFLock.sol:ETFLock",
            "label": "_chainId",
            "offset": 0,
            "slot": "2",
            "type": "t_uint32"
          },
          {
            "astId": 906,
            "contract": "contracts/ETFLock.sol:ETFLock",
            "label": "_contributor",
            "offset": 4,
            "slot": "2",
            "type": "t_address"
          },
          {
            "astId": 908,
            "contract": "contracts/ETFLock.sol:ETFLock",
            "label": "_aggregator",
            "offset": 0,
            "slot": "3",
            "type": "t_address"
          }
        ],
        "numberOfBytes": "128"
      },
      "t_struct(Vault)917_storage": {
        "encoding": "inplace",
        "label": "struct Vault",
        "members": [
          {
            "astId": 913,
            "contract": "contracts/ETFLock.sol:ETFLock",
            "label": "_tokens",
            "offset": 0,
            "slot": "0",
            "type": "t_array(t_struct(TokenQuantity)909_storage)dyn_storage"
          },
          {
            "astId": 916,
            "contract": "contracts/ETFLock.sol:ETFLock",
            "label": "state",
            "offset": 0,
            "slot": "1",
            "type": "t_enum(VaultState)922"
          }
        ],
        "numberOfBytes": "64"
      },
      "t_uint256": {
        "encoding": "inplace",
        "label": "uint256",
        "numberOfBytes": "32"
      },
      "t_uint32": {
        "encoding": "inplace",
        "label": "uint32",
        "numberOfBytes": "4"
      }
    }
  }
}