{
  "address": "0x526c3B5A92aeA8a60659cA122A042e0cdF5dCF91",
  "abi": [
    {
      "inputs": [
        {
          "internalType": "uint32",
          "name": "_mainChain",
          "type": "uint32"
        },
        {
          "internalType": "uint32",
          "name": "_chainId",
          "type": "uint32"
        },
        {
          "components": [
            {
              "internalType": "address",
              "name": "_address",
              "type": "address"
            },
            {
              "internalType": "uint256",
              "name": "_quantity",
              "type": "uint256"
            },
            {
              "internalType": "uint32",
              "name": "_chainId",
              "type": "uint32"
            },
            {
              "internalType": "address",
              "name": "_contributor",
              "type": "address"
            },
            {
              "internalType": "address",
              "name": "_aggregator",
              "type": "address"
            }
          ],
          "internalType": "struct TokenQuantity[]",
          "name": "_requiredTokens",
          "type": "tuple[]"
        },
        {
          "internalType": "address",
          "name": "_etfToken",
          "type": "address"
        },
        {
          "internalType": "uint256",
          "name": "_etfTokenPerVault",
          "type": "uint256"
        }
      ],
      "stateMutability": "nonpayable",
      "type": "constructor"
    },
    {
      "anonymous": false,
      "inputs": [
        {
          "indexed": false,
          "internalType": "uint256",
          "name": "_vaultId",
          "type": "uint256"
        },
        {
          "indexed": false,
          "internalType": "address",
          "name": "_address",
          "type": "address"
        },
        {
          "indexed": false,
          "internalType": "uint256",
          "name": "_quantity",
          "type": "uint256"
        },
        {
          "indexed": false,
          "internalType": "uint32",
          "name": "_chainId",
          "type": "uint32"
        },
        {
          "indexed": false,
          "internalType": "address",
          "name": "_contributor",
          "type": "address"
        }
      ],
      "name": "Deposit",
      "type": "event"
    },
    {
      "inputs": [
        {
          "internalType": "uint256",
          "name": "",
          "type": "uint256"
        },
        {
          "internalType": "address",
          "name": "",
          "type": "address"
        }
      ],
      "name": "accountContributionsPerVault",
      "outputs": [
        {
          "internalType": "uint256",
          "name": "",
          "type": "uint256"
        }
      ],
      "stateMutability": "view",
      "type": "function"
    },
    {
      "inputs": [
        {
          "internalType": "address",
          "name": "",
          "type": "address"
        }
      ],
      "name": "addressToToken",
      "outputs": [
        {
          "internalType": "address",
          "name": "_address",
          "type": "address"
        },
        {
          "internalType": "uint256",
          "name": "_quantity",
          "type": "uint256"
        },
        {
          "internalType": "uint32",
          "name": "_chainId",
          "type": "uint32"
        },
        {
          "internalType": "address",
          "name": "_contributor",
          "type": "address"
        },
        {
          "internalType": "address",
          "name": "_aggregator",
          "type": "address"
        }
      ],
      "stateMutability": "view",
      "type": "function"
    },
    {
      "inputs": [
        {
          "internalType": "uint256",
          "name": "_vaultId",
          "type": "uint256"
        }
      ],
      "name": "burn",
      "outputs": [],
      "stateMutability": "nonpayable",
      "type": "function"
    },
    {
      "inputs": [],
      "name": "chainId",
      "outputs": [
        {
          "internalType": "uint32",
          "name": "",
          "type": "uint32"
        }
      ],
      "stateMutability": "view",
      "type": "function"
    },
    {
      "inputs": [
        {
          "components": [
            {
              "internalType": "uint256",
              "name": "vaultId",
              "type": "uint256"
            },
            {
              "components": [
                {
                  "internalType": "address",
                  "name": "_address",
                  "type": "address"
                },
                {
                  "internalType": "uint256",
                  "name": "_quantity",
                  "type": "uint256"
                },
                {
                  "internalType": "uint32",
                  "name": "_chainId",
                  "type": "uint32"
                },
                {
                  "internalType": "address",
                  "name": "_contributor",
                  "type": "address"
                },
                {
                  "internalType": "address",
                  "name": "_aggregator",
                  "type": "address"
                }
              ],
              "internalType": "struct TokenQuantity[]",
              "name": "tokens",
              "type": "tuple[]"
            }
          ],
          "internalType": "struct DepositInfo",
          "name": "_depositInfo",
          "type": "tuple"
        }
      ],
      "name": "deposit",
      "outputs": [],
      "stateMutability": "payable",
      "type": "function"
    },
    {
      "inputs": [],
      "name": "etfToken",
      "outputs": [
        {
          "internalType": "address",
          "name": "",
          "type": "address"
        }
      ],
      "stateMutability": "view",
      "type": "function"
    },
    {
      "inputs": [],
      "name": "etfTokenPerVault",
      "outputs": [
        {
          "internalType": "uint256",
          "name": "",
          "type": "uint256"
        }
      ],
      "stateMutability": "view",
      "type": "function"
    },
    {
      "inputs": [
        {
          "components": [
            {
              "internalType": "address",
              "name": "_address",
              "type": "address"
            },
            {
              "internalType": "uint256",
              "name": "_quantity",
              "type": "uint256"
            },
            {
              "internalType": "uint32",
              "name": "_chainId",
              "type": "uint32"
            },
            {
              "internalType": "address",
              "name": "_contributor",
              "type": "address"
            },
            {
              "internalType": "address",
              "name": "_aggregator",
              "type": "address"
            }
          ],
          "internalType": "struct TokenQuantity",
          "name": "_tokenQuantity",
          "type": "tuple"
        }
      ],
      "name": "getIndexForDepositInfo",
      "outputs": [
        {
          "internalType": "uint256",
          "name": "",
          "type": "uint256"
        }
      ],
      "stateMutability": "view",
      "type": "function"
    },
    {
      "inputs": [],
      "name": "getRequiredTokens",
      "outputs": [
        {
          "components": [
            {
              "internalType": "address",
              "name": "_address",
              "type": "address"
            },
            {
              "internalType": "uint256",
              "name": "_quantity",
              "type": "uint256"
            },
            {
              "internalType": "uint32",
              "name": "_chainId",
              "type": "uint32"
            },
            {
              "internalType": "address",
              "name": "_contributor",
              "type": "address"
            },
            {
              "internalType": "address",
              "name": "_aggregator",
              "type": "address"
            }
          ],
          "internalType": "struct TokenQuantity[]",
          "name": "",
          "type": "tuple[]"
        }
      ],
      "stateMutability": "view",
      "type": "function"
    },
    {
      "inputs": [
        {
          "internalType": "uint256",
          "name": "_vaultId",
          "type": "uint256"
        }
      ],
      "name": "getVault",
      "outputs": [
        {
          "components": [
            {
              "components": [
                {
                  "internalType": "address",
                  "name": "_address",
                  "type": "address"
                },
                {
                  "internalType": "uint256",
                  "name": "_quantity",
                  "type": "uint256"
                },
                {
                  "internalType": "uint32",
                  "name": "_chainId",
                  "type": "uint32"
                },
                {
                  "internalType": "address",
                  "name": "_contributor",
                  "type": "address"
                },
                {
                  "internalType": "address",
                  "name": "_aggregator",
                  "type": "address"
                }
              ],
              "internalType": "struct TokenQuantity[]",
              "name": "_tokens",
              "type": "tuple[]"
            },
            {
              "internalType": "enum VaultState",
              "name": "state",
              "type": "uint8"
            }
          ],
          "internalType": "struct Vault",
          "name": "",
          "type": "tuple"
        }
      ],
      "stateMutability": "view",
      "type": "function"
    },
    {
      "inputs": [],
      "name": "getVaultStates",
      "outputs": [
        {
          "internalType": "enum VaultState[]",
          "name": "",
          "type": "uint8[]"
        }
      ],
      "stateMutability": "view",
      "type": "function"
    },
    {
      "inputs": [
        {
          "internalType": "uint32",
          "name": "_origin",
          "type": "uint32"
        },
        {
          "internalType": "bytes32",
          "name": "_sender",
          "type": "bytes32"
        },
        {
          "internalType": "bytes",
          "name": "_message",
          "type": "bytes"
        }
      ],
      "name": "handle",
      "outputs": [],
      "stateMutability": "payable",
      "type": "function"
    },
    {
      "inputs": [],
      "name": "isMainChain",
      "outputs": [
        {
          "internalType": "bool",
          "name": "",
          "type": "bool"
        }
      ],
      "stateMutability": "view",
      "type": "function"
    },
    {
      "inputs": [],
      "name": "mainChainId",
      "outputs": [
        {
          "internalType": "uint32",
          "name": "",
          "type": "uint32"
        }
      ],
      "stateMutability": "view",
      "type": "function"
    },
    {
      "inputs": [],
      "name": "mainChainLock",
      "outputs": [
        {
          "internalType": "address",
          "name": "",
          "type": "address"
        }
      ],
      "stateMutability": "view",
      "type": "function"
    },
    {
      "inputs": [
        {
          "internalType": "uint256",
          "name": "",
          "type": "uint256"
        }
      ],
      "name": "receivedMessages",
      "outputs": [
        {
          "internalType": "uint32",
          "name": "",
          "type": "uint32"
        }
      ],
      "stateMutability": "view",
      "type": "function"
    },
    {
      "inputs": [
        {
          "internalType": "uint256",
          "name": "",
          "type": "uint256"
        }
      ],
      "name": "requiredTokens",
      "outputs": [
        {
          "internalType": "address",
          "name": "_address",
          "type": "address"
        },
        {
          "internalType": "uint256",
          "name": "_quantity",
          "type": "uint256"
        },
        {
          "internalType": "uint32",
          "name": "_chainId",
          "type": "uint32"
        },
        {
          "internalType": "address",
          "name": "_contributor",
          "type": "address"
        },
        {
          "internalType": "address",
          "name": "_aggregator",
          "type": "address"
        }
      ],
      "stateMutability": "view",
      "type": "function"
    },
    {
      "inputs": [
        {
          "internalType": "address",
          "name": "_sideChainLock",
          "type": "address"
        },
        {
          "internalType": "uint32",
          "name": "_sideChainId",
          "type": "uint32"
        },
        {
          "internalType": "address",
          "name": "_outbox",
          "type": "address"
        },
        {
          "internalType": "address",
          "name": "_securityModule",
          "type": "address"
        }
      ],
      "name": "setMainChainParams",
      "outputs": [],
      "stateMutability": "nonpayable",
      "type": "function"
    },
    {
      "inputs": [
        {
          "internalType": "address",
          "name": "_mainChainLock",
          "type": "address"
        },
        {
          "internalType": "address",
          "name": "_outbox",
          "type": "address"
        },
        {
          "internalType": "address",
          "name": "_securityModule",
          "type": "address"
        }
      ],
      "name": "setSideChainParams",
      "outputs": [],
      "stateMutability": "nonpayable",
      "type": "function"
    },
    {
      "inputs": [
        {
          "internalType": "uint256",
          "name": "_vaultId",
          "type": "uint256"
        },
        {
          "internalType": "enum VaultState",
          "name": "_state",
          "type": "uint8"
        }
      ],
      "name": "setVaultState",
      "outputs": [],
      "stateMutability": "nonpayable",
      "type": "function"
    },
    {
      "inputs": [],
      "name": "sideChainId",
      "outputs": [
        {
          "internalType": "uint32",
          "name": "",
          "type": "uint32"
        }
      ],
      "stateMutability": "view",
      "type": "function"
    },
    {
      "inputs": [],
      "name": "sideChainLock",
      "outputs": [
        {
          "internalType": "address",
          "name": "",
          "type": "address"
        }
      ],
      "stateMutability": "view",
      "type": "function"
    },
    {
      "inputs": [
        {
          "internalType": "uint256",
          "name": "",
          "type": "uint256"
        }
      ],
      "name": "vaults",
      "outputs": [
        {
          "internalType": "enum VaultState",
          "name": "state",
          "type": "uint8"
        }
      ],
      "stateMutability": "view",
      "type": "function"
    }
  ],
  "transactionHash": "0x33b2f259b0b606d6e6fff47fc4eaef2a08cce580cfb500a8d228904e75617e77",
  "args": [
    128123,
    128123,
    [
      {
        "_address": "0x946d990cCCb7f6049DE3C4D4A547A3C3d979Da34",
        "_quantity": "100000000000000000000",
        "_chainId": 128123,
        "_contributor": "0x2a1F5eB3e84e58e6F1e565306298B9dE1273f203",
        "_aggregator": "0x2e664E67151c46De9Af9AC85355dB27D0993dCEE"
      },
      {
        "_address": "0x847AA4a8d1c47bf161Ce8307a49f63a853d83F11",
        "_quantity": "200000000000000000000",
        "_chainId": 128123,
        "_contributor": "0x2a1F5eB3e84e58e6F1e565306298B9dE1273f203",
        "_aggregator": "0x93337e3f1360f918e692bA675f56935C45CD5713"
      },
      {
        "_address": "0xA0ac5c99C36128C1De7F88e4f0894D8859Bbc2B2",
        "_quantity": "100000000000000000000",
        "_chainId": 11155111,
        "_contributor": "0x2a1F5eB3e84e58e6F1e565306298B9dE1273f203",
        "_aggregator": "0x8F24B22fEC09bd35521E6488f709E92CcE8Aa148"
      }
    ],
    "0x51ee111AbF4A375A171736faccF461F7152783cE",
    "100000000000000000000"
  ],
  "numDeployments": 17,
  "solcInputHash": "bac0212dba14278a7ff0f7a6234fa95f",
  "bytecode": "0x60806040523480156200001157600080fd5b506040516200252b3803806200252b8339810160408190526200003491620002dc565b600380546001600160401b03191664010000000063ffffffff8881169190910263ffffffff191691909117908616179055600880546001600160a01b0319166001600160a01b038416179055600981905560005b83518110156200022a576001848281518110620000a957620000a96200043a565b602090810291909101810151825460018082018555600094855293839020825160049092020180546001600160a01b03199081166001600160a01b0393841617825593830151948101949094556040820151600285018054606085015163ffffffff9093166001600160c01b0319909116176401000000009284169290920291909117905560809091015160039093018054909216921691909117905583518490829081106200015d576200015d6200043a565b6020026020010151600260008684815181106200017e576200017e6200043a565b602090810291909101810151516001600160a01b039081168352828201939093526040918201600020845181549085166001600160a01b03199182161782559185015160018201559184015160028301805460608701518616640100000000026001600160c01b031990911663ffffffff909316929092179190911790556080909301516003909101805491909216921691909117905580620002218162000450565b91505062000088565b50505050505062000478565b805163ffffffff811681146200024b57600080fd5b919050565b634e487b7160e01b600052604160045260246000fd5b60405160a081016001600160401b03811182821017156200028b576200028b62000250565b60405290565b604051601f8201601f191681016001600160401b0381118282101715620002bc57620002bc62000250565b604052919050565b80516001600160a01b03811681146200024b57600080fd5b600080600080600060a0808789031215620002f657600080fd5b620003018762000236565b955060206200031281890162000236565b604089810151919750906001600160401b03808211156200033257600080fd5b818b0191508b601f8301126200034757600080fd5b8151818111156200035c576200035c62000250565b6200036c858260051b0162000291565b818152858101925090860283018501908d8211156200038a57600080fd5b928501925b818410156200040f5786848f031215620003a95760008081fd5b620003b362000266565b620003be85620002c4565b81528685015187820152620003d586860162000236565b868201526060620003e8818701620002c4565b908201526080620003fb868201620002c4565b90820152835292860192918501916200038f565b809950505050505050506200042760608701620002c4565b9150608086015190509295509295909350565b634e487b7160e01b600052603260045260246000fd5b6000600182016200047157634e487b7160e01b600052601160045260246000fd5b5060010190565b6120a380620004886000396000f3fe6080604052600436106101405760003560e01c80638c64ea4a116100b6578063b834f6fb1161006f578063b834f6fb14610450578063b98ee2b614610482578063cca3ce2b146104a2578063d030366c146104c4578063e1a2d424146104e4578063eb6a9aa01461050457600080fd5b80638c64ea4a146103625780639403b634146103a2578063956a45a6146103cf5780639a8a0592146103ef5780639a9176c21461040c5780639c58a5a41461043057600080fd5b806342966c681161010857806342966c681461022357806356d5d475146102435780636059f0961461025657806369abaac9146102695780636b8cf65e1461030a57806384710c911461034257600080fd5b8063014372eb146101455780630badce41146101905780630f45ad43146101b2578063250cab39146101eb578063309bfe4a14610201575b600080fd5b34801561015157600080fd5b5061017d6101603660046119eb565b600b60209081526000928352604080842090915290825290205481565b6040519081526020015b60405180910390f35b34801561019c57600080fd5b506101b06101ab366004611a17565b610524565b005b3480156101be57600080fd5b506003546101d690600160201b900463ffffffff1681565b60405163ffffffff9091168152602001610187565b3480156101f757600080fd5b5061017d60095481565b34801561020d57600080fd5b5061021661055d565b6040516101879190611a83565b34801561022f57600080fd5b506101b061023e366004611ace565b610605565b6101b0610251366004611afb565b610a10565b6101b0610264366004611c7c565b610a73565b34801561027557600080fd5b506102ca610284366004611d64565b600260208190526000918252604090912080546001820154928201546003909201546001600160a01b03918216939263ffffffff811692600160201b9091048116911685565b604080516001600160a01b039687168152602081019590955263ffffffff909316928401929092528316606083015291909116608082015260a001610187565b34801561031657600080fd5b5060055461032a906001600160a01b031681565b6040516001600160a01b039091168152602001610187565b34801561034e57600080fd5b5061017d61035d366004611d86565b610a8a565b34801561036e57600080fd5b5061039561037d366004611ace565b600c6020526000908152604090206001015460ff1681565b6040516101879190611da2565b3480156103ae57600080fd5b506103c26103bd366004611ace565b610af9565b6040516101879190611e2f565b3480156103db57600080fd5b506102ca6103ea366004611ace565b610bfa565b3480156103fb57600080fd5b506003546101d69063ffffffff1681565b34801561041857600080fd5b506000546101d690600160a01b900463ffffffff1681565b34801561043c57600080fd5b5060005461032a906001600160a01b031681565b34801561045c57600080fd5b50600354600160201b810463ffffffff9081169116146040519015158152602001610187565b34801561048e57600080fd5b506101b061049d366004611e67565b610c52565b3480156104ae57600080fd5b506104b7610d0d565b6040516101879190611eaa565b3480156104d057600080fd5b506101d66104df366004611ace565b610db2565b3480156104f057600080fd5b506101b06104ff366004611ebd565b610dec565b34801561051057600080fd5b5060085461032a906001600160a01b031681565b6000828152600c6020526040902060019081018054839260ff199091169083600381111561055457610554611a4b565b02179055505050565b60408051605a808252610b6082019092526060916000919060208201610b408036833701905050905060005b81518110156105ff576000818152600c6020526040902060010154825160ff909116908390839081106105be576105be611f11565b602002602001019060038111156105d7576105d7611a4b565b908160038111156105ea576105ea611a4b565b905250806105f781611f3d565b915050610589565b50919050565b60026000828152600c602052604090206001015460ff16600381111561062d5761062d611a4b565b146106755760405162461bcd60e51b815260206004820152601360248201527215985d5b1d081a5cc81b9bdd081b5a5b9d1959606a1b60448201526064015b60405180910390fd5b600354600160201b810463ffffffff9081169116146106d65760405162461bcd60e51b815260206004820152601860248201527f4f6e6c79206d61696e20636861696e2063616e206275726e0000000000000000604482015260640161066c565b600854600954604051632770a7eb60e21b815233600482015260248101919091526001600160a01b0390911690639dc29fac90604401600060405180830381600087803b15801561072657600080fd5b505af115801561073a573d6000803e3d6000fd5b5050505060005b6000828152600c60205260409020548110156108a2576003546000838152600c60205260409020805463ffffffff909216918390811061078357610783611f11565b600091825260209091206002600490920201015463ffffffff1603610890576000828152600c602052604090208054829081106107c2576107c2611f11565b60009182526020808320600490920290910154848352600c909152604090912080546001600160a01b039092169163a9059cbb9133918590811061080857610808611f11565b9060005260206000209060040201600101546040518363ffffffff1660e01b815260040161084b9291906001600160a01b03929092168252602082015260400190565b6020604051808303816000875af115801561086a573d6000803e3d6000fd5b505050506040513d601f19601f8201168201806040525081019061088e9190611f56565b505b8061089a81611f3d565b915050610741565b506000818152600c60209081526040808320600101805460ff1916600317905582546006548251808501879052835180820390950185528084019384905263138857a360e31b9093526001600160a01b038083169594911692639c42bd189261091f92600160a01b90910463ffffffff1691879190604401611f78565b602060405180830381865afa15801561093c573d6000803e3d6000fd5b505050506040513d601f19601f820116820180604052508101906109609190611fdb565b60065460005460408051602081018890529394506001600160a01b039092169263fa31de01928592600160a01b900463ffffffff16918791015b6040516020818303038152906040526040518563ffffffff1660e01b81526004016109c793929190611f78565b60206040518083038185885af11580156109e5573d6000803e3d6000fd5b50505050506040513d601f19601f82011682018060405250810190610a0a9190611fdb565b50505050565b60035463ffffffff600160201b82048116911603610a53576000610a3682840184611c7c565b600354909150610a4d90829063ffffffff16610ec2565b50610a0a565b6000610a6182840184611ace565b9050610a6c81610605565b5050505050565b600354610a8790829063ffffffff16610ec2565b50565b6000805b600154811015610af05782600001516001600160a01b031660018281548110610ab957610ab9611f11565b60009182526020909120600490910201546001600160a01b031603610ade5792915050565b80610ae881611f3d565b915050610a8e565b50600092915050565b6040805180820190915260608152600060208201526000828152600c60209081526040808320815181546060948102820185018452928101838152909491938593919285929185015b82821015610bba5760008481526020908190206040805160a0810182526004860290920180546001600160a01b03908116845260018083015485870152600283015463ffffffff811694860194909452600160201b909304811660608501526003909101541660808301529083529092019101610b42565b50505090825250600182015460209091019060ff166003811115610be057610be0611a4b565b6003811115610bf157610bf1611a4b565b90525092915050565b60018181548110610c0a57600080fd5b600091825260209091206004909102018054600182015460028301546003909301546001600160a01b039283169450909263ffffffff811692600160201b9091048116911685565b60035463ffffffff600160201b82048116911603610cce5760405162461bcd60e51b815260206004820152603360248201527f4d61696e20636861696e206c6f636b20616464726573732063616e6e6f742062604482015272329039b2ba1037b71036b0b4b71031b430b4b760691b606482015260840161066c565b600580546001600160a01b039485166001600160a01b031991821617909155600680549385169382169390931790925560078054919093169116179055565b60606001805480602002602001604051908101604052809291908181526020016000905b82821015610da95760008481526020908190206040805160a0810182526004860290920180546001600160a01b03908116845260018083015485870152600283015463ffffffff811694860194909452600160201b909304811660608501526003909101541660808301529083529092019101610d31565b50505050905090565b60048181548110610dc257600080fd5b9060005260206000209060089182820401919006600402915054906101000a900463ffffffff1681565b600354600160201b810463ffffffff908116911614610e675760405162461bcd60e51b815260206004820152603160248201527f5369646520436861696e206c6f636b20616464726573732063616e206f6e6c796044820152701031329039b2ba1036b0b4b731b430b4b760791b606482015260840161066c565b600680546001600160a01b039384166001600160a01b0319918216179091556000805460078054948616948416949094179093559490921663ffffffff909316600160a01b029091166001600160c01b031990911617179055565b8151602083015160016000838152600c602052604090206001015460ff166003811115610ef157610ef1611a4b565b1480610f2057506000828152600c602052604081206001015460ff166003811115610f1e57610f1e611a4b565b145b610f6c5760405162461bcd60e51b815260206004820152601a60248201527f5661756c74206973206e6f74206f70656e206f7220656d707479000000000000604482015260640161066c565b6000828152600c602052604081206001015460ff166003811115610f9257610f92611a4b565b0361112e5760005b60015481101561110e57600c60008481526020019081526020016000206000016040518060a0016040528060018481548110610fd857610fd8611f11565b600091825260208083206004909202909101546001600160a01b03168352820152600180546040909201918590811061101357611013611f11565b600091825260208083206002600490930201919091015463ffffffff168352820152600180546040909201918590811061104f5761104f611f11565b60009182526020808320600360049384029091018101546001600160a01b039081169095528654600181810189559785529382902086519490930290920180549385166001600160a01b03199485161781559085015195810195909555604084015160028601805460608701518616600160201b026001600160c01b031990911663ffffffff9093169290921791909117905560809093015193909201805493909116929091169190911790558061110681611f3d565b915050610f9a565b506000828152600c602052604090206001908101805460ff191690911790555b60005b8151811015611637576002600083838151811061115057611150611f11565b6020026020010151600001516001600160a01b03166001600160a01b0316815260200190815260200160002060010154600c600085815260200190815260200160002060000182815481106111a7576111a7611f11565b9060005260206000209060040201600101548383815181106111cb576111cb611f11565b6020026020010151602001516111e19190611ff4565b11156112425760405162461bcd60e51b815260206004820152602a60248201527f546f6b656e207175616e746974792065786365656473207468652072657175696044820152691c995908185b5bdd5b9d60b21b606482015260840161066c565b600061126683838151811061125957611259611f11565b6020026020010151610a8a565b90508463ffffffff1683838151811061128157611281611f11565b60200260200101516040015163ffffffff160361137d578282815181106112aa576112aa611f11565b6020026020010151600001516001600160a01b03166323b872dd8484815181106112d6576112d6611f11565b602002602001015160600151308686815181106112f5576112f5611f11565b60209081029190910181015101516040516001600160e01b031960e086901b1681526001600160a01b03938416600482015292909116602483015260448201526064016020604051808303816000875af1158015611357573d6000803e3d6000fd5b505050506040513d601f19601f8201168201806040525081019061137b9190611f56565b505b82828151811061138f5761138f611f11565b602002602001015160200151600c600086815260200190815260200160002060000182815481106113c2576113c2611f11565b906000526020600020906004020160010160008282546113e29190611ff4565b925050819055507f80590f9d7015c327349ea64242fc29353801fcad956721a0e45f725338db06f48484848151811061141d5761141d611f11565b60200260200101516000015185858151811061143b5761143b611f11565b60200260200101516020015186868151811061145957611459611f11565b60200260200101516040015187878151811061147757611477611f11565b6020026020010151606001516040516114c19594939291909485526001600160a01b039384166020860152604085019290925263ffffffff16606084015216608082015260a00190565b60405180910390a160035463ffffffff600160201b8204811691160361162457600b6000858152602001908152602001600020600084848151811061150857611508611f11565b6020026020010151606001516001600160a01b03166001600160a01b031681526020019081526020016000205460000361159e576000848152600a60205260409020835184908490811061155e5761155e611f11565b6020908102919091018101516060015182546001810184556000938452919092200180546001600160a01b0319166001600160a01b039092169190911790555b8282815181106115b0576115b0611f11565b602002602001015160200151600b600086815260200190815260200160002060008585815181106115e3576115e3611f11565b6020026020010151606001516001600160a01b03166001600160a01b03168152602001908152602001600020600082825461161e9190611ff4565b90915550505b508061162f81611f3d565b915050611131565b5060005b6001548110156116c2576001818154811061165857611658611f11565b906000526020600020906004020160010154600c6000858152602001908152602001600020600001828154811061169157611691611f11565b90600052602060002090600402016001015410156116b0575050505050565b806116ba81611f3d565b91505061163b565b506000828152600c60205260409020600101805460ff1916600217905560035463ffffffff808216600160201b9092041603611706576117018261170f565b610a0a565b610a0a846118e0565b6000805b6000838152600a6020526040902054811015611799576000838152600b60209081526040808320600a909252822080549192918490811061175657611756611f11565b60009182526020808320909101546001600160a01b031683528201929092526040019020546117859083611ff4565b91508061179181611f3d565b915050611713565b5060005b6000838152600a60205260409020548110156118db576009546000848152600b60209081526040808320600a90925282208054929386939092918591879081106117e9576117e9611f11565b60009182526020808320909101546001600160a01b031683528201929092526040019020546118189190612007565b611822919061201e565b6008546000868152600a6020526040902080549293506001600160a01b03909116916340c10f1991908590811061185b5761185b611f11565b60009182526020909120015460405160e083901b6001600160e01b03191681526001600160a01b03909116600482015260248101849052604401600060405180830381600087803b1580156118af57600080fd5b505af11580156118c3573d6000803e3d6000fd5b505050505080806118d390611f3d565b91505061179d565b505050565b6005546006546003546040516001600160a01b03938416936000931691639c42bd1891600160201b90910463ffffffff16908590611922908890602001612040565b6040516020818303038152906040526040518463ffffffff1660e01b815260040161194f93929190611f78565b602060405180830381865afa15801561196c573d6000803e3d6000fd5b505050506040513d601f19601f820116820180604052508101906119909190611fdb565b6006546003546040519293506001600160a01b039091169163fa31de01918491600160201b90910463ffffffff1690869061099a908990602001612040565b80356001600160a01b03811681146119e657600080fd5b919050565b600080604083850312156119fe57600080fd5b82359150611a0e602084016119cf565b90509250929050565b60008060408385031215611a2a57600080fd5b82359150602083013560048110611a4057600080fd5b809150509250929050565b634e487b7160e01b600052602160045260246000fd5b60048110611a7f57634e487b7160e01b600052602160045260246000fd5b9052565b6020808252825182820181905260009190848201906040850190845b81811015611ac257611ab2838551611a61565b9284019291840191600101611a9f565b50909695505050505050565b600060208284031215611ae057600080fd5b5035919050565b803563ffffffff811681146119e657600080fd5b60008060008060608587031215611b1157600080fd5b611b1a85611ae7565b935060208501359250604085013567ffffffffffffffff80821115611b3e57600080fd5b818701915087601f830112611b5257600080fd5b813581811115611b6157600080fd5b886020828501011115611b7357600080fd5b95989497505060200194505050565b634e487b7160e01b600052604160045260246000fd5b6040805190810167ffffffffffffffff81118282101715611bbb57611bbb611b82565b60405290565b604051601f8201601f1916810167ffffffffffffffff81118282101715611bea57611bea611b82565b604052919050565b600060a08284031215611c0457600080fd5b60405160a0810181811067ffffffffffffffff82111715611c2757611c27611b82565b604052905080611c36836119cf565b815260208301356020820152611c4e60408401611ae7565b6040820152611c5f606084016119cf565b6060820152611c70608084016119cf565b60808201525092915050565b60006020808385031215611c8f57600080fd5b823567ffffffffffffffff80821115611ca757600080fd5b9084019060408287031215611cbb57600080fd5b611cc3611b98565b823581528383013582811115611cd857600080fd5b80840193505086601f840112611ced57600080fd5b823582811115611cff57611cff611b82565b611d0d858260051b01611bc1565b818152858101935060a0918202850186019189831115611d2c57600080fd5b948601945b82861015611d5257611d438a87611bf2565b85529485019493860193611d31565b50948201949094529695505050505050565b600060208284031215611d7657600080fd5b611d7f826119cf565b9392505050565b600060a08284031215611d9857600080fd5b611d7f8383611bf2565b60208101611db08284611a61565b92915050565b600081518084526020808501945080840160005b83811015611e2457815180516001600160a01b03908116895284820151858a015260408083015163ffffffff16908a01526060808301518216908a0152608091820151169088015260a09096019590820190600101611dca565b509495945050505050565b602081526000825160406020840152611e4b6060840182611db6565b90506020840151611e5f6040850182611a61565b509392505050565b600080600060608486031215611e7c57600080fd5b611e85846119cf565b9250611e93602085016119cf565b9150611ea1604085016119cf565b90509250925092565b602081526000611d7f6020830184611db6565b60008060008060808587031215611ed357600080fd5b611edc856119cf565b9350611eea60208601611ae7565b9250611ef8604086016119cf565b9150611f06606086016119cf565b905092959194509250565b634e487b7160e01b600052603260045260246000fd5b634e487b7160e01b600052601160045260246000fd5b600060018201611f4f57611f4f611f27565b5060010190565b600060208284031215611f6857600080fd5b81518015158114611d7f57600080fd5b63ffffffff8416815260006020848184015260606040840152835180606085015260005b81811015611fb857858101830151858201608001528201611f9c565b506000608082860101526080601f19601f83011685010192505050949350505050565b600060208284031215611fed57600080fd5b5051919050565b80820180821115611db057611db0611f27565b8082028115828204841417611db057611db0611f27565b60008261203b57634e487b7160e01b600052601260045260246000fd5b500490565b6020815281516020820152600060208301516040808401526120656060840182611db6565b94935050505056fea2646970667358221220000bfa101a30dccf779ceaa9facf3098520155816c02ca9b81d35121b87db37564736f6c63430008110033",
  "devdoc": {
    "kind": "dev",
    "methods": {},
    "version": 1
  },
  "userdoc": {
    "kind": "user",
    "methods": {},
    "version": 1
  },
  "storageLayout": {
    "storage": [
      {
        "astId": 1191,
        "contract": "contracts/ETFLock.sol:ETFLock",
        "label": "sideChainLock",
        "offset": 0,
        "slot": "0",
        "type": "t_address"
      },
      {
        "astId": 1193,
        "contract": "contracts/ETFLock.sol:ETFLock",
        "label": "sideChainId",
        "offset": 20,
        "slot": "0",
        "type": "t_uint32"
      },
      {
        "astId": 1197,
        "contract": "contracts/ETFLock.sol:ETFLock",
        "label": "requiredTokens",
        "offset": 0,
        "slot": "1",
        "type": "t_array(t_struct(TokenQuantity)1160_storage)dyn_storage"
      },
      {
        "astId": 1202,
        "contract": "contracts/ETFLock.sol:ETFLock",
        "label": "addressToToken",
        "offset": 0,
        "slot": "2",
        "type": "t_mapping(t_address,t_struct(TokenQuantity)1160_storage)"
      },
      {
        "astId": 1204,
        "contract": "contracts/ETFLock.sol:ETFLock",
        "label": "chainId",
        "offset": 0,
        "slot": "3",
        "type": "t_uint32"
      },
      {
        "astId": 1206,
        "contract": "contracts/ETFLock.sol:ETFLock",
        "label": "mainChainId",
        "offset": 4,
        "slot": "3",
        "type": "t_uint32"
      },
      {
        "astId": 1209,
        "contract": "contracts/ETFLock.sol:ETFLock",
        "label": "receivedMessages",
        "offset": 0,
        "slot": "4",
        "type": "t_array(t_uint32)dyn_storage"
      },
      {
        "astId": 1211,
        "contract": "contracts/ETFLock.sol:ETFLock",
        "label": "mainChainLock",
        "offset": 0,
        "slot": "5",
        "type": "t_address"
      },
      {
        "astId": 1214,
        "contract": "contracts/ETFLock.sol:ETFLock",
        "label": "outbox",
        "offset": 0,
        "slot": "6",
        "type": "t_contract(IMailbox)247"
      },
      {
        "astId": 1217,
        "contract": "contracts/ETFLock.sol:ETFLock",
        "label": "securityModule",
        "offset": 0,
        "slot": "7",
        "type": "t_contract(IInterchainSecurityModule)73"
      },
      {
        "astId": 1219,
        "contract": "contracts/ETFLock.sol:ETFLock",
        "label": "etfToken",
        "offset": 0,
        "slot": "8",
        "type": "t_address"
      },
      {
        "astId": 1221,
        "contract": "contracts/ETFLock.sol:ETFLock",
        "label": "etfTokenPerVault",
        "offset": 0,
        "slot": "9",
        "type": "t_uint256"
      },
      {
        "astId": 1226,
        "contract": "contracts/ETFLock.sol:ETFLock",
        "label": "contributorsByVault",
        "offset": 0,
        "slot": "10",
        "type": "t_mapping(t_uint256,t_array(t_address)dyn_storage)"
      },
      {
        "astId": 1232,
        "contract": "contracts/ETFLock.sol:ETFLock",
        "label": "accountContributionsPerVault",
        "offset": 0,
        "slot": "11",
        "type": "t_mapping(t_uint256,t_mapping(t_address,t_uint256))"
      },
      {
        "astId": 1249,
        "contract": "contracts/ETFLock.sol:ETFLock",
        "label": "vaults",
        "offset": 0,
        "slot": "12",
        "type": "t_mapping(t_uint256,t_struct(Vault)1168_storage)"
      }
    ],
    "types": {
      "t_address": {
        "encoding": "inplace",
        "label": "address",
        "numberOfBytes": "20"
      },
      "t_array(t_address)dyn_storage": {
        "base": "t_address",
        "encoding": "dynamic_array",
        "label": "address[]",
        "numberOfBytes": "32"
      },
      "t_array(t_struct(TokenQuantity)1160_storage)dyn_storage": {
        "base": "t_struct(TokenQuantity)1160_storage",
        "encoding": "dynamic_array",
        "label": "struct TokenQuantity[]",
        "numberOfBytes": "32"
      },
      "t_array(t_uint32)dyn_storage": {
        "base": "t_uint32",
        "encoding": "dynamic_array",
        "label": "uint32[]",
        "numberOfBytes": "32"
      },
      "t_contract(IInterchainSecurityModule)73": {
        "encoding": "inplace",
        "label": "contract IInterchainSecurityModule",
        "numberOfBytes": "20"
      },
      "t_contract(IMailbox)247": {
        "encoding": "inplace",
        "label": "contract IMailbox",
        "numberOfBytes": "20"
      },
      "t_enum(VaultState)1173": {
        "encoding": "inplace",
        "label": "enum VaultState",
        "numberOfBytes": "1"
      },
      "t_mapping(t_address,t_struct(TokenQuantity)1160_storage)": {
        "encoding": "mapping",
        "key": "t_address",
        "label": "mapping(address => struct TokenQuantity)",
        "numberOfBytes": "32",
        "value": "t_struct(TokenQuantity)1160_storage"
      },
      "t_mapping(t_address,t_uint256)": {
        "encoding": "mapping",
        "key": "t_address",
        "label": "mapping(address => uint256)",
        "numberOfBytes": "32",
        "value": "t_uint256"
      },
      "t_mapping(t_uint256,t_array(t_address)dyn_storage)": {
        "encoding": "mapping",
        "key": "t_uint256",
        "label": "mapping(uint256 => address[])",
        "numberOfBytes": "32",
        "value": "t_array(t_address)dyn_storage"
      },
      "t_mapping(t_uint256,t_mapping(t_address,t_uint256))": {
        "encoding": "mapping",
        "key": "t_uint256",
        "label": "mapping(uint256 => mapping(address => uint256))",
        "numberOfBytes": "32",
        "value": "t_mapping(t_address,t_uint256)"
      },
      "t_mapping(t_uint256,t_struct(Vault)1168_storage)": {
        "encoding": "mapping",
        "key": "t_uint256",
        "label": "mapping(uint256 => struct Vault)",
        "numberOfBytes": "32",
        "value": "t_struct(Vault)1168_storage"
      },
      "t_struct(TokenQuantity)1160_storage": {
        "encoding": "inplace",
        "label": "struct TokenQuantity",
        "members": [
          {
            "astId": 1151,
            "contract": "contracts/ETFLock.sol:ETFLock",
            "label": "_address",
            "offset": 0,
            "slot": "0",
            "type": "t_address"
          },
          {
            "astId": 1153,
            "contract": "contracts/ETFLock.sol:ETFLock",
            "label": "_quantity",
            "offset": 0,
            "slot": "1",
            "type": "t_uint256"
          },
          {
            "astId": 1155,
            "contract": "contracts/ETFLock.sol:ETFLock",
            "label": "_chainId",
            "offset": 0,
            "slot": "2",
            "type": "t_uint32"
          },
          {
            "astId": 1157,
            "contract": "contracts/ETFLock.sol:ETFLock",
            "label": "_contributor",
            "offset": 4,
            "slot": "2",
            "type": "t_address"
          },
          {
            "astId": 1159,
            "contract": "contracts/ETFLock.sol:ETFLock",
            "label": "_aggregator",
            "offset": 0,
            "slot": "3",
            "type": "t_address"
          }
        ],
        "numberOfBytes": "128"
      },
      "t_struct(Vault)1168_storage": {
        "encoding": "inplace",
        "label": "struct Vault",
        "members": [
          {
            "astId": 1164,
            "contract": "contracts/ETFLock.sol:ETFLock",
            "label": "_tokens",
            "offset": 0,
            "slot": "0",
            "type": "t_array(t_struct(TokenQuantity)1160_storage)dyn_storage"
          },
          {
            "astId": 1167,
            "contract": "contracts/ETFLock.sol:ETFLock",
            "label": "state",
            "offset": 0,
            "slot": "1",
            "type": "t_enum(VaultState)1173"
          }
        ],
        "numberOfBytes": "64"
      },
      "t_uint256": {
        "encoding": "inplace",
        "label": "uint256",
        "numberOfBytes": "32"
      },
      "t_uint32": {
        "encoding": "inplace",
        "label": "uint32",
        "numberOfBytes": "4"
      }
    }
  }
}