{
  "address": "0x5159D995a8eD2B6b6938D999D27E9B70c8Ac6FC8",
  "abi": [
    {
      "inputs": [
        {
          "internalType": "uint32",
          "name": "_chainId",
          "type": "uint32"
        },
        {
          "components": [
            {
              "internalType": "address",
              "name": "_address",
              "type": "address"
            },
            {
              "internalType": "uint256",
              "name": "_quantity",
              "type": "uint256"
            },
            {
              "internalType": "uint32",
              "name": "_chainId",
              "type": "uint32"
            },
            {
              "internalType": "address",
              "name": "_contributor",
              "type": "address"
            },
            {
              "internalType": "address",
              "name": "_aggregator",
              "type": "address"
            }
          ],
          "internalType": "struct TokenQuantity[]",
          "name": "_requiredTokens",
          "type": "tuple[]"
        },
        {
          "internalType": "address",
          "name": "_etfToken",
          "type": "address"
        },
        {
          "internalType": "uint256",
          "name": "_etfTokenPerVault",
          "type": "uint256"
        }
      ],
      "stateMutability": "nonpayable",
      "type": "constructor"
    },
    {
      "anonymous": false,
      "inputs": [
        {
          "indexed": false,
          "internalType": "uint256",
          "name": "_vaultId",
          "type": "uint256"
        },
        {
          "indexed": false,
          "internalType": "address",
          "name": "_address",
          "type": "address"
        },
        {
          "indexed": false,
          "internalType": "uint256",
          "name": "_quantity",
          "type": "uint256"
        },
        {
          "indexed": false,
          "internalType": "uint32",
          "name": "_chainId",
          "type": "uint32"
        },
        {
          "indexed": false,
          "internalType": "address",
          "name": "_contributor",
          "type": "address"
        }
      ],
      "name": "Deposit",
      "type": "event"
    },
    {
      "inputs": [
        {
          "internalType": "uint256",
          "name": "",
          "type": "uint256"
        },
        {
          "internalType": "address",
          "name": "",
          "type": "address"
        }
      ],
      "name": "accountContributionsPerVault",
      "outputs": [
        {
          "internalType": "uint256",
          "name": "",
          "type": "uint256"
        }
      ],
      "stateMutability": "view",
      "type": "function"
    },
    {
      "inputs": [
        {
          "internalType": "address",
          "name": "",
          "type": "address"
        }
      ],
      "name": "addressToToken",
      "outputs": [
        {
          "internalType": "address",
          "name": "_address",
          "type": "address"
        },
        {
          "internalType": "uint256",
          "name": "_quantity",
          "type": "uint256"
        },
        {
          "internalType": "uint32",
          "name": "_chainId",
          "type": "uint32"
        },
        {
          "internalType": "address",
          "name": "_contributor",
          "type": "address"
        },
        {
          "internalType": "address",
          "name": "_aggregator",
          "type": "address"
        }
      ],
      "stateMutability": "view",
      "type": "function"
    },
    {
      "inputs": [
        {
          "internalType": "uint256",
          "name": "_vaultId",
          "type": "uint256"
        }
      ],
      "name": "burn",
      "outputs": [],
      "stateMutability": "nonpayable",
      "type": "function"
    },
    {
      "inputs": [],
      "name": "chainId",
      "outputs": [
        {
          "internalType": "uint32",
          "name": "",
          "type": "uint32"
        }
      ],
      "stateMutability": "view",
      "type": "function"
    },
    {
      "inputs": [
        {
          "components": [
            {
              "internalType": "uint256",
              "name": "vaultId",
              "type": "uint256"
            },
            {
              "components": [
                {
                  "internalType": "address",
                  "name": "_address",
                  "type": "address"
                },
                {
                  "internalType": "uint256",
                  "name": "_quantity",
                  "type": "uint256"
                },
                {
                  "internalType": "uint32",
                  "name": "_chainId",
                  "type": "uint32"
                },
                {
                  "internalType": "address",
                  "name": "_contributor",
                  "type": "address"
                },
                {
                  "internalType": "address",
                  "name": "_aggregator",
                  "type": "address"
                }
              ],
              "internalType": "struct TokenQuantity[]",
              "name": "tokens",
              "type": "tuple[]"
            }
          ],
          "internalType": "struct DepositInfo",
          "name": "_depositInfo",
          "type": "tuple"
        }
      ],
      "name": "deposit",
      "outputs": [],
      "stateMutability": "nonpayable",
      "type": "function"
    },
    {
      "inputs": [],
      "name": "etfToken",
      "outputs": [
        {
          "internalType": "address",
          "name": "",
          "type": "address"
        }
      ],
      "stateMutability": "view",
      "type": "function"
    },
    {
      "inputs": [],
      "name": "etfTokenPerVault",
      "outputs": [
        {
          "internalType": "uint256",
          "name": "",
          "type": "uint256"
        }
      ],
      "stateMutability": "view",
      "type": "function"
    },
    {
      "inputs": [
        {
          "internalType": "uint256",
          "name": "_vaultId",
          "type": "uint256"
        }
      ],
      "name": "getVault",
      "outputs": [
        {
          "components": [
            {
              "components": [
                {
                  "internalType": "address",
                  "name": "_address",
                  "type": "address"
                },
                {
                  "internalType": "uint256",
                  "name": "_quantity",
                  "type": "uint256"
                },
                {
                  "internalType": "uint32",
                  "name": "_chainId",
                  "type": "uint32"
                },
                {
                  "internalType": "address",
                  "name": "_contributor",
                  "type": "address"
                },
                {
                  "internalType": "address",
                  "name": "_aggregator",
                  "type": "address"
                }
              ],
              "internalType": "struct TokenQuantity[]",
              "name": "_tokens",
              "type": "tuple[]"
            },
            {
              "internalType": "enum VaultState",
              "name": "state",
              "type": "uint8"
            }
          ],
          "internalType": "struct Vault",
          "name": "",
          "type": "tuple"
        }
      ],
      "stateMutability": "view",
      "type": "function"
    },
    {
      "inputs": [],
      "name": "getVaultStates",
      "outputs": [
        {
          "internalType": "enum VaultState[]",
          "name": "",
          "type": "uint8[]"
        }
      ],
      "stateMutability": "view",
      "type": "function"
    },
    {
      "inputs": [
        {
          "internalType": "uint32",
          "name": "_origin",
          "type": "uint32"
        },
        {
          "internalType": "bytes32",
          "name": "_sender",
          "type": "bytes32"
        },
        {
          "internalType": "bytes",
          "name": "_message",
          "type": "bytes"
        }
      ],
      "name": "handle",
      "outputs": [],
      "stateMutability": "payable",
      "type": "function"
    },
    {
      "inputs": [],
      "name": "sideChainLock",
      "outputs": [
        {
          "internalType": "address",
          "name": "",
          "type": "address"
        }
      ],
      "stateMutability": "view",
      "type": "function"
    },
    {
      "inputs": [
        {
          "internalType": "uint256",
          "name": "",
          "type": "uint256"
        }
      ],
      "name": "vaults",
      "outputs": [
        {
          "internalType": "enum VaultState",
          "name": "state",
          "type": "uint8"
        }
      ],
      "stateMutability": "view",
      "type": "function"
    }
  ],
  "transactionHash": "0x90ba5390588d0b4f265be937a492e9c0b02b53d7918c83fd5cf0c394d5e5f36e",
  "args": [
    128123,
    [
      {
        "_address": "0x40811E89046C2Bb371Fd1daB4F3858C521641345",
        "_quantity": "100000000000000000000",
        "_chainId": 128123,
        "_contributor": "0x2a1F5eB3e84e58e6F1e565306298B9dE1273f203",
        "_aggregator": "0xb592B72b0f63d854EAF9Cb710E3B8FF2EC451cae"
      },
      {
        "_address": "0x364fe61760399eF710C2Fd0F0306FE4b1d034311",
        "_quantity": "200000000000000000000",
        "_chainId": 128123,
        "_contributor": "0x2a1F5eB3e84e58e6F1e565306298B9dE1273f203",
        "_aggregator": "0x60C7B3Ec1E04d84501911338b7611684022e1ac2"
      }
    ],
    "0xc46c82833EDfd1584DCeb169F7066759587E44FF",
    "100000000000000000000"
  ],
  "numDeployments": 3,
  "solcInputHash": "c44d213e671eeacf3ffe6a7a0e87dfd0",
  "bytecode": "0x60806040523480156200001157600080fd5b5060405162001ab738038062001ab78339810160408190526200003491620002bb565b600380546001600160a01b038416640100000000026001600160c01b031990911663ffffffff871617179055600481905560005b83518110156200020a57600184828151811062000089576200008962000405565b602090810291909101810151825460018082018555600094855293839020825160049092020180546001600160a01b03199081166001600160a01b0393841617825593830151948101949094556040820151600285018054606085015163ffffffff9093166001600160c01b0319909116176401000000009284169290920291909117905560809091015160039093018054909216921691909117905583518490829081106200013d576200013d62000405565b6020026020010151600260008684815181106200015e576200015e62000405565b602090810291909101810151516001600160a01b039081168352828201939093526040918201600020845181549085166001600160a01b03199182161782559185015160018201559184015160028301805460608701518616640100000000026001600160c01b031990911663ffffffff90931692909217919091179055608090930151600390910180549190921692169190911790558062000201816200041b565b91505062000068565b505050505062000443565b805163ffffffff811681146200022a57600080fd5b919050565b634e487b7160e01b600052604160045260246000fd5b60405160a081016001600160401b03811182821017156200026a576200026a6200022f565b60405290565b604051601f8201601f191681016001600160401b03811182821017156200029b576200029b6200022f565b604052919050565b80516001600160a01b03811681146200022a57600080fd5b6000806000806080808688031215620002d357600080fd5b620002de8662000215565b602087810151919650906001600160401b0380821115620002fe57600080fd5b818901915089601f8301126200031357600080fd5b8151818111156200032857620003286200022f565b62000338848260051b0162000270565b818152848101925060a091820284018501918c8311156200035857600080fd5b938501935b82851015620003dd5780858e031215620003775760008081fd5b6200038162000245565b6200038c86620002a3565b815286860151878201526040620003a581880162000215565b908201526060620003b8878201620002a3565b90820152620003c9868901620002a3565b81890152845293840193928501926200035d565b50809850505050505050620003f560408601620002a3565b6060959095015193969295505050565b634e487b7160e01b600052603260045260246000fd5b6000600182016200043c57634e487b7160e01b600052601160045260246000fd5b5060010190565b61166480620004536000396000f3fe6080604052600436106100a75760003560e01c806369abaac91161006457806369abaac9146101845780638c64ea4a146102265780639403b634146102665780639a8a0592146102935780639c58a5a4146102c5578063eb6a9aa0146102fd57600080fd5b8063014372eb146100ac578063250cab39146100f7578063309bfe4a1461010d57806342966c681461012f57806356d5d475146101515780636059f09614610164575b600080fd5b3480156100b857600080fd5b506100e46100c7366004611105565b600660209081526000928352604080842090915290825290205481565b6040519081526020015b60405180910390f35b34801561010357600080fd5b506100e460045481565b34801561011957600080fd5b50610122610325565b6040516100ee9190611169565b34801561013b57600080fd5b5061014f61014a3660046111b4565b6103cd565b005b61014f61015f3660046111e1565b6104e9565b34801561017057600080fd5b5061014f61017f3660046112fb565b61059a565b34801561019057600080fd5b506101e661019f366004611438565b600260208190526000918252604090912080546001820154928201546003909201546001600160a01b03918216939263ffffffff8116926401000000009091048116911685565b604080516001600160a01b039687168152602081019590955263ffffffff909316928401929092528316606083015291909116608082015260a0016100ee565b34801561023257600080fd5b506102596102413660046111b4565b60076020526000908152604090206001015460ff1681565b6040516100ee919061145a565b34801561027257600080fd5b506102866102813660046111b4565b6105b1565b6040516100ee919061146e565b34801561029f57600080fd5b506003546102b09063ffffffff1681565b60405163ffffffff90911681526020016100ee565b3480156102d157600080fd5b506000546102e5906001600160a01b031681565b6040516001600160a01b0390911681526020016100ee565b34801561030957600080fd5b506003546102e59064010000000090046001600160a01b031681565b60408051605a808252610b6082019092526060916000919060208201610b408036833701905050905060005b81518110156103c757600081815260076020526040902060010154825160ff909116908390839081106103865761038661150d565b6020026020010190600381111561039f5761039f611131565b908160038111156103b2576103b2611131565b905250806103bf81611539565b915050610351565b50919050565b60005b6000828152600760205260409020548110156104e55760008281526007602052604090208054829081106104065761040661150d565b600091825260208083206004909202909101548483526007909152604090912080546001600160a01b039092169163a9059cbb9133918590811061044c5761044c61150d565b9060005260206000209060040201600101546040518363ffffffff1660e01b815260040161048f9291906001600160a01b03929092168252602082015260400190565b6020604051808303816000875af11580156104ae573d6000803e3d6000fd5b505050506040513d601f19601f820116820180604052508101906104d29190611552565b50806104dd81611539565b9150506103d0565b5050565b6000546001600160a01b0316836001600160a01b0316146105515760405162461bcd60e51b815260206004820152601f60248201527f53656e646572206973206e6f74207468652073696465436861696e4c6f636b0060448201526064015b60405180910390fd5b600061055f828401846112fb565b90506000816020015160008151811061057a5761057a61150d565b602002602001015160400151905061059282826106b3565b505050505050565b6003546105ae90829063ffffffff166106b3565b50565b6040805180820190915260608152600060208201526000828152600760209081526040808320815181546060948102820185018452928101838152909491938593919285929185015b828210156106735760008481526020908190206040805160a0810182526004860290920180546001600160a01b03908116845260018083015485870152600283015463ffffffff8116948601949094526401000000009093048116606085015260039091015416608083015290835290920191016105fa565b50505090825250600182015460209091019060ff16600381111561069957610699611131565b60038111156106aa576106aa611131565b90525092915050565b81516020830151600160008381526007602052604090206001015460ff1660038111156106e2576106e2611131565b1480610711575060008281526007602052604081206001015460ff16600381111561070f5761070f611131565b145b61075d5760405162461bcd60e51b815260206004820152601a60248201527f5661756c74206973206e6f74206f70656e206f7220656d7074790000000000006044820152606401610548565b60008281526007602052604081206001015460ff16600381111561078357610783611131565b036108f75760005b6001548110156108d757600760008481526020019081526020016000206000016040518060a00160405280600184815481106107c9576107c961150d565b600091825260208083206004909202909101546001600160a01b03168352820181905263ffffffff88166040830152606082015260018054608090920191859081106108175761081761150d565b60009182526020808320600360049384029091018101546001600160a01b039081169095528654600181810189559785529382902086519490930290920180549385166001600160a01b03199485161781559085015195810195909555604084015160028601805460608701518616640100000000026001600160c01b031990911663ffffffff909316929092179190911790556080909301519390920180549390911692909116919091179055806108cf81611539565b91505061078b565b5060008281526007602052604090206001908101805460ff191690911790555b60005b8151811015610dec578363ffffffff1682828151811061091c5761091c61150d565b60200260200101516040015163ffffffff16146109a15760405162461bcd60e51b815260206004820152603860248201527f546f6b656e20636861696e496420646f6573206e6f74206d617463682074686560448201527f20636861696e4964206f662074686520636f6e747261637400000000000000006064820152608401610548565b610a0460405180604001604052806011815260200170546f6b656e20616464726573733a20257360781b8152508383815181106109e0576109e061150d565b60209081029190910181015151600087815260079092526040909120548490610ea3565b60026000838381518110610a1a57610a1a61150d565b6020026020010151600001516001600160a01b03166001600160a01b0316815260200190815260200160002060010154600760008581526020019081526020016000206000018281548110610a7157610a7161150d565b906000526020600020906004020160010154838381518110610a9557610a9561150d565b602002602001015160200151610aab9190611574565b1115610b0c5760405162461bcd60e51b815260206004820152602a60248201527f546f6b656e207175616e746974792065786365656473207468652072657175696044820152691c995908185b5bdd5b9d60b21b6064820152608401610548565b818181518110610b1e57610b1e61150d565b6020026020010151600001516001600160a01b03166323b872dd838381518110610b4a57610b4a61150d565b60200260200101516060015130858581518110610b6957610b6961150d565b60209081029190910181015101516040516001600160e01b031960e086901b1681526001600160a01b03938416600482015292909116602483015260448201526064016020604051808303816000875af1158015610bcb573d6000803e3d6000fd5b505050506040513d601f19601f82011682018060405250810190610bef9190611552565b50818181518110610c0257610c0261150d565b602002602001015160200151600760008581526020019081526020016000206000018281548110610c3557610c3561150d565b90600052602060002090600402016001016000828254610c559190611574565b925050819055507f80590f9d7015c327349ea64242fc29353801fcad956721a0e45f725338db06f483838381518110610c9057610c9061150d565b602002602001015160000151848481518110610cae57610cae61150d565b602002602001015160200151858581518110610ccc57610ccc61150d565b602002602001015160400151868681518110610cea57610cea61150d565b602002602001015160600151604051610d349594939291909485526001600160a01b039384166020860152604085019290925263ffffffff16606084015216608082015260a00190565b60405180910390a160008381526006602090815260408083203384529091528120549003610d8b5760008381526005602090815260408220805460018101825590835291200180546001600160a01b031916331790555b818181518110610d9d57610d9d61150d565b6020908102919091018101518101516000858152600683526040808220338352909352918220805491929091610dd4908490611574565b90915550819050610de481611539565b9150506108fa565b5060005b600154811015610e775760018181548110610e0d57610e0d61150d565b906000526020600020906004020160010154600760008581526020019081526020016000206000018281548110610e4657610e4661150d565b9060005260206000209060040201600101541015610e65575050505050565b80610e6f81611539565b915050610df0565b506000828152600760205260409020600101805460ff19166002179055610e9d82610eec565b50505050565b610e9d84848484604051602401610ebd9493929190611587565b60408051601f198184030181529190526020810180516001600160e01b0316637c7a8d8f60e11b1790526110c4565b6000805b600083815260056020526040902054811015610f7657600083815260066020908152604080832060059092528220805491929184908110610f3357610f3361150d565b60009182526020808320909101546001600160a01b03168352820192909252604001902054610f629083611574565b915080610f6e81611539565b915050610ef0565b5060005b6000838152600560205260409020548110156110bf57600454600084815260066020908152604080832060059092528220805492938693909291859187908110610fc657610fc661150d565b60009182526020808320909101546001600160a01b03168352820192909252604001902054610ff591906115f5565b610fff919061160c565b600354600086815260056020526040902080549293506401000000009091046001600160a01b0316916340c10f1991908590811061103f5761103f61150d565b60009182526020909120015460405160e083901b6001600160e01b03191681526001600160a01b03909116600482015260248101849052604401600060405180830381600087803b15801561109357600080fd5b505af11580156110a7573d6000803e3d6000fd5b505050505080806110b790611539565b915050610f7a565b505050565b6105ae8160006a636f6e736f6c652e6c6f679050600080835160208501845afa505050565b80356001600160a01b038116811461110057600080fd5b919050565b6000806040838503121561111857600080fd5b82359150611128602084016110e9565b90509250929050565b634e487b7160e01b600052602160045260246000fd5b6004811061116557634e487b7160e01b600052602160045260246000fd5b9052565b6020808252825182820181905260009190848201906040850190845b818110156111a857611198838551611147565b9284019291840191600101611185565b50909695505050505050565b6000602082840312156111c657600080fd5b5035919050565b803563ffffffff8116811461110057600080fd5b600080600080606085870312156111f757600080fd5b611200856111cd565b935060208501359250604085013567ffffffffffffffff8082111561122457600080fd5b818701915087601f83011261123857600080fd5b81358181111561124757600080fd5b88602082850101111561125957600080fd5b95989497505060200194505050565b634e487b7160e01b600052604160045260246000fd5b6040805190810167ffffffffffffffff811182821017156112a1576112a1611268565b60405290565b60405160a0810167ffffffffffffffff811182821017156112a1576112a1611268565b604051601f8201601f1916810167ffffffffffffffff811182821017156112f3576112f3611268565b604052919050565b6000602080838503121561130e57600080fd5b823567ffffffffffffffff8082111561132657600080fd5b8185019150604080838803121561133c57600080fd5b61134461127e565b83358152848401358381111561135957600080fd5b80850194505087601f85011261136e57600080fd5b83358381111561138057611380611268565b61138e868260051b016112ca565b818152868101945060a091820286018701918a8311156113ad57600080fd5b958701955b828710156114255780878c0312156113ca5760008081fd5b6113d26112a7565b6113db886110e9565b815288880135898201526113f08689016111cd565b868201526060611401818a016110e9565b9082015260806114128982016110e9565b90820152865295860195948701946113b2565b5095820195909552979650505050505050565b60006020828403121561144a57600080fd5b611453826110e9565b9392505050565b602081016114688284611147565b92915050565b600060208083526060808401855160408085880152828251808552608094508489019150868401935060005b818110156114ee57845180516001600160a01b039081168552898201518a8601528582015163ffffffff1686860152888201518116898601529087015116868401529387019360a09092019160010161149a565b5050948801519461150188830187611147565b98975050505050505050565b634e487b7160e01b600052603260045260246000fd5b634e487b7160e01b600052601160045260246000fd5b60006001820161154b5761154b611523565b5060010190565b60006020828403121561156457600080fd5b8151801515811461145357600080fd5b8082018082111561146857611468611523565b608081526000855180608084015260005b818110156115b557602081890181015160a0868401015201611598565b50600060a08285018101919091526001600160a01b039690961660208401526040830194909452506060810191909152601f909101601f19160101919050565b808202811582820484141761146857611468611523565b60008261162957634e487b7160e01b600052601260045260246000fd5b50049056fea2646970667358221220ffe5e90e99755a23ca35776e97d166fd8429cf00569a0b13ac0900c3d6d6f83264736f6c63430008110033",
  "devdoc": {
    "kind": "dev",
    "methods": {},
    "version": 1
  },
  "userdoc": {
    "kind": "user",
    "methods": {},
    "version": 1
  },
  "storageLayout": {
    "storage": [
      {
        "astId": 5671,
        "contract": "contracts/ETFLock.sol:ETFLock",
        "label": "sideChainLock",
        "offset": 0,
        "slot": "0",
        "type": "t_address"
      },
      {
        "astId": 5675,
        "contract": "contracts/ETFLock.sol:ETFLock",
        "label": "requiredTokens",
        "offset": 0,
        "slot": "1",
        "type": "t_array(t_struct(TokenQuantity)5640_storage)dyn_storage"
      },
      {
        "astId": 5680,
        "contract": "contracts/ETFLock.sol:ETFLock",
        "label": "addressToToken",
        "offset": 0,
        "slot": "2",
        "type": "t_mapping(t_address,t_struct(TokenQuantity)5640_storage)"
      },
      {
        "astId": 5682,
        "contract": "contracts/ETFLock.sol:ETFLock",
        "label": "chainId",
        "offset": 0,
        "slot": "3",
        "type": "t_uint32"
      },
      {
        "astId": 5684,
        "contract": "contracts/ETFLock.sol:ETFLock",
        "label": "etfToken",
        "offset": 4,
        "slot": "3",
        "type": "t_address"
      },
      {
        "astId": 5686,
        "contract": "contracts/ETFLock.sol:ETFLock",
        "label": "etfTokenPerVault",
        "offset": 0,
        "slot": "4",
        "type": "t_uint256"
      },
      {
        "astId": 5691,
        "contract": "contracts/ETFLock.sol:ETFLock",
        "label": "contributorsByVault",
        "offset": 0,
        "slot": "5",
        "type": "t_mapping(t_uint256,t_array(t_address)dyn_storage)"
      },
      {
        "astId": 5697,
        "contract": "contracts/ETFLock.sol:ETFLock",
        "label": "accountContributionsPerVault",
        "offset": 0,
        "slot": "6",
        "type": "t_mapping(t_uint256,t_mapping(t_address,t_uint256))"
      },
      {
        "astId": 5714,
        "contract": "contracts/ETFLock.sol:ETFLock",
        "label": "vaults",
        "offset": 0,
        "slot": "7",
        "type": "t_mapping(t_uint256,t_struct(Vault)5648_storage)"
      }
    ],
    "types": {
      "t_address": {
        "encoding": "inplace",
        "label": "address",
        "numberOfBytes": "20"
      },
      "t_array(t_address)dyn_storage": {
        "base": "t_address",
        "encoding": "dynamic_array",
        "label": "address[]",
        "numberOfBytes": "32"
      },
      "t_array(t_struct(TokenQuantity)5640_storage)dyn_storage": {
        "base": "t_struct(TokenQuantity)5640_storage",
        "encoding": "dynamic_array",
        "label": "struct TokenQuantity[]",
        "numberOfBytes": "32"
      },
      "t_enum(VaultState)5653": {
        "encoding": "inplace",
        "label": "enum VaultState",
        "numberOfBytes": "1"
      },
      "t_mapping(t_address,t_struct(TokenQuantity)5640_storage)": {
        "encoding": "mapping",
        "key": "t_address",
        "label": "mapping(address => struct TokenQuantity)",
        "numberOfBytes": "32",
        "value": "t_struct(TokenQuantity)5640_storage"
      },
      "t_mapping(t_address,t_uint256)": {
        "encoding": "mapping",
        "key": "t_address",
        "label": "mapping(address => uint256)",
        "numberOfBytes": "32",
        "value": "t_uint256"
      },
      "t_mapping(t_uint256,t_array(t_address)dyn_storage)": {
        "encoding": "mapping",
        "key": "t_uint256",
        "label": "mapping(uint256 => address[])",
        "numberOfBytes": "32",
        "value": "t_array(t_address)dyn_storage"
      },
      "t_mapping(t_uint256,t_mapping(t_address,t_uint256))": {
        "encoding": "mapping",
        "key": "t_uint256",
        "label": "mapping(uint256 => mapping(address => uint256))",
        "numberOfBytes": "32",
        "value": "t_mapping(t_address,t_uint256)"
      },
      "t_mapping(t_uint256,t_struct(Vault)5648_storage)": {
        "encoding": "mapping",
        "key": "t_uint256",
        "label": "mapping(uint256 => struct Vault)",
        "numberOfBytes": "32",
        "value": "t_struct(Vault)5648_storage"
      },
      "t_struct(TokenQuantity)5640_storage": {
        "encoding": "inplace",
        "label": "struct TokenQuantity",
        "members": [
          {
            "astId": 5631,
            "contract": "contracts/ETFLock.sol:ETFLock",
            "label": "_address",
            "offset": 0,
            "slot": "0",
            "type": "t_address"
          },
          {
            "astId": 5633,
            "contract": "contracts/ETFLock.sol:ETFLock",
            "label": "_quantity",
            "offset": 0,
            "slot": "1",
            "type": "t_uint256"
          },
          {
            "astId": 5635,
            "contract": "contracts/ETFLock.sol:ETFLock",
            "label": "_chainId",
            "offset": 0,
            "slot": "2",
            "type": "t_uint32"
          },
          {
            "astId": 5637,
            "contract": "contracts/ETFLock.sol:ETFLock",
            "label": "_contributor",
            "offset": 4,
            "slot": "2",
            "type": "t_address"
          },
          {
            "astId": 5639,
            "contract": "contracts/ETFLock.sol:ETFLock",
            "label": "_aggregator",
            "offset": 0,
            "slot": "3",
            "type": "t_address"
          }
        ],
        "numberOfBytes": "128"
      },
      "t_struct(Vault)5648_storage": {
        "encoding": "inplace",
        "label": "struct Vault",
        "members": [
          {
            "astId": 5644,
            "contract": "contracts/ETFLock.sol:ETFLock",
            "label": "_tokens",
            "offset": 0,
            "slot": "0",
            "type": "t_array(t_struct(TokenQuantity)5640_storage)dyn_storage"
          },
          {
            "astId": 5647,
            "contract": "contracts/ETFLock.sol:ETFLock",
            "label": "state",
            "offset": 0,
            "slot": "1",
            "type": "t_enum(VaultState)5653"
          }
        ],
        "numberOfBytes": "64"
      },
      "t_uint256": {
        "encoding": "inplace",
        "label": "uint256",
        "numberOfBytes": "32"
      },
      "t_uint32": {
        "encoding": "inplace",
        "label": "uint32",
        "numberOfBytes": "4"
      }
    }
  }
}