{
  "address": "0xADb76B04aAE2dEc0043b3CFc26A51Cd9bD75164a",
  "abi": [
    {
      "inputs": [],
      "name": "CalldataMustHaveValidPayload",
      "type": "error"
    },
    {
      "inputs": [],
      "name": "CalldataOverOrUnderFlow",
      "type": "error"
    },
    {
      "inputs": [],
      "name": "CanNotPickMedianOfEmptyArray",
      "type": "error"
    },
    {
      "inputs": [],
      "name": "DataPackageTimestampMustNotBeZero",
      "type": "error"
    },
    {
      "inputs": [],
      "name": "DataPackageTimestampsMustBeEqual",
      "type": "error"
    },
    {
      "inputs": [],
      "name": "EachSignerMustProvideTheSameValue",
      "type": "error"
    },
    {
      "inputs": [],
      "name": "EmptyCalldataPointersArr",
      "type": "error"
    },
    {
      "inputs": [],
      "name": "GetDataServiceIdNotImplemented",
      "type": "error"
    },
    {
      "inputs": [],
      "name": "IncorrectUnsignedMetadataSize",
      "type": "error"
    },
    {
      "inputs": [
        {
          "internalType": "uint256",
          "name": "receivedSignersCount",
          "type": "uint256"
        },
        {
          "internalType": "uint256",
          "name": "requiredSignersCount",
          "type": "uint256"
        }
      ],
      "name": "InsufficientNumberOfUniqueSigners",
      "type": "error"
    },
    {
      "inputs": [],
      "name": "InvalidCalldataPointer",
      "type": "error"
    },
    {
      "inputs": [],
      "name": "RedstonePayloadMustHaveAtLeastOneDataPackage",
      "type": "error"
    },
    {
      "inputs": [
        {
          "internalType": "address",
          "name": "receivedSigner",
          "type": "address"
        }
      ],
      "name": "SignerNotAuthorised",
      "type": "error"
    },
    {
      "inputs": [
        {
          "internalType": "uint256",
          "name": "receivedTimestampSeconds",
          "type": "uint256"
        },
        {
          "internalType": "uint256",
          "name": "blockTimestamp",
          "type": "uint256"
        }
      ],
      "name": "TimestampFromTooLongFuture",
      "type": "error"
    },
    {
      "inputs": [
        {
          "internalType": "uint256",
          "name": "receivedTimestampSeconds",
          "type": "uint256"
        },
        {
          "internalType": "uint256",
          "name": "blockTimestamp",
          "type": "uint256"
        }
      ],
      "name": "TimestampIsTooOld",
      "type": "error"
    },
    {
      "inputs": [
        {
          "internalType": "uint256[]",
          "name": "values",
          "type": "uint256[]"
        }
      ],
      "name": "aggregateValues",
      "outputs": [
        {
          "internalType": "uint256",
          "name": "",
          "type": "uint256"
        }
      ],
      "stateMutability": "view",
      "type": "function"
    },
    {
      "inputs": [],
      "name": "extractTimestampsAndAssertAllAreEqual",
      "outputs": [
        {
          "internalType": "uint256",
          "name": "extractedTimestamp",
          "type": "uint256"
        }
      ],
      "stateMutability": "pure",
      "type": "function"
    },
    {
      "inputs": [
        {
          "internalType": "address",
          "name": "signerAddress",
          "type": "address"
        }
      ],
      "name": "getAuthorisedSignerIndex",
      "outputs": [
        {
          "internalType": "uint8",
          "name": "",
          "type": "uint8"
        }
      ],
      "stateMutability": "view",
      "type": "function"
    },
    {
      "inputs": [],
      "name": "getDataServiceId",
      "outputs": [
        {
          "internalType": "string",
          "name": "",
          "type": "string"
        }
      ],
      "stateMutability": "view",
      "type": "function"
    },
    {
      "inputs": [],
      "name": "getPrices",
      "outputs": [
        {
          "internalType": "uint256[]",
          "name": "",
          "type": "uint256[]"
        }
      ],
      "stateMutability": "view",
      "type": "function"
    },
    {
      "inputs": [],
      "name": "getUniqueSignersThreshold",
      "outputs": [
        {
          "internalType": "uint8",
          "name": "",
          "type": "uint8"
        }
      ],
      "stateMutability": "view",
      "type": "function"
    },
    {
      "inputs": [
        {
          "internalType": "uint256",
          "name": "receivedTimestampMilliseconds",
          "type": "uint256"
        }
      ],
      "name": "validateTimestamp",
      "outputs": [],
      "stateMutability": "view",
      "type": "function"
    }
  ],
  "transactionHash": "0xf2511bbb488b9e8d3639888d64f94f5d7a8a13b5cf2aeab5c5a8702f4d345007",
  "args": [],
  "numDeployments": 1,
  "solcInputHash": "c320c3f5ca62e5ba89894475b5332b25",
  "bytecode": "0x608060405234801561001057600080fd5b50611013806100206000396000f3fe608060405234801561001057600080fd5b506004361061007d5760003560e01c8063bd9a548b1161005b578063bd9a548b146100d5578063c274583a146100ea578063f50b2efe1461011f578063f90c49241461013457600080fd5b80633ce142f51461008257806355a547d5146100ac578063b24ebfcc146100c2575b600080fd5b610095610090366004610d81565b61013b565b60405160ff90911681526020015b60405180910390f35b6100b4610192565b6040519081526020016100a3565b6100b46100d0366004610dc0565b6102aa565b6100dd6102bb565b6040516100a39190610e72565b604080518082018252601381527272656473746f6e652d72617069642d64656d6f60681b602082015290516100a39190610eb6565b61013261012d366004610f04565b6103d6565b005b6001610095565b60006001600160a01b03821673f786a909d559f5dee2dc6706d8e5a81728a39ae90361016957506000919050565b6040516303b1166f60e61b81526001600160a01b03831660048201526024015b60405180910390fd5b60008061019d6103e2565b905060006101aa82610490565b61ffff169050806000036101d157604051632154bfcf60e21b815260040160405180910390fd5b6101dc600283610f33565b915060005b818110156102a45760006101f4846104ca565b9050600080610204606887610f33565b905060006102128236610f46565b9050803592508265ffffffffffff1660000361024157604051630336dc9d60e41b815260040160405180910390fd5b87600003610259578265ffffffffffff169750610281565b878365ffffffffffff16146102815760405163d9d1f46560e01b815260040160405180910390fd5b61028b8488610f33565b965050505050808061029c90610f59565b9150506101e1565b50505090565b60006102b582610506565b92915050565b60408051600680825260e08201909252606091600091906020820160c0803683370190505090506242544360e81b816000815181106102fc576102fc610f72565b6020026020010181815250506208aa8960eb1b8160018151811061032257610322610f72565b6020026020010181815250506221272160e91b8160028151811061034857610348610f72565b6020026020010181815250506120a960f11b8160038151811061036d5761036d610f72565b60200260200101818152505063082ac82b60e31b8160048151811061039457610394610f72565b6020026020010181815250506343454c4f60e01b816005815181106103bb576103bb610f72565b6020026020010181815250506103d081610511565b91505090565b6103df8161051c565b50565b60006602ed57011e0000601f1936013581161480610413576040516373bb264f60e11b815260040160405180910390fd5b6000366029111561043757604051632bcb7bc560e11b815260040160405180910390fd5b5060281936013560006009610452600362ffffff8516610f33565b61045c9190610f33565b90503661046a600283610f33565b11156104895760405163c30a7bd760e01b815260040160405180910390fd5b9392505050565b60008061049e602084610f33565b9050368111156104c157604051632bcb7bc560e11b815260040160405180910390fd5b36033592915050565b60008060006104d8846105a0565b9092509050604e6104ea826020610f33565b6104f49084610f88565b6104fe9190610f33565b949350505050565b60006102b5826105f7565b60606102b5826106c2565b600061052a6103e883610fb5565b90508042101561056c57603c6105404283610f46565b11156105685760405163b6b0916d60e01b815260048101829052426024820152604401610189565b5050565b60b46105788242610f46565b111561056857604051630321d0b560e01b815260048101829052426024820152604401610189565b6000808080806105b1604187610f33565b905060006105ca6105c3602084610f33565b3690610886565b8035945090506105db816003610886565b62ffffff9490941697933563ffffffff16965092945050505050565b6000815160000361061b57604051639e198af960e01b815260040160405180910390fd5b61062482610892565b6000600283516106349190610fb5565b9050600283516106449190610fc9565b6000036106a05760006106938461065c600185610f46565b8151811061066c5761066c610f72565b602002602001015185848151811061068657610686610f72565b60200260200101516108e0565b90506104fe600282610fb5565b8281815181106106b2576106b2610f72565b6020026020010151915050919050565b60606000825167ffffffffffffffff8111156106e0576106e0610daa565b604051908082528060200260200182016040528015610709578160200160208202803683370190505b5090506000835167ffffffffffffffff81111561072857610728610daa565b604051908082528060200260200182016040528015610751578160200160208202803683370190505b5090506000845167ffffffffffffffff81111561077057610770610daa565b6040519080825280602002602001820160405280156107a357816020015b606081526020019060019003908161078e5790505b50905060005b8551811015610800576040805160018082528183019092529060208083019080368337019050508282815181106107e2576107e2610f72565b602002602001018190525080806107f890610f59565b9150506107a9565b50600061080b6103e2565b9050600061081882610490565b61ffff169050610829600283610f33565b60405190925060005b8281101561086f5760006108498a898989896108ec565b90506108558186610f33565b94508260405250808061086790610f59565b915050610832565b5061087a8487610b85565b98975050505050505050565b60006104898284610f46565b8051602082016020820281019150805b828110156108da57815b818110156108d15781518151808210156108c7578084528183525b50506020016108ac565b506020016108a2565b50505050565b60006104898284610f33565b6000806000806108fb856105a0565b909250905060008080606081600d61091e610917602089610f33565b8990610c9e565b6109289190610f33565b9050600061093a6105c360688d610f33565b905060006109578361094d60418f610f33565b6105c39190610f33565b90506109638382610976565b935082602085012094508135965061099a565b60408051838152602081850181019092526000910183838237601f19019392505050565b6109ab8765ffffffffffff166103d6565b6109bf856109ba60418f610f33565b610caa565b95506109ca8661013b565b60ff1699505050505050505060008060005b84811015610b52576109ef888583610d22565b909350915060005b8c51811015610b3f578c8181518110610a1257610a12610f72565b60200260200101518403610b2d5760008b8281518110610a3457610a34610f72565b60200260200101519050610a4d81896001901b16151590565b158015610a765750600160ff168d8381518110610a6c57610a6c610f72565b6020026020010151105b15610b27578c8281518110610a8d57610a8d610f72565b602002602001018051809190610aa290610f59565b81525050838b8381518110610ab957610ab9610f72565b602002602001015160018f8581518110610ad557610ad5610f72565b6020026020010151610ae79190610f46565b81518110610af757610af7610f72565b60209081029190910101526001881b81178c8381518110610b1a57610b1a610f72565b6020026020010181815250505b50610b3f565b80610b3781610f59565b9150506109f7565b5080610b4a81610f59565b9150506109dc565b50505081602082610b639190610f33565b610b6d9190610f88565b610b7890604e610f33565b9998505050505050505050565b60606000835167ffffffffffffffff811115610ba357610ba3610daa565b604051908082528060200260200182016040528015610bcc578160200160208202803683370190505b509050600160005b8551811015610c945781858281518110610bf057610bf0610f72565b60200260200101511015610c3d57848181518110610c1057610c10610f72565b602002602001015182604051632b13aef560e01b8152600401610189929190918252602082015260400190565b6000610c61878381518110610c5457610c54610f72565b60200260200101516102aa565b905080848381518110610c7657610c76610f72565b60209081029190910101525080610c8c81610f59565b915050610bd4565b5090949350505050565b60006104898284610f88565b60408051600080825260208083018085528690523685900380850135831a948401859052803560608501819052910135608084018190529193909260019060a0016020604051602081039080840390855afa158015610d0d573d6000803e3d6000fd5b5050604051601f190151979650505050505050565b60008080610d31604e87610f33565b90506000610d5e610d57610d46602089610f33565b610d51886001610f33565b90610c9e565b83906108e0565b90506000610d6c3683610886565b80359960209091013598509650505050505050565b600060208284031215610d9357600080fd5b81356001600160a01b038116811461048957600080fd5b634e487b7160e01b600052604160045260246000fd5b60006020808385031215610dd357600080fd5b823567ffffffffffffffff80821115610deb57600080fd5b818501915085601f830112610dff57600080fd5b813581811115610e1157610e11610daa565b8060051b604051601f19603f83011681018181108582111715610e3657610e36610daa565b604052918252848201925083810185019188831115610e5457600080fd5b938501935b8285101561087a57843584529385019392850192610e59565b6020808252825182820181905260009190848201906040850190845b81811015610eaa57835183529284019291840191600101610e8e565b50909695505050505050565b600060208083528351808285015260005b81811015610ee357858101830151858201604001528201610ec7565b506000604082860101526040601f19601f8301168501019250505092915050565b600060208284031215610f1657600080fd5b5035919050565b634e487b7160e01b600052601160045260246000fd5b808201808211156102b5576102b5610f1d565b818103818111156102b5576102b5610f1d565b600060018201610f6b57610f6b610f1d565b5060010190565b634e487b7160e01b600052603260045260246000fd5b80820281158282048414176102b5576102b5610f1d565b634e487b7160e01b600052601260045260246000fd5b600082610fc457610fc4610f9f565b500490565b600082610fd857610fd8610f9f565b50069056fea2646970667358221220b592cd2d4fae52683fdb0c38fef417d1fb2143103920e312f03466458fd483e964736f6c63430008110033",
  "devdoc": {
    "kind": "dev",
    "methods": {
      "aggregateValues(uint256[])": {
        "details": "This function may be overridden by the child consumer contract. It should aggregate values from different signers to a single uint value. By default, it calculates the median value",
        "params": {
          "values": "An array of uint256 values from different signers"
        },
        "returns": {
          "_0": "Result of the aggregation in the form of a single number"
        }
      },
      "getDataServiceId()": {
        "details": "This function must be implemented by the child consumer contract. It should return dataServiceId which DataServiceWrapper will use if not provided explicitly . If not overridden, value will always have to be provided explicitly in DataServiceWrapper.",
        "returns": {
          "_0": "dataServiceId being consumed by contract"
        }
      },
      "getUniqueSignersThreshold()": {
        "details": "This function should be overridden by the child consumer contract.",
        "returns": {
          "_0": "The minimum required value of unique authorised signers"
        }
      },
      "validateTimestamp(uint256)": {
        "details": "This function may be overridden by the child consumer contract. It should validate the timestamp against the current time (block.timestamp) It should revert with a helpful message if the timestamp is not valid",
        "params": {
          "receivedTimestampMilliseconds": "Timestamp extracted from calldata"
        }
      }
    },
    "version": 1
  },
  "userdoc": {
    "kind": "user",
    "methods": {},
    "version": 1
  },
  "storageLayout": {
    "storage": [],
    "types": null
  }
}