{
  "address": "0x624F38939E86F6c91c1C47f33c6c1a726b0783F2",
  "abi": [
    {
      "inputs": [
        {
          "internalType": "address",
          "name": "_outbox",
          "type": "address"
        },
        {
          "internalType": "address",
          "name": "_securityModule",
          "type": "address"
        }
      ],
      "stateMutability": "nonpayable",
      "type": "constructor"
    },
    {
      "anonymous": false,
      "inputs": [
        {
          "indexed": false,
          "internalType": "uint32",
          "name": "destinationDomain",
          "type": "uint32"
        },
        {
          "indexed": false,
          "internalType": "bytes32",
          "name": "recipient",
          "type": "bytes32"
        },
        {
          "indexed": false,
          "internalType": "string",
          "name": "message",
          "type": "string"
        }
      ],
      "name": "SentMessage",
      "type": "event"
    },
    {
      "inputs": [],
      "name": "interchainSecurityModule",
      "outputs": [
        {
          "internalType": "contract IInterchainSecurityModule",
          "name": "",
          "type": "address"
        }
      ],
      "stateMutability": "view",
      "type": "function"
    },
    {
      "inputs": [
        {
          "internalType": "uint32",
          "name": "_destinationDomain",
          "type": "uint32"
        },
        {
          "internalType": "bytes32",
          "name": "_recipient",
          "type": "bytes32"
        },
        {
          "internalType": "string",
          "name": "_message",
          "type": "string"
        }
      ],
      "name": "sendString",
      "outputs": [],
      "stateMutability": "nonpayable",
      "type": "function"
    },
    {
      "inputs": [
        {
          "internalType": "uint32",
          "name": "_destinationDomain",
          "type": "uint32"
        },
        {
          "internalType": "address",
          "name": "_recipientAddress",
          "type": "address"
        },
        {
          "internalType": "string",
          "name": "_message",
          "type": "string"
        }
      ],
      "name": "sendStringToAddress",
      "outputs": [],
      "stateMutability": "nonpayable",
      "type": "function"
    },
    {
      "inputs": [],
      "name": "version",
      "outputs": [
        {
          "internalType": "string",
          "name": "",
          "type": "string"
        }
      ],
      "stateMutability": "view",
      "type": "function"
    }
  ],
  "transactionHash": "0x3c5c053ad6efd079394a397e311f134d1e60c2cc6cbf91446cb6ea5a44558bf5",
  "args": [
    "0xdaa45d8E8fE7be6d3a85054601D4F968Ed13cef1",
    "0xa7cfD02CD6a269CceE2f78835DaFe431262A8e3d"
  ],
  "numDeployments": 9,
  "solcInputHash": "720e1f0f6baf08032d3d1c088564e060",
  "bytecode": "0x60c06040526005608090815264312e302e3160d81b60a0526002906100249082610120565b5034801561003157600080fd5b50604051610836380380610836833981016040819052610050916101fb565b600080546001600160a01b039384166001600160a01b0319918216179091556001805492909316911617905561022e565b634e487b7160e01b600052604160045260246000fd5b600181811c908216806100ab57607f821691505b6020821081036100cb57634e487b7160e01b600052602260045260246000fd5b50919050565b601f82111561011b57600081815260208120601f850160051c810160208610156100f85750805b601f850160051c820191505b8181101561011757828155600101610104565b5050505b505050565b81516001600160401b0381111561013957610139610081565b61014d816101478454610097565b846100d1565b602080601f831160018114610182576000841561016a5750858301515b600019600386901b1c1916600185901b178555610117565b600085815260208120601f198616915b828110156101b157888601518255948401946001909101908401610192565b50858210156101cf5787850151600019600388901b60f8161c191681555b5050505050600190811b01905550565b80516001600160a01b03811681146101f657600080fd5b919050565b6000806040838503121561020e57600080fd5b610217836101df565b9150610225602084016101df565b90509250929050565b6105f98061023d6000396000f3fe608060405234801561001057600080fd5b506004361061004c5760003560e01c806354fd4d5014610051578063a9d2c6d41461006f578063aafa0a8714610084578063de523cf314610097575b600080fd5b6100596100b2565b60405161006691906103b6565b60405180910390f35b61008261007d366004610466565b610140565b005b6100826100923660046104d5565b61027d565b6001546040516001600160a01b039091168152602001610066565b600280546100bf90610517565b80601f01602080910402602001604051908101604052809291908181526020018280546100eb90610517565b80156101385780601f1061010d57610100808354040283529160200191610138565b820191906000526020600020905b81548152906001019060200180831161011b57829003601f168201915b505050505081565b6000805460405163138857a360e31b81526001600160a01b0386811693921690639c42bd189061017a90899086908990899060040161057a565b602060405180830381865afa158015610197573d6000803e3d6000fd5b505050506040513d601f19601f820116820180604052508101906101bb91906105aa565b60005460405163fa31de0160e01b81529192506001600160a01b03169063fa31de019083906101f4908a9087908a908a9060040161057a565b60206040518083038185885af1158015610212573d6000803e3d6000fd5b50505050506040513d601f19601f8201168201806040525081019061023791906105aa565b507f10875372a03b7e5c7d46deb548b112c09c576e378c8f2daa3370a5cbe58c41b68683868660405161026d949392919061057a565b60405180910390a1505050505050565b6000805460405163138857a360e31b81526001600160a01b0390911690639c42bd18906102b490889088908890889060040161057a565b602060405180830381865afa1580156102d1573d6000803e3d6000fd5b505050506040513d601f19601f820116820180604052508101906102f591906105aa565b60005460405163fa31de0160e01b81529192506001600160a01b03169063fa31de0190839061032e90899089908990899060040161057a565b60206040518083038185885af115801561034c573d6000803e3d6000fd5b50505050506040513d601f19601f8201168201806040525081019061037191906105aa565b507f10875372a03b7e5c7d46deb548b112c09c576e378c8f2daa3370a5cbe58c41b6858585856040516103a7949392919061057a565b60405180910390a15050505050565b600060208083528351808285015260005b818110156103e3578581018301518582016040015282016103c7565b506000604082860101526040601f19601f8301168501019250505092915050565b803563ffffffff8116811461041857600080fd5b919050565b60008083601f84011261042f57600080fd5b50813567ffffffffffffffff81111561044757600080fd5b60208301915083602082850101111561045f57600080fd5b9250929050565b6000806000806060858703121561047c57600080fd5b61048585610404565b935060208501356001600160a01b03811681146104a157600080fd5b9250604085013567ffffffffffffffff8111156104bd57600080fd5b6104c98782880161041d565b95989497509550505050565b600080600080606085870312156104eb57600080fd5b6104f485610404565b935060208501359250604085013567ffffffffffffffff8111156104bd57600080fd5b600181811c9082168061052b57607f821691505b60208210810361054b57634e487b7160e01b600052602260045260246000fd5b50919050565b81835281816020850137506000828201602090810191909152601f909101601f19169091010190565b63ffffffff851681528360208201526060604082015260006105a0606083018486610551565b9695505050505050565b6000602082840312156105bc57600080fd5b505191905056fea2646970667358221220275653240e1cdbd88c1e2d1b008e8358414e504022f20001b54a020bfd9eab8364736f6c63430008110033",
  "devdoc": {
    "kind": "dev",
    "methods": {},
    "version": 1
  },
  "userdoc": {
    "kind": "user",
    "methods": {},
    "version": 1
  },
  "storageLayout": {
    "storage": [
      {
        "astId": 357,
        "contract": "contracts/HyperlaneMessageSender.sol:HyperlaneMessageSender",
        "label": "outbox",
        "offset": 0,
        "slot": "0",
        "type": "t_contract(IMailbox)201"
      },
      {
        "astId": 360,
        "contract": "contracts/HyperlaneMessageSender.sol:HyperlaneMessageSender",
        "label": "securityModule",
        "offset": 0,
        "slot": "1",
        "type": "t_contract(IInterchainSecurityModule)27"
      },
      {
        "astId": 363,
        "contract": "contracts/HyperlaneMessageSender.sol:HyperlaneMessageSender",
        "label": "version",
        "offset": 0,
        "slot": "2",
        "type": "t_string_storage"
      }
    ],
    "types": {
      "t_contract(IInterchainSecurityModule)27": {
        "encoding": "inplace",
        "label": "contract IInterchainSecurityModule",
        "numberOfBytes": "20"
      },
      "t_contract(IMailbox)201": {
        "encoding": "inplace",
        "label": "contract IMailbox",
        "numberOfBytes": "20"
      },
      "t_string_storage": {
        "encoding": "bytes",
        "label": "string",
        "numberOfBytes": "32"
      }
    }
  }
}