{
  "address": "0xd53FC00EEE95Ad127E7cfD49b17B927314f9FC01",
  "abi": [
    {
      "inputs": [
        {
          "internalType": "address",
          "name": "_outbox",
          "type": "address"
        },
        {
          "internalType": "address",
          "name": "_securityModule",
          "type": "address"
        }
      ],
      "stateMutability": "nonpayable",
      "type": "constructor"
    },
    {
      "anonymous": false,
      "inputs": [
        {
          "indexed": false,
          "internalType": "uint32",
          "name": "destinationDomain",
          "type": "uint32"
        },
        {
          "indexed": false,
          "internalType": "bytes32",
          "name": "recipient",
          "type": "bytes32"
        },
        {
          "indexed": false,
          "internalType": "string",
          "name": "message",
          "type": "string"
        }
      ],
      "name": "SentMessage",
      "type": "event"
    },
    {
      "inputs": [],
      "name": "interchainSecurityModule",
      "outputs": [
        {
          "internalType": "contract IInterchainSecurityModule",
          "name": "",
          "type": "address"
        }
      ],
      "stateMutability": "view",
      "type": "function"
    },
    {
      "inputs": [
        {
          "internalType": "uint32",
          "name": "_destinationDomain",
          "type": "uint32"
        },
        {
          "internalType": "bytes32",
          "name": "_recipient",
          "type": "bytes32"
        },
        {
          "internalType": "string",
          "name": "_message",
          "type": "string"
        }
      ],
      "name": "sendString",
      "outputs": [],
      "stateMutability": "nonpayable",
      "type": "function"
    },
    {
      "inputs": [
        {
          "internalType": "uint32",
          "name": "_destinationDomain",
          "type": "uint32"
        },
        {
          "internalType": "address",
          "name": "_recipientAddress",
          "type": "address"
        },
        {
          "internalType": "string",
          "name": "_message",
          "type": "string"
        }
      ],
      "name": "sendStringToAddress",
      "outputs": [],
      "stateMutability": "nonpayable",
      "type": "function"
    }
  ],
  "transactionHash": "0xaedbf64311eb66d4c5d4d1b70c5c43602e2718e7a50b33f55776abf0f820a6cf",
  "args": [
    "0xe052fEBE52ACE3d4F80Eb3d8685Bac93a9504361",
    "0x14BD801cF0FA5d78C9C8579FBeaB1Cc420fA788C"
  ],
  "numDeployments": 7,
  "solcInputHash": "a986b234d76729b30f73f549a0edc753",
  "bytecode": "0x608060405234801561001057600080fd5b5060405161057c38038061057c83398101604081905261002f9161007c565b600080546001600160a01b039384166001600160a01b031991821617909155600180549290931691161790556100af565b80516001600160a01b038116811461007757600080fd5b919050565b6000806040838503121561008f57600080fd5b61009883610060565b91506100a660208401610060565b90509250929050565b6104be806100be6000396000f3fe608060405234801561001057600080fd5b50600436106100415760003560e01c8063a9d2c6d414610046578063aafa0a871461005b578063de523cf31461006e575b600080fd5b610059610054366004610365565b61008d565b005b6100596100693660046103d4565b6101ca565b600154604080516001600160a01b039092168252519081900360200190f35b6000805460405163138857a360e31b81526001600160a01b0386811693921690639c42bd18906100c790899086908990899060040161043f565b602060405180830381865afa1580156100e4573d6000803e3d6000fd5b505050506040513d601f19601f82011682018060405250810190610108919061046f565b60005460405163fa31de0160e01b81529192506001600160a01b03169063fa31de01908390610141908a9087908a908a9060040161043f565b60206040518083038185885af115801561015f573d6000803e3d6000fd5b50505050506040513d601f19601f82011682018060405250810190610184919061046f565b507f10875372a03b7e5c7d46deb548b112c09c576e378c8f2daa3370a5cbe58c41b6868386866040516101ba949392919061043f565b60405180910390a1505050505050565b6000805460405163138857a360e31b81526001600160a01b0390911690639c42bd189061020190889088908890889060040161043f565b602060405180830381865afa15801561021e573d6000803e3d6000fd5b505050506040513d601f19601f82011682018060405250810190610242919061046f565b60005460405163fa31de0160e01b81529192506001600160a01b03169063fa31de0190839061027b90899089908990899060040161043f565b60206040518083038185885af1158015610299573d6000803e3d6000fd5b50505050506040513d601f19601f820116820180604052508101906102be919061046f565b507f10875372a03b7e5c7d46deb548b112c09c576e378c8f2daa3370a5cbe58c41b6858585856040516102f4949392919061043f565b60405180910390a15050505050565b803563ffffffff8116811461031757600080fd5b919050565b60008083601f84011261032e57600080fd5b50813567ffffffffffffffff81111561034657600080fd5b60208301915083602082850101111561035e57600080fd5b9250929050565b6000806000806060858703121561037b57600080fd5b61038485610303565b935060208501356001600160a01b03811681146103a057600080fd5b9250604085013567ffffffffffffffff8111156103bc57600080fd5b6103c88782880161031c565b95989497509550505050565b600080600080606085870312156103ea57600080fd5b6103f385610303565b935060208501359250604085013567ffffffffffffffff8111156103bc57600080fd5b81835281816020850137506000828201602090810191909152601f909101601f19169091010190565b63ffffffff85168152836020820152606060408201526000610465606083018486610416565b9695505050505050565b60006020828403121561048157600080fd5b505191905056fea2646970667358221220d6c41e8b5b1db73b995316bd1b0dcb7cd017087ec60ad4635cdd8f69983dcebe64736f6c63430008110033",
  "devdoc": {
    "kind": "dev",
    "methods": {},
    "version": 1
  },
  "userdoc": {
    "kind": "user",
    "methods": {},
    "version": 1
  },
  "storageLayout": {
    "storage": [
      {
        "astId": 264,
        "contract": "contracts/HyperlaneMessageSender.sol:HyperlaneMessageSender",
        "label": "outbox",
        "offset": 0,
        "slot": "0",
        "type": "t_contract(IMailbox)201"
      },
      {
        "astId": 267,
        "contract": "contracts/HyperlaneMessageSender.sol:HyperlaneMessageSender",
        "label": "securityModule",
        "offset": 0,
        "slot": "1",
        "type": "t_contract(IInterchainSecurityModule)27"
      }
    ],
    "types": {
      "t_contract(IInterchainSecurityModule)27": {
        "encoding": "inplace",
        "label": "contract IInterchainSecurityModule",
        "numberOfBytes": "20"
      },
      "t_contract(IMailbox)201": {
        "encoding": "inplace",
        "label": "contract IMailbox",
        "numberOfBytes": "20"
      }
    }
  }
}