{
  "address": "0x204063A2AFf4c231c2945E297EB198a01f3b3669",
  "abi": [
    {
      "inputs": [],
      "name": "CalldataMustHaveValidPayload",
      "type": "error"
    },
    {
      "inputs": [],
      "name": "CalldataOverOrUnderFlow",
      "type": "error"
    },
    {
      "inputs": [],
      "name": "CanNotPickMedianOfEmptyArray",
      "type": "error"
    },
    {
      "inputs": [],
      "name": "DataPackageTimestampMustNotBeZero",
      "type": "error"
    },
    {
      "inputs": [],
      "name": "DataPackageTimestampsMustBeEqual",
      "type": "error"
    },
    {
      "inputs": [],
      "name": "EachSignerMustProvideTheSameValue",
      "type": "error"
    },
    {
      "inputs": [],
      "name": "EmptyCalldataPointersArr",
      "type": "error"
    },
    {
      "inputs": [],
      "name": "GetDataServiceIdNotImplemented",
      "type": "error"
    },
    {
      "inputs": [],
      "name": "IncorrectUnsignedMetadataSize",
      "type": "error"
    },
    {
      "inputs": [
        {
          "internalType": "uint256",
          "name": "receivedSignersCount",
          "type": "uint256"
        },
        {
          "internalType": "uint256",
          "name": "requiredSignersCount",
          "type": "uint256"
        }
      ],
      "name": "InsufficientNumberOfUniqueSigners",
      "type": "error"
    },
    {
      "inputs": [],
      "name": "InvalidCalldataPointer",
      "type": "error"
    },
    {
      "inputs": [],
      "name": "RedstonePayloadMustHaveAtLeastOneDataPackage",
      "type": "error"
    },
    {
      "inputs": [
        {
          "internalType": "address",
          "name": "receivedSigner",
          "type": "address"
        }
      ],
      "name": "SignerNotAuthorised",
      "type": "error"
    },
    {
      "inputs": [
        {
          "internalType": "uint256",
          "name": "receivedTimestampSeconds",
          "type": "uint256"
        },
        {
          "internalType": "uint256",
          "name": "blockTimestamp",
          "type": "uint256"
        }
      ],
      "name": "TimestampFromTooLongFuture",
      "type": "error"
    },
    {
      "inputs": [
        {
          "internalType": "uint256",
          "name": "receivedTimestampSeconds",
          "type": "uint256"
        },
        {
          "internalType": "uint256",
          "name": "blockTimestamp",
          "type": "uint256"
        }
      ],
      "name": "TimestampIsTooOld",
      "type": "error"
    },
    {
      "inputs": [
        {
          "internalType": "uint256[]",
          "name": "values",
          "type": "uint256[]"
        }
      ],
      "name": "aggregateValues",
      "outputs": [
        {
          "internalType": "uint256",
          "name": "",
          "type": "uint256"
        }
      ],
      "stateMutability": "view",
      "type": "function"
    },
    {
      "inputs": [],
      "name": "extractTimestampsAndAssertAllAreEqual",
      "outputs": [
        {
          "internalType": "uint256",
          "name": "extractedTimestamp",
          "type": "uint256"
        }
      ],
      "stateMutability": "pure",
      "type": "function"
    },
    {
      "inputs": [
        {
          "internalType": "address",
          "name": "signerAddress",
          "type": "address"
        }
      ],
      "name": "getAuthorisedSignerIndex",
      "outputs": [
        {
          "internalType": "uint8",
          "name": "",
          "type": "uint8"
        }
      ],
      "stateMutability": "view",
      "type": "function"
    },
    {
      "inputs": [],
      "name": "getDataServiceId",
      "outputs": [
        {
          "internalType": "string",
          "name": "",
          "type": "string"
        }
      ],
      "stateMutability": "view",
      "type": "function"
    },
    {
      "inputs": [],
      "name": "getLatestEthPrice",
      "outputs": [
        {
          "internalType": "uint256",
          "name": "",
          "type": "uint256"
        }
      ],
      "stateMutability": "view",
      "type": "function"
    },
    {
      "inputs": [],
      "name": "getUniqueSignersThreshold",
      "outputs": [
        {
          "internalType": "uint8",
          "name": "",
          "type": "uint8"
        }
      ],
      "stateMutability": "view",
      "type": "function"
    },
    {
      "inputs": [
        {
          "internalType": "uint256",
          "name": "receivedTimestampMilliseconds",
          "type": "uint256"
        }
      ],
      "name": "validateTimestamp",
      "outputs": [],
      "stateMutability": "view",
      "type": "function"
    },
    {
      "inputs": [],
      "name": "version",
      "outputs": [
        {
          "internalType": "string",
          "name": "",
          "type": "string"
        }
      ],
      "stateMutability": "view",
      "type": "function"
    }
  ],
  "transactionHash": "0x5cdfa5a5b27e7a05dbe52e9ca9ef0001d9b94c6e1adde8d1f555e27fd404d748",
  "args": [],
  "numDeployments": 2,
  "solcInputHash": "515935caa86774aca240f092a119fb63",
  "bytecode": "0x60c060405260056080908152640312e302e360dc1b60a052600090620000269082620000e0565b503480156200003457600080fd5b50620001ac565b634e487b7160e01b600052604160045260246000fd5b600181811c908216806200006657607f821691505b6020821081036200008757634e487b7160e01b600052602260045260246000fd5b50919050565b601f821115620000db57600081815260208120601f850160051c81016020861015620000b65750805b601f850160051c820191505b81811015620000d757828155600101620000c2565b5050505b505050565b81516001600160401b03811115620000fc57620000fc6200003b565b62000114816200010d845462000051565b846200008d565b602080601f8311600181146200014c5760008415620001335750858301515b600019600386901b1c1916600185901b178555620000d7565b600085815260208120601f198616915b828110156200017d578886015182559484019460019091019084016200015c565b50858210156200019c5787850151600019600388901b60f8161c191681555b5050505050600190811b01905550565b61100180620001bc6000396000f3fe608060405234801561001057600080fd5b50600436106100885760003560e01c8063b24ebfcc1161005b578063b24ebfcc146100ea578063c274583a146100fd578063f50b2efe1461012c578063f90c49241461014157600080fd5b806330c0b9ec1461008d5780633ce142f5146100a857806354fd4d50146100cd57806355a547d5146100e2575b600080fd5b610095610148565b6040519081526020015b60405180910390f35b6100bb6100b6366004610d7f565b610160565b60405160ff909116815260200161009f565b6100d56101b7565b60405161009f9190610da8565b610095610245565b6100956100f8366004610e0c565b61035d565b60408051808201909152601381527272656473746f6e652d72617069642d64656d6f60681b60208201526100d5565b61013f61013a366004610ebe565b61036e565b005b60016100bb565b60006208aa8960eb1b61015a8161037a565b91505090565b60006001600160a01b03821673f786a909d559f5dee2dc6706d8e5a81728a39ae90361018e57506000919050565b6040516303b1166f60e61b81526001600160a01b03831660048201526024015b60405180910390fd5b600080546101c490610ed7565b80601f01602080910402602001604051908101604052809291908181526020018280546101f090610ed7565b801561023d5780601f106102125761010080835404028352916020019161023d565b820191906000526020600020905b81548152906001019060200180831161022057829003601f168201915b505050505081565b6000806102506103ea565b9050600061025d82610498565b61ffff1690508060000361028457604051632154bfcf60e21b815260040160405180910390fd5b61028f600283610f21565b915060005b818110156103575760006102a7846104d2565b90506000806102b7606887610f21565b905060006102c58236610f34565b9050803592508265ffffffffffff166000036102f457604051630336dc9d60e41b815260040160405180910390fd5b8760000361030c578265ffffffffffff169750610334565b878365ffffffffffff16146103345760405163d9d1f46560e01b815260040160405180910390fd5b61033e8488610f21565b965050505050808061034f90610f47565b915050610294565b50505090565b60006103688261050e565b92915050565b61037781610519565b50565b6040805160018082528183019092526000918291906020808301908036833701905050905082816000815181106103b3576103b3610f60565b6020026020010181815250506103c88161059d565b6000815181106103da576103da610f60565b6020026020010151915050919050565b60006602ed57011e0000601f193601358116148061041b576040516373bb264f60e11b815260040160405180910390fd5b6000366029111561043f57604051632bcb7bc560e11b815260040160405180910390fd5b506028193601356000600961045a600362ffffff8516610f21565b6104649190610f21565b905036610472600283610f21565b11156104915760405163c30a7bd760e01b815260040160405180910390fd5b9392505050565b6000806104a6602084610f21565b9050368111156104c957604051632bcb7bc560e11b815260040160405180910390fd5b36033592915050565b60008060006104e0846105a8565b9092509050604e6104f2826020610f21565b6104fc9084610f76565b6105069190610f21565b949350505050565b6000610368826105ff565b60006105276103e883610fa3565b90508042101561056957603c61053d4283610f34565b11156105655760405163b6b0916d60e01b8152600481018290524260248201526044016101ae565b5050565b60b46105758242610f34565b111561056557604051630321d0b560e01b8152600481018290524260248201526044016101ae565b6060610368826106c0565b6000808080806105b9604187610f21565b905060006105d26105cb602084610f21565b3690610884565b8035945090506105e3816003610884565b62ffffff9490941697933563ffffffff16965092945050505050565b6000815160000361062357604051639e198af960e01b815260040160405180910390fd5b61062c82610890565b60006002835161063c9190610fa3565b90506002835161064c9190610fb7565b6000036106a857600061069b84610664600185610f34565b8151811061067457610674610f60565b602002602001015185848151811061068e5761068e610f60565b60200260200101516108de565b9050610506600282610fa3565b8281815181106103da576103da610f60565b50919050565b60606000825167ffffffffffffffff8111156106de576106de610df6565b604051908082528060200260200182016040528015610707578160200160208202803683370190505b5090506000835167ffffffffffffffff81111561072657610726610df6565b60405190808252806020026020018201604052801561074f578160200160208202803683370190505b5090506000845167ffffffffffffffff81111561076e5761076e610df6565b6040519080825280602002602001820160405280156107a157816020015b606081526020019060019003908161078c5790505b50905060005b85518110156107fe576040805160018082528183019092529060208083019080368337019050508282815181106107e0576107e0610f60565b602002602001018190525080806107f690610f47565b9150506107a7565b5060006108096103ea565b9050600061081682610498565b61ffff169050610827600283610f21565b60405190925060005b8281101561086d5760006108478a898989896108ea565b90506108538186610f21565b94508260405250808061086590610f47565b915050610830565b506108788487610b83565b98975050505050505050565b60006104918284610f34565b8051602082016020820281019150805b828110156108d857815b818110156108cf5781518151808210156108c5578084528183525b50506020016108aa565b506020016108a0565b50505050565b60006104918284610f21565b6000806000806108f9856105a8565b909250905060008080606081600d61091c610915602089610f21565b8990610c9c565b6109269190610f21565b905060006109386105cb60688d610f21565b905060006109558361094b60418f610f21565b6105cb9190610f21565b90506109618382610974565b9350826020850120945081359650610998565b60408051838152602081850181019092526000910183838237601f19019392505050565b6109a98765ffffffffffff1661036e565b6109bd856109b860418f610f21565b610ca8565b95506109c886610160565b60ff1699505050505050505060008060005b84811015610b50576109ed888583610d20565b909350915060005b8c51811015610b3d578c8181518110610a1057610a10610f60565b60200260200101518403610b2b5760008b8281518110610a3257610a32610f60565b60200260200101519050610a4b81896001901b16151590565b158015610a745750600160ff168d8381518110610a6a57610a6a610f60565b6020026020010151105b15610b25578c8281518110610a8b57610a8b610f60565b602002602001018051809190610aa090610f47565b81525050838b8381518110610ab757610ab7610f60565b602002602001015160018f8581518110610ad357610ad3610f60565b6020026020010151610ae59190610f34565b81518110610af557610af5610f60565b60209081029190910101526001881b81178c8381518110610b1857610b18610f60565b6020026020010181815250505b50610b3d565b80610b3581610f47565b9150506109f5565b5080610b4881610f47565b9150506109da565b50505081602082610b619190610f21565b610b6b9190610f76565b610b7690604e610f21565b9998505050505050505050565b60606000835167ffffffffffffffff811115610ba157610ba1610df6565b604051908082528060200260200182016040528015610bca578160200160208202803683370190505b509050600160005b8551811015610c925781858281518110610bee57610bee610f60565b60200260200101511015610c3b57848181518110610c0e57610c0e610f60565b602002602001015182604051632b13aef560e01b81526004016101ae929190918252602082015260400190565b6000610c5f878381518110610c5257610c52610f60565b602002602001015161035d565b905080848381518110610c7457610c74610f60565b60209081029190910101525080610c8a81610f47565b915050610bd2565b5090949350505050565b60006104918284610f76565b60408051600080825260208083018085528690523685900380850135831a948401859052803560608501819052910135608084018190529193909260019060a0016020604051602081039080840390855afa158015610d0b573d6000803e3d6000fd5b5050604051601f190151979650505050505050565b60008080610d2f604e87610f21565b90506000610d5c610d55610d44602089610f21565b610d4f886001610f21565b90610c9c565b83906108de565b90506000610d6a3683610884565b80359960209091013598509650505050505050565b600060208284031215610d9157600080fd5b81356001600160a01b038116811461049157600080fd5b600060208083528351808285015260005b81811015610dd557858101830151858201604001528201610db9565b506000604082860101526040601f19601f8301168501019250505092915050565b634e487b7160e01b600052604160045260246000fd5b60006020808385031215610e1f57600080fd5b823567ffffffffffffffff80821115610e3757600080fd5b818501915085601f830112610e4b57600080fd5b813581811115610e5d57610e5d610df6565b8060051b604051601f19603f83011681018181108582111715610e8257610e82610df6565b604052918252848201925083810185019188831115610ea057600080fd5b938501935b8285101561087857843584529385019392850192610ea5565b600060208284031215610ed057600080fd5b5035919050565b600181811c90821680610eeb57607f821691505b6020821081036106ba57634e487b7160e01b600052602260045260246000fd5b634e487b7160e01b600052601160045260246000fd5b8082018082111561036857610368610f0b565b8181038181111561036857610368610f0b565b600060018201610f5957610f59610f0b565b5060010190565b634e487b7160e01b600052603260045260246000fd5b808202811582820484141761036857610368610f0b565b634e487b7160e01b600052601260045260246000fd5b600082610fb257610fb2610f8d565b500490565b600082610fc657610fc6610f8d565b50069056fea26469706673582212204bde59842e510364abc2ae6ed73531008520b3af1fc8a51a59c8220a8bade1cc64736f6c63430008110033",
  "devdoc": {
    "kind": "dev",
    "methods": {
      "aggregateValues(uint256[])": {
        "details": "This function may be overridden by the child consumer contract. It should aggregate values from different signers to a single uint value. By default, it calculates the median value",
        "params": {
          "values": "An array of uint256 values from different signers"
        },
        "returns": {
          "_0": "Result of the aggregation in the form of a single number"
        }
      },
      "getDataServiceId()": {
        "details": "This function must be implemented by the child consumer contract. It should return dataServiceId which DataServiceWrapper will use if not provided explicitly . If not overridden, value will always have to be provided explicitly in DataServiceWrapper.",
        "returns": {
          "_0": "dataServiceId being consumed by contract"
        }
      },
      "getUniqueSignersThreshold()": {
        "details": "This function should be overridden by the child consumer contract.",
        "returns": {
          "_0": "The minimum required value of unique authorised signers"
        }
      },
      "validateTimestamp(uint256)": {
        "details": "This function may be overridden by the child consumer contract. It should validate the timestamp against the current time (block.timestamp) It should revert with a helpful message if the timestamp is not valid",
        "params": {
          "receivedTimestampMilliseconds": "Timestamp extracted from calldata"
        }
      }
    },
    "version": 1
  },
  "userdoc": {
    "kind": "user",
    "methods": {
      "getLatestEthPrice()": {
        "notice": "Returns the latest price of ETH"
      }
    },
    "version": 1
  },
  "storageLayout": {
    "storage": [
      {
        "astId": 1701,
        "contract": "contracts/Rapid.sol:RapidExample",
        "label": "version",
        "offset": 0,
        "slot": "0",
        "type": "t_string_storage"
      }
    ],
    "types": {
      "t_string_storage": {
        "encoding": "bytes",
        "label": "string",
        "numberOfBytes": "32"
      }
    }
  }
}