{
  "address": "0x84827596bFd9D4e9f723d448c751D78Fa506F386",
  "abi": [
    {
      "inputs": [
        {
          "internalType": "uint32",
          "name": "_mainChain",
          "type": "uint32"
        },
        {
          "internalType": "uint32",
          "name": "_chainId",
          "type": "uint32"
        },
        {
          "components": [
            {
              "internalType": "address",
              "name": "_address",
              "type": "address"
            },
            {
              "internalType": "uint256",
              "name": "_quantity",
              "type": "uint256"
            },
            {
              "internalType": "uint32",
              "name": "_chainId",
              "type": "uint32"
            },
            {
              "internalType": "address",
              "name": "_contributor",
              "type": "address"
            },
            {
              "internalType": "uint64",
              "name": "_tokenId",
              "type": "uint64"
            }
          ],
          "internalType": "struct TokenQuantity[]",
          "name": "_requiredTokens",
          "type": "tuple[]"
        },
        {
          "internalType": "address",
          "name": "_etfToken",
          "type": "address"
        },
        {
          "internalType": "uint256",
          "name": "_etfTokenPerVault",
          "type": "uint256"
        }
      ],
      "stateMutability": "nonpayable",
      "type": "constructor"
    },
    {
      "anonymous": false,
      "inputs": [
        {
          "indexed": false,
          "internalType": "uint256",
          "name": "_vaultId",
          "type": "uint256"
        },
        {
          "indexed": false,
          "internalType": "address",
          "name": "_address",
          "type": "address"
        },
        {
          "indexed": false,
          "internalType": "uint256",
          "name": "_quantity",
          "type": "uint256"
        },
        {
          "indexed": false,
          "internalType": "uint32",
          "name": "_chainId",
          "type": "uint32"
        },
        {
          "indexed": false,
          "internalType": "address",
          "name": "_contributor",
          "type": "address"
        }
      ],
      "name": "Deposit",
      "type": "event"
    },
    {
      "inputs": [
        {
          "internalType": "uint256",
          "name": "",
          "type": "uint256"
        },
        {
          "internalType": "address",
          "name": "",
          "type": "address"
        }
      ],
      "name": "accountContributionsPerVault",
      "outputs": [
        {
          "internalType": "uint256",
          "name": "",
          "type": "uint256"
        }
      ],
      "stateMutability": "view",
      "type": "function"
    },
    {
      "inputs": [
        {
          "internalType": "address",
          "name": "",
          "type": "address"
        }
      ],
      "name": "addressToToken",
      "outputs": [
        {
          "internalType": "address",
          "name": "_address",
          "type": "address"
        },
        {
          "internalType": "uint256",
          "name": "_quantity",
          "type": "uint256"
        },
        {
          "internalType": "uint32",
          "name": "_chainId",
          "type": "uint32"
        },
        {
          "internalType": "address",
          "name": "_contributor",
          "type": "address"
        },
        {
          "internalType": "uint64",
          "name": "_tokenId",
          "type": "uint64"
        }
      ],
      "stateMutability": "view",
      "type": "function"
    },
    {
      "inputs": [
        {
          "internalType": "uint256",
          "name": "_vaultId",
          "type": "uint256"
        }
      ],
      "name": "burn",
      "outputs": [],
      "stateMutability": "nonpayable",
      "type": "function"
    },
    {
      "inputs": [],
      "name": "chainId",
      "outputs": [
        {
          "internalType": "uint32",
          "name": "",
          "type": "uint32"
        }
      ],
      "stateMutability": "view",
      "type": "function"
    },
    {
      "inputs": [
        {
          "components": [
            {
              "internalType": "uint256",
              "name": "vaultId",
              "type": "uint256"
            },
            {
              "components": [
                {
                  "internalType": "address",
                  "name": "_address",
                  "type": "address"
                },
                {
                  "internalType": "uint256",
                  "name": "_quantity",
                  "type": "uint256"
                },
                {
                  "internalType": "uint32",
                  "name": "_chainId",
                  "type": "uint32"
                },
                {
                  "internalType": "address",
                  "name": "_contributor",
                  "type": "address"
                },
                {
                  "internalType": "uint64",
                  "name": "_tokenId",
                  "type": "uint64"
                }
              ],
              "internalType": "struct TokenQuantity[]",
              "name": "tokens",
              "type": "tuple[]"
            }
          ],
          "internalType": "struct DepositInfo",
          "name": "_depositInfo",
          "type": "tuple"
        }
      ],
      "name": "deposit",
      "outputs": [],
      "stateMutability": "payable",
      "type": "function"
    },
    {
      "inputs": [],
      "name": "etfToken",
      "outputs": [
        {
          "internalType": "address",
          "name": "",
          "type": "address"
        }
      ],
      "stateMutability": "view",
      "type": "function"
    },
    {
      "inputs": [],
      "name": "etfTokenPerVault",
      "outputs": [
        {
          "internalType": "uint256",
          "name": "",
          "type": "uint256"
        }
      ],
      "stateMutability": "view",
      "type": "function"
    },
    {
      "inputs": [
        {
          "components": [
            {
              "internalType": "address",
              "name": "_address",
              "type": "address"
            },
            {
              "internalType": "uint256",
              "name": "_quantity",
              "type": "uint256"
            },
            {
              "internalType": "uint32",
              "name": "_chainId",
              "type": "uint32"
            },
            {
              "internalType": "address",
              "name": "_contributor",
              "type": "address"
            },
            {
              "internalType": "uint64",
              "name": "_tokenId",
              "type": "uint64"
            }
          ],
          "internalType": "struct TokenQuantity",
          "name": "_tokenQuantity",
          "type": "tuple"
        }
      ],
      "name": "getIndexForDepositInfo",
      "outputs": [
        {
          "internalType": "uint256",
          "name": "",
          "type": "uint256"
        }
      ],
      "stateMutability": "view",
      "type": "function"
    },
    {
      "inputs": [],
      "name": "getRequiredTokens",
      "outputs": [
        {
          "components": [
            {
              "internalType": "address",
              "name": "_address",
              "type": "address"
            },
            {
              "internalType": "uint256",
              "name": "_quantity",
              "type": "uint256"
            },
            {
              "internalType": "uint32",
              "name": "_chainId",
              "type": "uint32"
            },
            {
              "internalType": "address",
              "name": "_contributor",
              "type": "address"
            },
            {
              "internalType": "uint64",
              "name": "_tokenId",
              "type": "uint64"
            }
          ],
          "internalType": "struct TokenQuantity[]",
          "name": "",
          "type": "tuple[]"
        }
      ],
      "stateMutability": "view",
      "type": "function"
    },
    {
      "inputs": [
        {
          "internalType": "uint256",
          "name": "_vaultId",
          "type": "uint256"
        }
      ],
      "name": "getVault",
      "outputs": [
        {
          "components": [
            {
              "components": [
                {
                  "internalType": "address",
                  "name": "_address",
                  "type": "address"
                },
                {
                  "internalType": "uint256",
                  "name": "_quantity",
                  "type": "uint256"
                },
                {
                  "internalType": "uint32",
                  "name": "_chainId",
                  "type": "uint32"
                },
                {
                  "internalType": "address",
                  "name": "_contributor",
                  "type": "address"
                },
                {
                  "internalType": "uint64",
                  "name": "_tokenId",
                  "type": "uint64"
                }
              ],
              "internalType": "struct TokenQuantity[]",
              "name": "_tokens",
              "type": "tuple[]"
            },
            {
              "internalType": "enum VaultState",
              "name": "state",
              "type": "uint8"
            }
          ],
          "internalType": "struct Vault",
          "name": "",
          "type": "tuple"
        }
      ],
      "stateMutability": "view",
      "type": "function"
    },
    {
      "inputs": [],
      "name": "getVaultStates",
      "outputs": [
        {
          "internalType": "enum VaultState[]",
          "name": "",
          "type": "uint8[]"
        }
      ],
      "stateMutability": "view",
      "type": "function"
    },
    {
      "inputs": [
        {
          "internalType": "uint32",
          "name": "_origin",
          "type": "uint32"
        },
        {
          "internalType": "bytes32",
          "name": "_sender",
          "type": "bytes32"
        },
        {
          "internalType": "bytes",
          "name": "_message",
          "type": "bytes"
        }
      ],
      "name": "handle",
      "outputs": [],
      "stateMutability": "payable",
      "type": "function"
    },
    {
      "inputs": [],
      "name": "isMainChain",
      "outputs": [
        {
          "internalType": "bool",
          "name": "",
          "type": "bool"
        }
      ],
      "stateMutability": "view",
      "type": "function"
    },
    {
      "inputs": [],
      "name": "mainChainId",
      "outputs": [
        {
          "internalType": "uint32",
          "name": "",
          "type": "uint32"
        }
      ],
      "stateMutability": "view",
      "type": "function"
    },
    {
      "inputs": [],
      "name": "mainChainLock",
      "outputs": [
        {
          "internalType": "address",
          "name": "",
          "type": "address"
        }
      ],
      "stateMutability": "view",
      "type": "function"
    },
    {
      "inputs": [
        {
          "internalType": "uint256",
          "name": "",
          "type": "uint256"
        }
      ],
      "name": "receivedMessages",
      "outputs": [
        {
          "internalType": "uint32",
          "name": "",
          "type": "uint32"
        }
      ],
      "stateMutability": "view",
      "type": "function"
    },
    {
      "inputs": [
        {
          "internalType": "uint256",
          "name": "",
          "type": "uint256"
        }
      ],
      "name": "requiredTokens",
      "outputs": [
        {
          "internalType": "address",
          "name": "_address",
          "type": "address"
        },
        {
          "internalType": "uint256",
          "name": "_quantity",
          "type": "uint256"
        },
        {
          "internalType": "uint32",
          "name": "_chainId",
          "type": "uint32"
        },
        {
          "internalType": "address",
          "name": "_contributor",
          "type": "address"
        },
        {
          "internalType": "uint64",
          "name": "_tokenId",
          "type": "uint64"
        }
      ],
      "stateMutability": "view",
      "type": "function"
    },
    {
      "inputs": [
        {
          "internalType": "address",
          "name": "_sideChainLock",
          "type": "address"
        },
        {
          "internalType": "uint32",
          "name": "_sideChainId",
          "type": "uint32"
        },
        {
          "internalType": "address",
          "name": "_outbox",
          "type": "address"
        },
        {
          "internalType": "address",
          "name": "_securityModule",
          "type": "address"
        },
        {
          "internalType": "address",
          "name": "_quasarAddress",
          "type": "address"
        }
      ],
      "name": "setMainChainParams",
      "outputs": [],
      "stateMutability": "nonpayable",
      "type": "function"
    },
    {
      "inputs": [
        {
          "internalType": "address",
          "name": "_mainChainLock",
          "type": "address"
        },
        {
          "internalType": "address",
          "name": "_outbox",
          "type": "address"
        },
        {
          "internalType": "address",
          "name": "_securityModule",
          "type": "address"
        }
      ],
      "name": "setSideChainParams",
      "outputs": [],
      "stateMutability": "nonpayable",
      "type": "function"
    },
    {
      "inputs": [
        {
          "internalType": "uint256",
          "name": "_vaultId",
          "type": "uint256"
        },
        {
          "internalType": "enum VaultState",
          "name": "_state",
          "type": "uint8"
        }
      ],
      "name": "setVaultState",
      "outputs": [],
      "stateMutability": "nonpayable",
      "type": "function"
    },
    {
      "inputs": [],
      "name": "sideChainId",
      "outputs": [
        {
          "internalType": "uint32",
          "name": "",
          "type": "uint32"
        }
      ],
      "stateMutability": "view",
      "type": "function"
    },
    {
      "inputs": [],
      "name": "sideChainLock",
      "outputs": [
        {
          "internalType": "address",
          "name": "",
          "type": "address"
        }
      ],
      "stateMutability": "view",
      "type": "function"
    },
    {
      "inputs": [
        {
          "internalType": "uint256",
          "name": "",
          "type": "uint256"
        }
      ],
      "name": "vaults",
      "outputs": [
        {
          "internalType": "enum VaultState",
          "name": "state",
          "type": "uint8"
        }
      ],
      "stateMutability": "view",
      "type": "function"
    }
  ],
  "transactionHash": "0x0ca701d8b9ed5396504422232718eef7f087bdc872a514862b14e287323a1b86",
  "args": [
    686669576,
    686669576,
    [
      {
        "_address": "0xd219DBfBC2dF0e483CAeB95dE5cfA5F516904566",
        "_quantity": "100000000000000000000",
        "_chainId": 686669576,
        "_contributor": "0x2a1F5eB3e84e58e6F1e565306298B9dE1273f203",
        "_tokenId": 1,
        "_aggregator": "0xa7fC563eFa7f2B737E41Bf975e6cF1D46f0E4Ed8"
      },
      {
        "_address": "0x84b3A350358cA790DA07e351F0ADFb3796666eEe",
        "_quantity": "200000000000000000000",
        "_chainId": 686669576,
        "_contributor": "0x2a1F5eB3e84e58e6F1e565306298B9dE1273f203",
        "_tokenId": 2,
        "_aggregator": "0xa7fC563eFa7f2B737E41Bf975e6cF1D46f0E4Ed8"
      },
      {
        "_address": "0xA0ac5c99C36128C1De7F88e4f0894D8859Bbc2B2",
        "_quantity": "100000000000000000000",
        "_chainId": 11155111,
        "_contributor": "0x2a1F5eB3e84e58e6F1e565306298B9dE1273f203",
        "_tokenId": 3
      }
    ],
    "0x73a7d1B252300b2e2e9a1119D1E490C6F9bf9c9B",
    "100000000000000000000"
  ],
  "numDeployments": 3,
  "solcInputHash": "3afbea516192c56c8e5c485fa5cc2c93",
  "bytecode": "0x60806040523480156200001157600080fd5b5060405162002826380380620028268339810160408190526200003491620002f4565b600380546001600160401b03191664010000000063ffffffff8881169190910263ffffffff191691909117908616179055600880546001600160a01b0319166001600160a01b038416179055600981905560005b835181101562000242576001848281518110620000a957620000a96200045d565b602090810291909101810151825460018181018555600094855293839020825160039092020180546001600160a01b039283166001600160a01b0319909116178155928201519383019390935560408101516002909201805460608301516080909301516001600160401b0316600160c01b026001600160c01b0393909516640100000000026001600160c01b031990911663ffffffff90941693909317929092171691909117905583518490829081106200016957620001696200045d565b6020026020010151600260008684815181106200018a576200018a6200045d565b602090810291909101810151516001600160a01b039081168352828201939093526040918201600020845181549085166001600160a01b0319909116178155908401516001820155908301516002909101805460608501516080909501516001600160401b0316600160c01b026001600160c01b0395909416640100000000026001600160c01b031990911663ffffffff90931692909217919091179290921617905580620002398162000473565b91505062000088565b5050505050506200049b565b805163ffffffff811681146200026357600080fd5b919050565b634e487b7160e01b600052604160045260246000fd5b60405160a081016001600160401b0381118282101715620002a357620002a362000268565b60405290565b604051601f8201601f191681016001600160401b0381118282101715620002d457620002d462000268565b604052919050565b80516001600160a01b03811681146200026357600080fd5b600080600080600060a086880312156200030d57600080fd5b62000318866200024e565b94506020620003298188016200024e565b604088810151919650906001600160401b03808211156200034957600080fd5b818a0191508a601f8301126200035e57600080fd5b81518181111562000373576200037362000268565b62000383858260051b01620002a9565b81815260a09091028301850190858101908d831115620003a257600080fd5b938601935b82851015620004325760a0858f031215620003c25760008081fd5b620003cc6200027e565b620003d786620002dc565b81528786015188820152620003ee8787016200024e565b87820152606062000401818801620002dc565b9082015260808681015186811681146200041b5760008081fd5b90820152825260a0949094019390860190620003a7565b809950505050505050506200044a60608701620002dc565b9150608086015190509295509295909350565b634e487b7160e01b600052603260045260246000fd5b6000600182016200049457634e487b7160e01b600052601160045260246000fd5b5060010190565b61237b80620004ab6000396000f3fe6080604052600436106101405760003560e01c80638c64ea4a116100b6578063a0d6803c1161006f578063a0d6803c14610471578063b834f6fb14610484578063b98ee2b6146104b6578063cca3ce2b146104d6578063d030366c146104f8578063eb6a9aa01461051857600080fd5b80638c64ea4a146103835780639403b634146103c3578063956a45a6146103f05780639a8a0592146104105780639a9176c21461042d5780639c58a5a41461045157600080fd5b8063309bfe4a11610108578063309bfe4a1461022157806342966c68146102435780634d8739ee1461026357806356d5d4751461028357806369abaac9146102965780636b8cf65e1461034b57600080fd5b8063014372eb146101455780630badce41146101905780630f45ad43146101b257806318a9b4ad146101eb578063250cab391461020b575b600080fd5b34801561015157600080fd5b5061017d610160366004611c9b565b600b60209081526000928352604080842090915290825290205481565b6040519081526020015b60405180910390f35b34801561019c57600080fd5b506101b06101ab366004611cc7565b610538565b005b3480156101be57600080fd5b506003546101d690600160201b900463ffffffff1681565b60405163ffffffff9091168152602001610187565b3480156101f757600080fd5b5061017d610206366004611e16565b610571565b34801561021757600080fd5b5061017d60095481565b34801561022d57600080fd5b506102366105e0565b6040516101879190611e71565b34801561024f57600080fd5b506101b061025e366004611ebc565b610688565b34801561026f57600080fd5b506101b061027e366004611ed5565b610a90565b6101b0610291366004611f3a565b610b94565b3480156102a257600080fd5b506103016102b1366004611fc1565b60026020819052600091825260409091208054600182015491909201546001600160a01b039283169263ffffffff821691600160201b810490911690600160c01b900467ffffffffffffffff1685565b604080516001600160a01b039687168152602081019590955263ffffffff9093169284019290925292909216606082015267ffffffffffffffff909116608082015260a001610187565b34801561035757600080fd5b5060055461036b906001600160a01b031681565b6040516001600160a01b039091168152602001610187565b34801561038f57600080fd5b506103b661039e366004611ebc565b600c6020526000908152604090206001015460ff1681565b6040516101879190611fdc565b3480156103cf57600080fd5b506103e36103de366004611ebc565b610d22565b6040516101879190612073565b3480156103fc57600080fd5b5061030161040b366004611ebc565b610e2d565b34801561041c57600080fd5b506003546101d69063ffffffff1681565b34801561043957600080fd5b506000546101d690600160a01b900463ffffffff1681565b34801561045d57600080fd5b5060005461036b906001600160a01b031681565b6101b061047f3660046120ab565b610e8c565b34801561049057600080fd5b50600354600160201b810463ffffffff9081169116146040519015158152602001610187565b3480156104c257600080fd5b506101b06104d1366004612193565b610ea3565b3480156104e257600080fd5b506104eb610f5e565b60405161018791906121d6565b34801561050457600080fd5b506101d6610513366004611ebc565b61100d565b34801561052457600080fd5b5060085461036b906001600160a01b031681565b6000828152600c6020526040902060019081018054839260ff199091169083600381111561056857610568611e39565b02179055505050565b6000805b6001548110156105d75782600001516001600160a01b0316600182815481106105a0576105a06121e9565b60009182526020909120600390910201546001600160a01b0316036105c55792915050565b806105cf81612215565b915050610575565b50600092915050565b60408051605a808252610b6082019092526060916000919060208201610b408036833701905050905060005b8151811015610682576000818152600c6020526040902060010154825160ff90911690839083908110610641576106416121e9565b6020026020010190600381111561065a5761065a611e39565b9081600381111561066d5761066d611e39565b9052508061067a81612215565b91505061060c565b50919050565b60026000828152600c602052604090206001015460ff1660038111156106b0576106b0611e39565b146106f85760405162461bcd60e51b815260206004820152601360248201527215985d5b1d081a5cc81b9bdd081b5a5b9d1959606a1b60448201526064015b60405180910390fd5b600354600160201b810463ffffffff9081169116146107595760405162461bcd60e51b815260206004820152601860248201527f4f6e6c79206d61696e20636861696e2063616e206275726e000000000000000060448201526064016106ef565b600854600954604051632770a7eb60e21b815233600482015260248101919091526001600160a01b0390911690639dc29fac90604401600060405180830381600087803b1580156107a957600080fd5b505af11580156107bd573d6000803e3d6000fd5b5050505060005b6000828152600c6020526040902054811015610922576003546000838152600c60205260409020805463ffffffff9092169183908110610806576108066121e9565b600091825260209091206002600390920201015463ffffffff1603610910576000828152600c60205260409020805482908110610845576108456121e9565b60009182526020808320600390920290910154848352600c909152604090912080546001600160a01b039092169163a9059cbb9133918590811061088b5761088b6121e9565b60009182526020909120600160039092020101546040516001600160e01b031960e085901b1681526001600160a01b03909216600483015260248201526044016020604051808303816000875af11580156108ea573d6000803e3d6000fd5b505050506040513d601f19601f8201168201806040525081019061090e919061222e565b505b8061091a81612215565b9150506107c4565b506000818152600c60209081526040808320600101805460ff1916600317905582546006548251808501879052835180820390950185528084019384905263138857a360e31b9093526001600160a01b038083169594911692639c42bd189261099f92600160a01b90910463ffffffff1691879190604401612250565b602060405180830381865afa1580156109bc573d6000803e3d6000fd5b505050506040513d601f19601f820116820180604052508101906109e091906122b3565b60065460005460408051602081018890529394506001600160a01b039092169263fa31de01928592600160a01b900463ffffffff16918791015b6040516020818303038152906040526040518563ffffffff1660e01b8152600401610a4793929190612250565b60206040518083038185885af1158015610a65573d6000803e3d6000fd5b50505050506040513d601f19601f82011682018060405250810190610a8a91906122b3565b50505050565b600354600160201b810463ffffffff908116911614610b0b5760405162461bcd60e51b815260206004820152603160248201527f5369646520436861696e206c6f636b20616464726573732063616e206f6e6c796044820152701031329039b2ba1036b0b4b731b430b4b760791b60648201526084016106ef565b600680546001600160a01b039485166001600160a01b03199182161790915560008054600780549587169584169590951790945595841663ffffffff909516600160a01b02166001600160c01b031990921691909117929092179092556003805491909216680100000000000000000268010000000000000000600160e01b0319909116179055565b600354600160201b810463ffffffff9081169116148015610bc857506000546001600160a01b0316836001600160a01b0316145b610c295760405162461bcd60e51b815260206004820152602c60248201527f53656e64657220746f206d61696e436861696e206973206e6f7420746865207360448201526b696465436861696e4c6f636b60a01b60648201526084016106ef565b600354600160201b810463ffffffff908116911614158015610c5e57506005546001600160a01b0316836001600160a01b0316145b610cbf5760405162461bcd60e51b815260206004820152602c60248201527f53656e64657220746f2073696465436861696e206973206e6f7420746865206d60448201526b61696e436861696e4c6f636b60a01b60648201526084016106ef565b60035463ffffffff600160201b82048116911603610d02576000610ce5828401846120ab565b600354909150610cfc90829063ffffffff16611047565b50610a8a565b6000610d1082840184611ebc565b9050610d1b81610688565b5050505050565b6040805180820190915260608152600060208201526000828152600c60209081526040808320815181546060948102820185018452928101838152909491938593919285929185015b82821015610ded5760008481526020908190206040805160a0810182526003860290920180546001600160a01b0390811684526001808301548587015260029092015463ffffffff811693850193909352600160201b8304166060840152600160c01b90910467ffffffffffffffff1660808301529083529092019101610d6b565b50505090825250600182015460209091019060ff166003811115610e1357610e13611e39565b6003811115610e2457610e24611e39565b90525092915050565b60018181548110610e3d57600080fd5b60009182526020909120600390910201805460018201546002909201546001600160a01b03918216935063ffffffff811691600160201b82041690600160c01b900467ffffffffffffffff1685565b600354610ea090829063ffffffff16611047565b50565b60035463ffffffff600160201b82048116911603610f1f5760405162461bcd60e51b815260206004820152603360248201527f4d61696e20636861696e206c6f636b20616464726573732063616e6e6f742062604482015272329039b2ba1037b71036b0b4b71031b430b4b760691b60648201526084016106ef565b600580546001600160a01b039485166001600160a01b031991821617909155600680549385169382169390931790925560078054919093169116179055565b60606001805480602002602001604051908101604052809291908181526020016000905b828210156110045760008481526020908190206040805160a0810182526003860290920180546001600160a01b0390811684526001808301548587015260029092015463ffffffff811693850193909352600160201b8304166060840152600160c01b90910467ffffffffffffffff1660808301529083529092019101610f82565b50505050905090565b6004818154811061101d57600080fd5b9060005260206000209060089182820401919006600402915054906101000a900463ffffffff1681565b8151602083015160016000838152600c602052604090206001015460ff16600381111561107657611076611e39565b14806110a557506000828152600c602052604081206001015460ff1660038111156110a3576110a3611e39565b145b6110f15760405162461bcd60e51b815260206004820152601a60248201527f5661756c74206973206e6f74206f70656e206f7220656d70747900000000000060448201526064016106ef565b60035463ffffffff84811691161461115f5760405162461bcd60e51b815260206004820152602b60248201527f436861696e496420646f6573206e6f74206d617463682074686520636f6e747260448201526a1858dd0818da185a5b925960aa1b60648201526084016106ef565b6000828152600c602052604081206001015460ff16600381111561118557611185611e39565b0361132e5760005b60015481101561130e57600c60008481526020019081526020016000206000016040518060a00160405280600184815481106111cb576111cb6121e9565b600091825260208083206003909202909101546001600160a01b031683528201526001805460409092019185908110611206576112066121e9565b600091825260208083206002600390930201919091015463ffffffff1683528201526001805460409092019185908110611242576112426121e9565b60009182526020808320600392830201600290810154600160c01b9081900467ffffffffffffffff908116909652875460018082018a559886529483902087519590940290930180546001600160a01b0319166001600160a01b039586161781559186015196820196909655604085015195018054606086015160809096015163ffffffff9097166001600160c01b031990911617600160201b9590931694909402919091176001600160c01b031693909116029190911790558061130681612215565b91505061118d565b506000828152600c602052604090206001908101805460ff191690911790555b60005b81518110156118e7578363ffffffff16828281518110611353576113536121e9565b60200260200101516040015163ffffffff16146113d85760405162461bcd60e51b815260206004820152603860248201527f546f6b656e20636861696e496420646f6573206e6f74206d617463682074686560448201527f20636861696e4964206f662074686520636f6e7472616374000000000000000060648201526084016106ef565b600260008383815181106113ee576113ee6121e9565b6020026020010151600001516001600160a01b03166001600160a01b0316815260200190815260200160002060010154600c60008581526020019081526020016000206000018281548110611445576114456121e9565b906000526020600020906003020160010154838381518110611469576114696121e9565b60200260200101516020015161147f91906122cc565b11156114e05760405162461bcd60e51b815260206004820152602a60248201527f546f6b656e207175616e746974792065786365656473207468652072657175696044820152691c995908185b5bdd5b9d60b21b60648201526084016106ef565b60006115048383815181106114f7576114f76121e9565b6020026020010151610571565b90508463ffffffff1683838151811061151f5761151f6121e9565b60200260200101516040015163ffffffff160361161b57828281518110611548576115486121e9565b6020026020010151600001516001600160a01b03166323b872dd848481518110611574576115746121e9565b60200260200101516060015130868681518110611593576115936121e9565b60209081029190910181015101516040516001600160e01b031960e086901b1681526001600160a01b03938416600482015292909116602483015260448201526064016020604051808303816000875af11580156115f5573d6000803e3d6000fd5b505050506040513d601f19601f82011682018060405250810190611619919061222e565b505b82828151811061162d5761162d6121e9565b602002602001015160200151600c60008681526020019081526020016000206000018281548110611660576116606121e9565b9060005260206000209060030201600101600082825461168091906122cc565b925050819055507f80590f9d7015c327349ea64242fc29353801fcad956721a0e45f725338db06f4848484815181106116bb576116bb6121e9565b6020026020010151600001518585815181106116d9576116d96121e9565b6020026020010151602001518686815181106116f7576116f76121e9565b602002602001015160400151878781518110611715576117156121e9565b60200260200101516060015160405161175f9594939291909485526001600160a01b039384166020860152604085019290925263ffffffff16606084015216608082015260a00190565b60405180910390a160035463ffffffff600160201b820481169116036118d457600b600085815260200190815260200160002060008484815181106117a6576117a66121e9565b6020026020010151606001516001600160a01b03166001600160a01b031681526020019081526020016000205460000361183c576000848152600a6020526040902083518490849081106117fc576117fc6121e9565b6020908102919091018101516060015182546001810184556000938452919092200180546001600160a01b0319166001600160a01b039092169190911790555b60006001905080848481518110611855576118556121e9565b60200260200101516020015161186b91906122df565b600b60008781526020019081526020016000206000868681518110611892576118926121e9565b6020026020010151606001516001600160a01b03166001600160a01b0316815260200190815260200160002060008282546118cd91906122cc565b9091555050505b50806118df81612215565b915050611331565b5060005b6001548110156119725760018181548110611908576119086121e9565b906000526020600020906003020160010154600c60008581526020019081526020016000206000018281548110611941576119416121e9565b9060005260206000209060030201600101541015611960575050505050565b8061196a81612215565b9150506118eb565b506000828152600c60205260409020600101805460ff1916600217905560035463ffffffff808216600160201b90920416036119b6576119b1826119bf565b610a8a565b610a8a84611b90565b6000805b6000838152600a6020526040902054811015611a49576000838152600b60209081526040808320600a9092528220805491929184908110611a0657611a066121e9565b60009182526020808320909101546001600160a01b03168352820192909252604001902054611a3590836122cc565b915080611a4181612215565b9150506119c3565b5060005b6000838152600a6020526040902054811015611b8b576009546000848152600b60209081526040808320600a9092528220805492938693909291859187908110611a9957611a996121e9565b60009182526020808320909101546001600160a01b03168352820192909252604001902054611ac891906122df565b611ad291906122f6565b6008546000868152600a6020526040902080549293506001600160a01b03909116916340c10f19919085908110611b0b57611b0b6121e9565b60009182526020909120015460405160e083901b6001600160e01b03191681526001600160a01b03909116600482015260248101849052604401600060405180830381600087803b158015611b5f57600080fd5b505af1158015611b73573d6000803e3d6000fd5b50505050508080611b8390612215565b915050611a4d565b505050565b6005546006546003546040516001600160a01b03938416936000931691639c42bd1891600160201b90910463ffffffff16908590611bd2908890602001612318565b6040516020818303038152906040526040518463ffffffff1660e01b8152600401611bff93929190612250565b602060405180830381865afa158015611c1c573d6000803e3d6000fd5b505050506040513d601f19601f82011682018060405250810190611c4091906122b3565b6006546003546040519293506001600160a01b039091169163fa31de01918491600160201b90910463ffffffff16908690610a1a908990602001612318565b80356001600160a01b0381168114611c9657600080fd5b919050565b60008060408385031215611cae57600080fd5b82359150611cbe60208401611c7f565b90509250929050565b60008060408385031215611cda57600080fd5b82359150602083013560048110611cf057600080fd5b809150509250929050565b634e487b7160e01b600052604160045260246000fd5b6040805190810167ffffffffffffffff81118282101715611d3457611d34611cfb565b60405290565b604051601f8201601f1916810167ffffffffffffffff81118282101715611d6357611d63611cfb565b604052919050565b803563ffffffff81168114611c9657600080fd5b600060a08284031215611d9157600080fd5b60405160a0810167ffffffffffffffff8282108183111715611db557611db5611cfb565b81604052829350611dc585611c7f565b835260208501356020840152611ddd60408601611d6b565b6040840152611dee60608601611c7f565b6060840152608085013591508082168214611e0857600080fd5b506080919091015292915050565b600060a08284031215611e2857600080fd5b611e328383611d7f565b9392505050565b634e487b7160e01b600052602160045260246000fd5b60048110611e6d57634e487b7160e01b600052602160045260246000fd5b9052565b6020808252825182820181905260009190848201906040850190845b81811015611eb057611ea0838551611e4f565b9284019291840191600101611e8d565b50909695505050505050565b600060208284031215611ece57600080fd5b5035919050565b600080600080600060a08688031215611eed57600080fd5b611ef686611c7f565b9450611f0460208701611d6b565b9350611f1260408701611c7f565b9250611f2060608701611c7f565b9150611f2e60808701611c7f565b90509295509295909350565b60008060008060608587031215611f5057600080fd5b611f5985611d6b565b935060208501359250604085013567ffffffffffffffff80821115611f7d57600080fd5b818701915087601f830112611f9157600080fd5b813581811115611fa057600080fd5b886020828501011115611fb257600080fd5b95989497505060200194505050565b600060208284031215611fd357600080fd5b611e3282611c7f565b60208101611fea8284611e4f565b92915050565b600081518084526020808501945080840160005b8381101561206857815180516001600160a01b03908116895284820151858a015260408083015163ffffffff16908a01526060808301519091169089015260809081015167ffffffffffffffff169088015260a09096019590820190600101612004565b509495945050505050565b60208152600082516040602084015261208f6060840182611ff0565b905060208401516120a36040850182611e4f565b509392505050565b600060208083850312156120be57600080fd5b823567ffffffffffffffff808211156120d657600080fd5b90840190604082870312156120ea57600080fd5b6120f2611d11565b82358152838301358281111561210757600080fd5b80840193505086601f84011261211c57600080fd5b82358281111561212e5761212e611cfb565b61213c858260051b01611d3a565b818152858101935060a091820285018601918983111561215b57600080fd5b948601945b82861015612181576121728a87611d7f565b85529485019493860193612160565b50948201949094529695505050505050565b6000806000606084860312156121a857600080fd5b6121b184611c7f565b92506121bf60208501611c7f565b91506121cd60408501611c7f565b90509250925092565b602081526000611e326020830184611ff0565b634e487b7160e01b600052603260045260246000fd5b634e487b7160e01b600052601160045260246000fd5b600060018201612227576122276121ff565b5060010190565b60006020828403121561224057600080fd5b81518015158114611e3257600080fd5b63ffffffff8416815260006020848184015260606040840152835180606085015260005b8181101561229057858101830151858201608001528201612274565b506000608082860101526080601f19601f83011685010192505050949350505050565b6000602082840312156122c557600080fd5b5051919050565b80820180821115611fea57611fea6121ff565b8082028115828204841417611fea57611fea6121ff565b60008261231357634e487b7160e01b600052601260045260246000fd5b500490565b60208152815160208201526000602083015160408084015261233d6060840182611ff0565b94935050505056fea26469706673582212200491d1ac448b9e29bbc129b40c10745f5421eeace0118237050eeee87f91497e64736f6c63430008110033",
  "devdoc": {
    "kind": "dev",
    "methods": {},
    "version": 1
  },
  "userdoc": {
    "kind": "user",
    "methods": {},
    "version": 1
  },
  "storageLayout": {
    "storage": [
      {
        "astId": 1306,
        "contract": "contracts/ETFLock.sol:ETFLock",
        "label": "sideChainLock",
        "offset": 0,
        "slot": "0",
        "type": "t_address"
      },
      {
        "astId": 1308,
        "contract": "contracts/ETFLock.sol:ETFLock",
        "label": "sideChainId",
        "offset": 20,
        "slot": "0",
        "type": "t_uint32"
      },
      {
        "astId": 1312,
        "contract": "contracts/ETFLock.sol:ETFLock",
        "label": "requiredTokens",
        "offset": 0,
        "slot": "1",
        "type": "t_array(t_struct(TokenQuantity)1275_storage)dyn_storage"
      },
      {
        "astId": 1317,
        "contract": "contracts/ETFLock.sol:ETFLock",
        "label": "addressToToken",
        "offset": 0,
        "slot": "2",
        "type": "t_mapping(t_address,t_struct(TokenQuantity)1275_storage)"
      },
      {
        "astId": 1319,
        "contract": "contracts/ETFLock.sol:ETFLock",
        "label": "chainId",
        "offset": 0,
        "slot": "3",
        "type": "t_uint32"
      },
      {
        "astId": 1321,
        "contract": "contracts/ETFLock.sol:ETFLock",
        "label": "mainChainId",
        "offset": 4,
        "slot": "3",
        "type": "t_uint32"
      },
      {
        "astId": 1323,
        "contract": "contracts/ETFLock.sol:ETFLock",
        "label": "quasarAddress",
        "offset": 8,
        "slot": "3",
        "type": "t_address"
      },
      {
        "astId": 1326,
        "contract": "contracts/ETFLock.sol:ETFLock",
        "label": "receivedMessages",
        "offset": 0,
        "slot": "4",
        "type": "t_array(t_uint32)dyn_storage"
      },
      {
        "astId": 1328,
        "contract": "contracts/ETFLock.sol:ETFLock",
        "label": "mainChainLock",
        "offset": 0,
        "slot": "5",
        "type": "t_address"
      },
      {
        "astId": 1331,
        "contract": "contracts/ETFLock.sol:ETFLock",
        "label": "outbox",
        "offset": 0,
        "slot": "6",
        "type": "t_contract(IMailbox)247"
      },
      {
        "astId": 1334,
        "contract": "contracts/ETFLock.sol:ETFLock",
        "label": "securityModule",
        "offset": 0,
        "slot": "7",
        "type": "t_contract(IInterchainSecurityModule)73"
      },
      {
        "astId": 1336,
        "contract": "contracts/ETFLock.sol:ETFLock",
        "label": "etfToken",
        "offset": 0,
        "slot": "8",
        "type": "t_address"
      },
      {
        "astId": 1338,
        "contract": "contracts/ETFLock.sol:ETFLock",
        "label": "etfTokenPerVault",
        "offset": 0,
        "slot": "9",
        "type": "t_uint256"
      },
      {
        "astId": 1343,
        "contract": "contracts/ETFLock.sol:ETFLock",
        "label": "contributorsByVault",
        "offset": 0,
        "slot": "10",
        "type": "t_mapping(t_uint256,t_array(t_address)dyn_storage)"
      },
      {
        "astId": 1349,
        "contract": "contracts/ETFLock.sol:ETFLock",
        "label": "accountContributionsPerVault",
        "offset": 0,
        "slot": "11",
        "type": "t_mapping(t_uint256,t_mapping(t_address,t_uint256))"
      },
      {
        "astId": 1366,
        "contract": "contracts/ETFLock.sol:ETFLock",
        "label": "vaults",
        "offset": 0,
        "slot": "12",
        "type": "t_mapping(t_uint256,t_struct(Vault)1283_storage)"
      }
    ],
    "types": {
      "t_address": {
        "encoding": "inplace",
        "label": "address",
        "numberOfBytes": "20"
      },
      "t_array(t_address)dyn_storage": {
        "base": "t_address",
        "encoding": "dynamic_array",
        "label": "address[]",
        "numberOfBytes": "32"
      },
      "t_array(t_struct(TokenQuantity)1275_storage)dyn_storage": {
        "base": "t_struct(TokenQuantity)1275_storage",
        "encoding": "dynamic_array",
        "label": "struct TokenQuantity[]",
        "numberOfBytes": "32"
      },
      "t_array(t_uint32)dyn_storage": {
        "base": "t_uint32",
        "encoding": "dynamic_array",
        "label": "uint32[]",
        "numberOfBytes": "32"
      },
      "t_contract(IInterchainSecurityModule)73": {
        "encoding": "inplace",
        "label": "contract IInterchainSecurityModule",
        "numberOfBytes": "20"
      },
      "t_contract(IMailbox)247": {
        "encoding": "inplace",
        "label": "contract IMailbox",
        "numberOfBytes": "20"
      },
      "t_enum(VaultState)1288": {
        "encoding": "inplace",
        "label": "enum VaultState",
        "numberOfBytes": "1"
      },
      "t_mapping(t_address,t_struct(TokenQuantity)1275_storage)": {
        "encoding": "mapping",
        "key": "t_address",
        "label": "mapping(address => struct TokenQuantity)",
        "numberOfBytes": "32",
        "value": "t_struct(TokenQuantity)1275_storage"
      },
      "t_mapping(t_address,t_uint256)": {
        "encoding": "mapping",
        "key": "t_address",
        "label": "mapping(address => uint256)",
        "numberOfBytes": "32",
        "value": "t_uint256"
      },
      "t_mapping(t_uint256,t_array(t_address)dyn_storage)": {
        "encoding": "mapping",
        "key": "t_uint256",
        "label": "mapping(uint256 => address[])",
        "numberOfBytes": "32",
        "value": "t_array(t_address)dyn_storage"
      },
      "t_mapping(t_uint256,t_mapping(t_address,t_uint256))": {
        "encoding": "mapping",
        "key": "t_uint256",
        "label": "mapping(uint256 => mapping(address => uint256))",
        "numberOfBytes": "32",
        "value": "t_mapping(t_address,t_uint256)"
      },
      "t_mapping(t_uint256,t_struct(Vault)1283_storage)": {
        "encoding": "mapping",
        "key": "t_uint256",
        "label": "mapping(uint256 => struct Vault)",
        "numberOfBytes": "32",
        "value": "t_struct(Vault)1283_storage"
      },
      "t_struct(TokenQuantity)1275_storage": {
        "encoding": "inplace",
        "label": "struct TokenQuantity",
        "members": [
          {
            "astId": 1266,
            "contract": "contracts/ETFLock.sol:ETFLock",
            "label": "_address",
            "offset": 0,
            "slot": "0",
            "type": "t_address"
          },
          {
            "astId": 1268,
            "contract": "contracts/ETFLock.sol:ETFLock",
            "label": "_quantity",
            "offset": 0,
            "slot": "1",
            "type": "t_uint256"
          },
          {
            "astId": 1270,
            "contract": "contracts/ETFLock.sol:ETFLock",
            "label": "_chainId",
            "offset": 0,
            "slot": "2",
            "type": "t_uint32"
          },
          {
            "astId": 1272,
            "contract": "contracts/ETFLock.sol:ETFLock",
            "label": "_contributor",
            "offset": 4,
            "slot": "2",
            "type": "t_address"
          },
          {
            "astId": 1274,
            "contract": "contracts/ETFLock.sol:ETFLock",
            "label": "_tokenId",
            "offset": 24,
            "slot": "2",
            "type": "t_uint64"
          }
        ],
        "numberOfBytes": "96"
      },
      "t_struct(Vault)1283_storage": {
        "encoding": "inplace",
        "label": "struct Vault",
        "members": [
          {
            "astId": 1279,
            "contract": "contracts/ETFLock.sol:ETFLock",
            "label": "_tokens",
            "offset": 0,
            "slot": "0",
            "type": "t_array(t_struct(TokenQuantity)1275_storage)dyn_storage"
          },
          {
            "astId": 1282,
            "contract": "contracts/ETFLock.sol:ETFLock",
            "label": "state",
            "offset": 0,
            "slot": "1",
            "type": "t_enum(VaultState)1288"
          }
        ],
        "numberOfBytes": "64"
      },
      "t_uint256": {
        "encoding": "inplace",
        "label": "uint256",
        "numberOfBytes": "32"
      },
      "t_uint32": {
        "encoding": "inplace",
        "label": "uint32",
        "numberOfBytes": "4"
      },
      "t_uint64": {
        "encoding": "inplace",
        "label": "uint64",
        "numberOfBytes": "8"
      }
    }
  }
}