{
  "address": "0xd915162CB460D7ca5aDf6f36E429494BD8017717",
  "abi": [
    {
      "inputs": [
        {
          "internalType": "uint32",
          "name": "_mainChain",
          "type": "uint32"
        },
        {
          "internalType": "uint32",
          "name": "_chainId",
          "type": "uint32"
        },
        {
          "components": [
            {
              "internalType": "address",
              "name": "_address",
              "type": "address"
            },
            {
              "internalType": "uint256",
              "name": "_quantity",
              "type": "uint256"
            },
            {
              "internalType": "uint32",
              "name": "_chainId",
              "type": "uint32"
            },
            {
              "internalType": "address",
              "name": "_contributor",
              "type": "address"
            },
            {
              "internalType": "uint64",
              "name": "_tokenId",
              "type": "uint64"
            }
          ],
          "internalType": "struct TokenQuantity[]",
          "name": "_requiredTokens",
          "type": "tuple[]"
        },
        {
          "internalType": "address",
          "name": "_etfToken",
          "type": "address"
        },
        {
          "internalType": "uint256",
          "name": "_etfTokenPerVault",
          "type": "uint256"
        }
      ],
      "stateMutability": "nonpayable",
      "type": "constructor"
    },
    {
      "anonymous": false,
      "inputs": [
        {
          "indexed": false,
          "internalType": "uint256",
          "name": "_vaultId",
          "type": "uint256"
        },
        {
          "indexed": false,
          "internalType": "address",
          "name": "_address",
          "type": "address"
        },
        {
          "indexed": false,
          "internalType": "uint256",
          "name": "_quantity",
          "type": "uint256"
        },
        {
          "indexed": false,
          "internalType": "uint32",
          "name": "_chainId",
          "type": "uint32"
        },
        {
          "indexed": false,
          "internalType": "address",
          "name": "_contributor",
          "type": "address"
        }
      ],
      "name": "Deposit",
      "type": "event"
    },
    {
      "inputs": [
        {
          "internalType": "uint256",
          "name": "",
          "type": "uint256"
        },
        {
          "internalType": "address",
          "name": "",
          "type": "address"
        }
      ],
      "name": "accountContributionsPerVault",
      "outputs": [
        {
          "internalType": "uint256",
          "name": "",
          "type": "uint256"
        }
      ],
      "stateMutability": "view",
      "type": "function"
    },
    {
      "inputs": [
        {
          "internalType": "address",
          "name": "",
          "type": "address"
        }
      ],
      "name": "addressToToken",
      "outputs": [
        {
          "internalType": "address",
          "name": "_address",
          "type": "address"
        },
        {
          "internalType": "uint256",
          "name": "_quantity",
          "type": "uint256"
        },
        {
          "internalType": "uint32",
          "name": "_chainId",
          "type": "uint32"
        },
        {
          "internalType": "address",
          "name": "_contributor",
          "type": "address"
        },
        {
          "internalType": "uint64",
          "name": "_tokenId",
          "type": "uint64"
        }
      ],
      "stateMutability": "view",
      "type": "function"
    },
    {
      "inputs": [
        {
          "internalType": "uint256",
          "name": "_vaultId",
          "type": "uint256"
        }
      ],
      "name": "burn",
      "outputs": [],
      "stateMutability": "nonpayable",
      "type": "function"
    },
    {
      "inputs": [],
      "name": "chainId",
      "outputs": [
        {
          "internalType": "uint32",
          "name": "",
          "type": "uint32"
        }
      ],
      "stateMutability": "view",
      "type": "function"
    },
    {
      "inputs": [
        {
          "components": [
            {
              "internalType": "uint256",
              "name": "vaultId",
              "type": "uint256"
            },
            {
              "components": [
                {
                  "internalType": "address",
                  "name": "_address",
                  "type": "address"
                },
                {
                  "internalType": "uint256",
                  "name": "_quantity",
                  "type": "uint256"
                },
                {
                  "internalType": "uint32",
                  "name": "_chainId",
                  "type": "uint32"
                },
                {
                  "internalType": "address",
                  "name": "_contributor",
                  "type": "address"
                },
                {
                  "internalType": "uint64",
                  "name": "_tokenId",
                  "type": "uint64"
                }
              ],
              "internalType": "struct TokenQuantity[]",
              "name": "tokens",
              "type": "tuple[]"
            }
          ],
          "internalType": "struct DepositInfo",
          "name": "_depositInfo",
          "type": "tuple"
        }
      ],
      "name": "deposit",
      "outputs": [],
      "stateMutability": "payable",
      "type": "function"
    },
    {
      "inputs": [],
      "name": "etfToken",
      "outputs": [
        {
          "internalType": "address",
          "name": "",
          "type": "address"
        }
      ],
      "stateMutability": "view",
      "type": "function"
    },
    {
      "inputs": [],
      "name": "etfTokenPerVault",
      "outputs": [
        {
          "internalType": "uint256",
          "name": "",
          "type": "uint256"
        }
      ],
      "stateMutability": "view",
      "type": "function"
    },
    {
      "inputs": [
        {
          "components": [
            {
              "internalType": "address",
              "name": "_address",
              "type": "address"
            },
            {
              "internalType": "uint256",
              "name": "_quantity",
              "type": "uint256"
            },
            {
              "internalType": "uint32",
              "name": "_chainId",
              "type": "uint32"
            },
            {
              "internalType": "address",
              "name": "_contributor",
              "type": "address"
            },
            {
              "internalType": "uint64",
              "name": "_tokenId",
              "type": "uint64"
            }
          ],
          "internalType": "struct TokenQuantity",
          "name": "_tokenQuantity",
          "type": "tuple"
        }
      ],
      "name": "getIndexForDepositInfo",
      "outputs": [
        {
          "internalType": "uint256",
          "name": "",
          "type": "uint256"
        }
      ],
      "stateMutability": "view",
      "type": "function"
    },
    {
      "inputs": [],
      "name": "getRequiredTokens",
      "outputs": [
        {
          "components": [
            {
              "internalType": "address",
              "name": "_address",
              "type": "address"
            },
            {
              "internalType": "uint256",
              "name": "_quantity",
              "type": "uint256"
            },
            {
              "internalType": "uint32",
              "name": "_chainId",
              "type": "uint32"
            },
            {
              "internalType": "address",
              "name": "_contributor",
              "type": "address"
            },
            {
              "internalType": "uint64",
              "name": "_tokenId",
              "type": "uint64"
            }
          ],
          "internalType": "struct TokenQuantity[]",
          "name": "",
          "type": "tuple[]"
        }
      ],
      "stateMutability": "view",
      "type": "function"
    },
    {
      "inputs": [
        {
          "internalType": "uint256",
          "name": "_vaultId",
          "type": "uint256"
        }
      ],
      "name": "getVault",
      "outputs": [
        {
          "components": [
            {
              "components": [
                {
                  "internalType": "address",
                  "name": "_address",
                  "type": "address"
                },
                {
                  "internalType": "uint256",
                  "name": "_quantity",
                  "type": "uint256"
                },
                {
                  "internalType": "uint32",
                  "name": "_chainId",
                  "type": "uint32"
                },
                {
                  "internalType": "address",
                  "name": "_contributor",
                  "type": "address"
                },
                {
                  "internalType": "uint64",
                  "name": "_tokenId",
                  "type": "uint64"
                }
              ],
              "internalType": "struct TokenQuantity[]",
              "name": "_tokens",
              "type": "tuple[]"
            },
            {
              "internalType": "enum VaultState",
              "name": "state",
              "type": "uint8"
            }
          ],
          "internalType": "struct Vault",
          "name": "",
          "type": "tuple"
        }
      ],
      "stateMutability": "view",
      "type": "function"
    },
    {
      "inputs": [],
      "name": "getVaultStates",
      "outputs": [
        {
          "internalType": "enum VaultState[]",
          "name": "",
          "type": "uint8[]"
        }
      ],
      "stateMutability": "view",
      "type": "function"
    },
    {
      "inputs": [
        {
          "internalType": "uint32",
          "name": "_origin",
          "type": "uint32"
        },
        {
          "internalType": "bytes32",
          "name": "_sender",
          "type": "bytes32"
        },
        {
          "internalType": "bytes",
          "name": "_message",
          "type": "bytes"
        }
      ],
      "name": "handle",
      "outputs": [],
      "stateMutability": "payable",
      "type": "function"
    },
    {
      "inputs": [],
      "name": "isMainChain",
      "outputs": [
        {
          "internalType": "bool",
          "name": "",
          "type": "bool"
        }
      ],
      "stateMutability": "view",
      "type": "function"
    },
    {
      "inputs": [],
      "name": "mainChainId",
      "outputs": [
        {
          "internalType": "uint32",
          "name": "",
          "type": "uint32"
        }
      ],
      "stateMutability": "view",
      "type": "function"
    },
    {
      "inputs": [],
      "name": "mainChainLock",
      "outputs": [
        {
          "internalType": "address",
          "name": "",
          "type": "address"
        }
      ],
      "stateMutability": "view",
      "type": "function"
    },
    {
      "inputs": [
        {
          "internalType": "uint256",
          "name": "",
          "type": "uint256"
        }
      ],
      "name": "receivedMessages",
      "outputs": [
        {
          "internalType": "uint32",
          "name": "",
          "type": "uint32"
        }
      ],
      "stateMutability": "view",
      "type": "function"
    },
    {
      "inputs": [
        {
          "internalType": "uint256",
          "name": "",
          "type": "uint256"
        }
      ],
      "name": "requiredTokens",
      "outputs": [
        {
          "internalType": "address",
          "name": "_address",
          "type": "address"
        },
        {
          "internalType": "uint256",
          "name": "_quantity",
          "type": "uint256"
        },
        {
          "internalType": "uint32",
          "name": "_chainId",
          "type": "uint32"
        },
        {
          "internalType": "address",
          "name": "_contributor",
          "type": "address"
        },
        {
          "internalType": "uint64",
          "name": "_tokenId",
          "type": "uint64"
        }
      ],
      "stateMutability": "view",
      "type": "function"
    },
    {
      "inputs": [
        {
          "internalType": "address",
          "name": "_sideChainLock",
          "type": "address"
        },
        {
          "internalType": "uint32",
          "name": "_sideChainId",
          "type": "uint32"
        },
        {
          "internalType": "address",
          "name": "_outbox",
          "type": "address"
        },
        {
          "internalType": "address",
          "name": "_securityModule",
          "type": "address"
        },
        {
          "internalType": "address",
          "name": "_quasarAddress",
          "type": "address"
        }
      ],
      "name": "setMainChainParams",
      "outputs": [],
      "stateMutability": "nonpayable",
      "type": "function"
    },
    {
      "inputs": [
        {
          "internalType": "address",
          "name": "_mainChainLock",
          "type": "address"
        },
        {
          "internalType": "address",
          "name": "_outbox",
          "type": "address"
        },
        {
          "internalType": "address",
          "name": "_securityModule",
          "type": "address"
        }
      ],
      "name": "setSideChainParams",
      "outputs": [],
      "stateMutability": "nonpayable",
      "type": "function"
    },
    {
      "inputs": [
        {
          "internalType": "uint256",
          "name": "_vaultId",
          "type": "uint256"
        },
        {
          "internalType": "enum VaultState",
          "name": "_state",
          "type": "uint8"
        }
      ],
      "name": "setVaultState",
      "outputs": [],
      "stateMutability": "nonpayable",
      "type": "function"
    },
    {
      "inputs": [],
      "name": "sideChainId",
      "outputs": [
        {
          "internalType": "uint32",
          "name": "",
          "type": "uint32"
        }
      ],
      "stateMutability": "view",
      "type": "function"
    },
    {
      "inputs": [],
      "name": "sideChainLock",
      "outputs": [
        {
          "internalType": "address",
          "name": "",
          "type": "address"
        }
      ],
      "stateMutability": "view",
      "type": "function"
    },
    {
      "inputs": [
        {
          "internalType": "uint256",
          "name": "",
          "type": "uint256"
        }
      ],
      "name": "vaults",
      "outputs": [
        {
          "internalType": "enum VaultState",
          "name": "state",
          "type": "uint8"
        }
      ],
      "stateMutability": "view",
      "type": "function"
    }
  ],
  "transactionHash": "0xc9369ff22a98e442ae9343dd60e6c1db905ee9e096ef818dd2402f990424f210",
  "args": [
    "686669576",
    "686669576",
    [
      {
        "_address": "0x5C3A31C0a3b838B8a4650841c657df5818a58cE7",
        "_quantity": "100000000000000000000",
        "_chainId": "686669576",
        "_contributor": "0x2a1F5eB3e84e58e6F1e565306298B9dE1273f203",
        "_tokenId": 1
      },
      {
        "_address": "0xa4DB452Fcb848895B170A461D9DAaeb437EEF691",
        "_quantity": "200000000000000000000",
        "_chainId": "686669576",
        "_contributor": "0x2a1F5eB3e84e58e6F1e565306298B9dE1273f203",
        "_tokenId": 2
      },
      {
        "_address": "0xA0ac5c99C36128C1De7F88e4f0894D8859Bbc2B2",
        "_quantity": "100000000000000000000",
        "_chainId": "11155111",
        "_contributor": "0x2a1F5eB3e84e58e6F1e565306298B9dE1273f203",
        "_tokenId": 3
      }
    ],
    "0x36cF7b6Dc2e6a9130946dCE48cB57cAf0c713786",
    "100000000000000000000"
  ],
  "numDeployments": 6,
  "solcInputHash": "e6ff124819af0fb04be294d0e5427da3",
  "bytecode": "0x60806040523480156200001157600080fd5b50604051620024e7380380620024e78339810160408190526200003491620002f4565b600380546001600160401b03191664010000000063ffffffff8881169190910263ffffffff191691909117908616179055600880546001600160a01b0319166001600160a01b038416179055600981905560005b835181101562000242576001848281518110620000a957620000a96200045d565b602090810291909101810151825460018181018555600094855293839020825160039092020180546001600160a01b039283166001600160a01b0319909116178155928201519383019390935560408101516002909201805460608301516080909301516001600160401b0316600160c01b026001600160c01b0393909516640100000000026001600160c01b031990911663ffffffff90941693909317929092171691909117905583518490829081106200016957620001696200045d565b6020026020010151600260008684815181106200018a576200018a6200045d565b602090810291909101810151516001600160a01b039081168352828201939093526040918201600020845181549085166001600160a01b0319909116178155908401516001820155908301516002909101805460608501516080909501516001600160401b0316600160c01b026001600160c01b0395909416640100000000026001600160c01b031990911663ffffffff90931692909217919091179290921617905580620002398162000473565b91505062000088565b5050505050506200049b565b805163ffffffff811681146200026357600080fd5b919050565b634e487b7160e01b600052604160045260246000fd5b60405160a081016001600160401b0381118282101715620002a357620002a362000268565b60405290565b604051601f8201601f191681016001600160401b0381118282101715620002d457620002d462000268565b604052919050565b80516001600160a01b03811681146200026357600080fd5b600080600080600060a086880312156200030d57600080fd5b62000318866200024e565b94506020620003298188016200024e565b604088810151919650906001600160401b03808211156200034957600080fd5b818a0191508a601f8301126200035e57600080fd5b81518181111562000373576200037362000268565b62000383858260051b01620002a9565b81815260a09091028301850190858101908d831115620003a257600080fd5b938601935b82851015620004325760a0858f031215620003c25760008081fd5b620003cc6200027e565b620003d786620002dc565b81528786015188820152620003ee8787016200024e565b87820152606062000401818801620002dc565b9082015260808681015186811681146200041b5760008081fd5b90820152825260a0949094019390860190620003a7565b809950505050505050506200044a60608701620002dc565b9150608086015190509295509295909350565b634e487b7160e01b600052603260045260246000fd5b6000600182016200049457634e487b7160e01b600052601160045260246000fd5b5060010190565b61203c80620004ab6000396000f3fe6080604052600436106101405760003560e01c80638c64ea4a116100b6578063a0d6803c1161006f578063a0d6803c14610471578063b834f6fb14610484578063b98ee2b6146104b6578063cca3ce2b146104d6578063d030366c146104f8578063eb6a9aa01461051857600080fd5b80638c64ea4a146103835780639403b634146103c3578063956a45a6146103f05780639a8a0592146104105780639a9176c21461042d5780639c58a5a41461045157600080fd5b8063309bfe4a11610108578063309bfe4a1461022157806342966c68146102435780634d8739ee1461026357806356d5d4751461028357806369abaac9146102965780636b8cf65e1461034b57600080fd5b8063014372eb146101455780630badce41146101905780630f45ad43146101b257806318a9b4ad146101eb578063250cab391461020b575b600080fd5b34801561015157600080fd5b5061017d61016036600461195c565b600b60209081526000928352604080842090915290825290205481565b6040519081526020015b60405180910390f35b34801561019c57600080fd5b506101b06101ab366004611988565b610538565b005b3480156101be57600080fd5b506003546101d690600160201b900463ffffffff1681565b60405163ffffffff9091168152602001610187565b3480156101f757600080fd5b5061017d610206366004611ad7565b610571565b34801561021757600080fd5b5061017d60095481565b34801561022d57600080fd5b506102366105e0565b6040516101879190611b32565b34801561024f57600080fd5b506101b061025e366004611b7d565b610688565b34801561026f57600080fd5b506101b061027e366004611b96565b610a90565b6101b0610291366004611bfb565b610b94565b3480156102a257600080fd5b506103016102b1366004611c82565b60026020819052600091825260409091208054600182015491909201546001600160a01b039283169263ffffffff821691600160201b810490911690600160c01b900467ffffffffffffffff1685565b604080516001600160a01b039687168152602081019590955263ffffffff9093169284019290925292909216606082015267ffffffffffffffff909116608082015260a001610187565b34801561035757600080fd5b5060055461036b906001600160a01b031681565b6040516001600160a01b039091168152602001610187565b34801561038f57600080fd5b506103b661039e366004611b7d565b600c6020526000908152604090206001015460ff1681565b6040516101879190611c9d565b3480156103cf57600080fd5b506103e36103de366004611b7d565b610bf7565b6040516101879190611d34565b3480156103fc57600080fd5b5061030161040b366004611b7d565b610d02565b34801561041c57600080fd5b506003546101d69063ffffffff1681565b34801561043957600080fd5b506000546101d690600160a01b900463ffffffff1681565b34801561045d57600080fd5b5060005461036b906001600160a01b031681565b6101b061047f366004611d6c565b610d61565b34801561049057600080fd5b50600354600160201b810463ffffffff9081169116146040519015158152602001610187565b3480156104c257600080fd5b506101b06104d1366004611e54565b610d78565b3480156104e257600080fd5b506104eb610e33565b6040516101879190611e97565b34801561050457600080fd5b506101d6610513366004611b7d565b610ee2565b34801561052457600080fd5b5060085461036b906001600160a01b031681565b6000828152600c6020526040902060019081018054839260ff199091169083600381111561056857610568611afa565b02179055505050565b6000805b6001548110156105d75782600001516001600160a01b0316600182815481106105a0576105a0611eaa565b60009182526020909120600390910201546001600160a01b0316036105c55792915050565b806105cf81611ed6565b915050610575565b50600092915050565b60408051605a808252610b6082019092526060916000919060208201610b408036833701905050905060005b8151811015610682576000818152600c6020526040902060010154825160ff9091169083908390811061064157610641611eaa565b6020026020010190600381111561065a5761065a611afa565b9081600381111561066d5761066d611afa565b9052508061067a81611ed6565b91505061060c565b50919050565b60026000828152600c602052604090206001015460ff1660038111156106b0576106b0611afa565b146106f85760405162461bcd60e51b815260206004820152601360248201527215985d5b1d081a5cc81b9bdd081b5a5b9d1959606a1b60448201526064015b60405180910390fd5b600354600160201b810463ffffffff9081169116146107595760405162461bcd60e51b815260206004820152601860248201527f4f6e6c79206d61696e20636861696e2063616e206275726e000000000000000060448201526064016106ef565b600854600954604051632770a7eb60e21b815233600482015260248101919091526001600160a01b0390911690639dc29fac90604401600060405180830381600087803b1580156107a957600080fd5b505af11580156107bd573d6000803e3d6000fd5b5050505060005b6000828152600c6020526040902054811015610922576003546000838152600c60205260409020805463ffffffff909216918390811061080657610806611eaa565b600091825260209091206002600390920201015463ffffffff1603610910576000828152600c6020526040902080548290811061084557610845611eaa565b60009182526020808320600390920290910154848352600c909152604090912080546001600160a01b039092169163a9059cbb9133918590811061088b5761088b611eaa565b60009182526020909120600160039092020101546040516001600160e01b031960e085901b1681526001600160a01b03909216600483015260248201526044016020604051808303816000875af11580156108ea573d6000803e3d6000fd5b505050506040513d601f19601f8201168201806040525081019061090e9190611eef565b505b8061091a81611ed6565b9150506107c4565b506000818152600c60209081526040808320600101805460ff1916600317905582546006548251808501879052835180820390950185528084019384905263138857a360e31b9093526001600160a01b038083169594911692639c42bd189261099f92600160a01b90910463ffffffff1691879190604401611f11565b602060405180830381865afa1580156109bc573d6000803e3d6000fd5b505050506040513d601f19601f820116820180604052508101906109e09190611f74565b60065460005460408051602081018890529394506001600160a01b039092169263fa31de01928592600160a01b900463ffffffff16918791015b6040516020818303038152906040526040518563ffffffff1660e01b8152600401610a4793929190611f11565b60206040518083038185885af1158015610a65573d6000803e3d6000fd5b50505050506040513d601f19601f82011682018060405250810190610a8a9190611f74565b50505050565b600354600160201b810463ffffffff908116911614610b0b5760405162461bcd60e51b815260206004820152603160248201527f5369646520436861696e206c6f636b20616464726573732063616e206f6e6c796044820152701031329039b2ba1036b0b4b731b430b4b760791b60648201526084016106ef565b600680546001600160a01b039485166001600160a01b03199182161790915560008054600780549587169584169590951790945595841663ffffffff909516600160a01b02166001600160c01b031990921691909117929092179092556003805491909216680100000000000000000268010000000000000000600160e01b0319909116179055565b60035463ffffffff600160201b82048116911603610bd7576000610bba82840184611d6c565b600354909150610bd190829063ffffffff16610f1c565b50610a8a565b6000610be582840184611b7d565b9050610bf081610688565b5050505050565b6040805180820190915260608152600060208201526000828152600c60209081526040808320815181546060948102820185018452928101838152909491938593919285929185015b82821015610cc25760008481526020908190206040805160a0810182526003860290920180546001600160a01b0390811684526001808301548587015260029092015463ffffffff811693850193909352600160201b8304166060840152600160c01b90910467ffffffffffffffff1660808301529083529092019101610c40565b50505090825250600182015460209091019060ff166003811115610ce857610ce8611afa565b6003811115610cf957610cf9611afa565b90525092915050565b60018181548110610d1257600080fd5b60009182526020909120600390910201805460018201546002909201546001600160a01b03918216935063ffffffff811691600160201b82041690600160c01b900467ffffffffffffffff1685565b600354610d7590829063ffffffff16610f1c565b50565b60035463ffffffff600160201b82048116911603610df45760405162461bcd60e51b815260206004820152603360248201527f4d61696e20636861696e206c6f636b20616464726573732063616e6e6f742062604482015272329039b2ba1037b71036b0b4b71031b430b4b760691b60648201526084016106ef565b600580546001600160a01b039485166001600160a01b031991821617909155600680549385169382169390931790925560078054919093169116179055565b60606001805480602002602001604051908101604052809291908181526020016000905b82821015610ed95760008481526020908190206040805160a0810182526003860290920180546001600160a01b0390811684526001808301548587015260029092015463ffffffff811693850193909352600160201b8304166060840152600160c01b90910467ffffffffffffffff1660808301529083529092019101610e57565b50505050905090565b60048181548110610ef257600080fd5b9060005260206000209060089182820401919006600402915054906101000a900463ffffffff1681565b8151602083015160016000838152600c602052604090206001015460ff166003811115610f4b57610f4b611afa565b1480610f7a57506000828152600c602052604081206001015460ff166003811115610f7857610f78611afa565b145b610fc65760405162461bcd60e51b815260206004820152601a60248201527f5661756c74206973206e6f74206f70656e206f7220656d70747900000000000060448201526064016106ef565b6000828152600c602052604081206001015460ff166003811115610fec57610fec611afa565b036111955760005b60015481101561117557600c60008481526020019081526020016000206000016040518060a001604052806001848154811061103257611032611eaa565b600091825260208083206003909202909101546001600160a01b03168352820152600180546040909201918590811061106d5761106d611eaa565b600091825260208083206002600390930201919091015463ffffffff16835282015260018054604090920191859081106110a9576110a9611eaa565b60009182526020808320600392830201600290810154600160c01b9081900467ffffffffffffffff908116909652875460018082018a559886529483902087519590940290930180546001600160a01b0319166001600160a01b039586161781559186015196820196909655604085015195018054606086015160809096015163ffffffff9097166001600160c01b031990911617600160201b9590931694909402919091176001600160c01b031693909116029190911790558061116d81611ed6565b915050610ff4565b506000828152600c602052604090206001908101805460ff191690911790555b60005b81518110156115a85760006111c58383815181106111b8576111b8611eaa565b6020026020010151610571565b90508463ffffffff168383815181106111e0576111e0611eaa565b60200260200101516040015163ffffffff16036112dc5782828151811061120957611209611eaa565b6020026020010151600001516001600160a01b03166323b872dd84848151811061123557611235611eaa565b6020026020010151606001513086868151811061125457611254611eaa565b60209081029190910181015101516040516001600160e01b031960e086901b1681526001600160a01b03938416600482015292909116602483015260448201526064016020604051808303816000875af11580156112b6573d6000803e3d6000fd5b505050506040513d601f19601f820116820180604052508101906112da9190611eef565b505b8282815181106112ee576112ee611eaa565b602002602001015160200151600c6000868152602001908152602001600020600001828154811061132157611321611eaa565b906000526020600020906003020160010160008282546113419190611f8d565b925050819055507f80590f9d7015c327349ea64242fc29353801fcad956721a0e45f725338db06f48484848151811061137c5761137c611eaa565b60200260200101516000015185858151811061139a5761139a611eaa565b6020026020010151602001518686815181106113b8576113b8611eaa565b6020026020010151604001518787815181106113d6576113d6611eaa565b6020026020010151606001516040516114209594939291909485526001600160a01b039384166020860152604085019290925263ffffffff16606084015216608082015260a00190565b60405180910390a160035463ffffffff600160201b8204811691160361159557600b6000858152602001908152602001600020600084848151811061146757611467611eaa565b6020026020010151606001516001600160a01b03166001600160a01b03168152602001908152602001600020546000036114fd576000848152600a6020526040902083518490849081106114bd576114bd611eaa565b6020908102919091018101516060015182546001810184556000938452919092200180546001600160a01b0319166001600160a01b039092169190911790555b6000600190508084848151811061151657611516611eaa565b60200260200101516020015161152c9190611fa0565b600b6000878152602001908152602001600020600086868151811061155357611553611eaa565b6020026020010151606001516001600160a01b03166001600160a01b03168152602001908152602001600020600082825461158e9190611f8d565b9091555050505b50806115a081611ed6565b915050611198565b5060005b60015481101561163357600181815481106115c9576115c9611eaa565b906000526020600020906003020160010154600c6000858152602001908152602001600020600001828154811061160257611602611eaa565b9060005260206000209060030201600101541015611621575050505050565b8061162b81611ed6565b9150506115ac565b506000828152600c60205260409020600101805460ff1916600217905560035463ffffffff808216600160201b90920416036116775761167282611680565b610a8a565b610a8a84611851565b6000805b6000838152600a602052604090205481101561170a576000838152600b60209081526040808320600a90925282208054919291849081106116c7576116c7611eaa565b60009182526020808320909101546001600160a01b031683528201929092526040019020546116f69083611f8d565b91508061170281611ed6565b915050611684565b5060005b6000838152600a602052604090205481101561184c576009546000848152600b60209081526040808320600a909252822080549293869390929185918790811061175a5761175a611eaa565b60009182526020808320909101546001600160a01b031683528201929092526040019020546117899190611fa0565b6117939190611fb7565b6008546000868152600a6020526040902080549293506001600160a01b03909116916340c10f199190859081106117cc576117cc611eaa565b60009182526020909120015460405160e083901b6001600160e01b03191681526001600160a01b03909116600482015260248101849052604401600060405180830381600087803b15801561182057600080fd5b505af1158015611834573d6000803e3d6000fd5b5050505050808061184490611ed6565b91505061170e565b505050565b6005546006546003546040516001600160a01b03938416936000931691639c42bd1891600160201b90910463ffffffff16908590611893908890602001611fd9565b6040516020818303038152906040526040518463ffffffff1660e01b81526004016118c093929190611f11565b602060405180830381865afa1580156118dd573d6000803e3d6000fd5b505050506040513d601f19601f820116820180604052508101906119019190611f74565b6006546003546040519293506001600160a01b039091169163fa31de01918491600160201b90910463ffffffff16908690610a1a908990602001611fd9565b80356001600160a01b038116811461195757600080fd5b919050565b6000806040838503121561196f57600080fd5b8235915061197f60208401611940565b90509250929050565b6000806040838503121561199b57600080fd5b823591506020830135600481106119b157600080fd5b809150509250929050565b634e487b7160e01b600052604160045260246000fd5b6040805190810167ffffffffffffffff811182821017156119f5576119f56119bc565b60405290565b604051601f8201601f1916810167ffffffffffffffff81118282101715611a2457611a246119bc565b604052919050565b803563ffffffff8116811461195757600080fd5b600060a08284031215611a5257600080fd5b60405160a0810167ffffffffffffffff8282108183111715611a7657611a766119bc565b81604052829350611a8685611940565b835260208501356020840152611a9e60408601611a2c565b6040840152611aaf60608601611940565b6060840152608085013591508082168214611ac957600080fd5b506080919091015292915050565b600060a08284031215611ae957600080fd5b611af38383611a40565b9392505050565b634e487b7160e01b600052602160045260246000fd5b60048110611b2e57634e487b7160e01b600052602160045260246000fd5b9052565b6020808252825182820181905260009190848201906040850190845b81811015611b7157611b61838551611b10565b9284019291840191600101611b4e565b50909695505050505050565b600060208284031215611b8f57600080fd5b5035919050565b600080600080600060a08688031215611bae57600080fd5b611bb786611940565b9450611bc560208701611a2c565b9350611bd360408701611940565b9250611be160608701611940565b9150611bef60808701611940565b90509295509295909350565b60008060008060608587031215611c1157600080fd5b611c1a85611a2c565b935060208501359250604085013567ffffffffffffffff80821115611c3e57600080fd5b818701915087601f830112611c5257600080fd5b813581811115611c6157600080fd5b886020828501011115611c7357600080fd5b95989497505060200194505050565b600060208284031215611c9457600080fd5b611af382611940565b60208101611cab8284611b10565b92915050565b600081518084526020808501945080840160005b83811015611d2957815180516001600160a01b03908116895284820151858a015260408083015163ffffffff16908a01526060808301519091169089015260809081015167ffffffffffffffff169088015260a09096019590820190600101611cc5565b509495945050505050565b602081526000825160406020840152611d506060840182611cb1565b90506020840151611d646040850182611b10565b509392505050565b60006020808385031215611d7f57600080fd5b823567ffffffffffffffff80821115611d9757600080fd5b9084019060408287031215611dab57600080fd5b611db36119d2565b823581528383013582811115611dc857600080fd5b80840193505086601f840112611ddd57600080fd5b823582811115611def57611def6119bc565b611dfd858260051b016119fb565b818152858101935060a0918202850186019189831115611e1c57600080fd5b948601945b82861015611e4257611e338a87611a40565b85529485019493860193611e21565b50948201949094529695505050505050565b600080600060608486031215611e6957600080fd5b611e7284611940565b9250611e8060208501611940565b9150611e8e60408501611940565b90509250925092565b602081526000611af36020830184611cb1565b634e487b7160e01b600052603260045260246000fd5b634e487b7160e01b600052601160045260246000fd5b600060018201611ee857611ee8611ec0565b5060010190565b600060208284031215611f0157600080fd5b81518015158114611af357600080fd5b63ffffffff8416815260006020848184015260606040840152835180606085015260005b81811015611f5157858101830151858201608001528201611f35565b506000608082860101526080601f19601f83011685010192505050949350505050565b600060208284031215611f8657600080fd5b5051919050565b80820180821115611cab57611cab611ec0565b8082028115828204841417611cab57611cab611ec0565b600082611fd457634e487b7160e01b600052601260045260246000fd5b500490565b602081528151602082015260006020830151604080840152611ffe6060840182611cb1565b94935050505056fea264697066735822122002d8570d40347bd80350b4eb9365cde71f88ee4e6b8ce386866ca4accd874f1d64736f6c63430008110033",
  "devdoc": {
    "kind": "dev",
    "methods": {},
    "version": 1
  },
  "userdoc": {
    "kind": "user",
    "methods": {},
    "version": 1
  },
  "storageLayout": {
    "storage": [
      {
        "astId": 1306,
        "contract": "contracts/ETFLock.sol:ETFLock",
        "label": "sideChainLock",
        "offset": 0,
        "slot": "0",
        "type": "t_address"
      },
      {
        "astId": 1308,
        "contract": "contracts/ETFLock.sol:ETFLock",
        "label": "sideChainId",
        "offset": 20,
        "slot": "0",
        "type": "t_uint32"
      },
      {
        "astId": 1312,
        "contract": "contracts/ETFLock.sol:ETFLock",
        "label": "requiredTokens",
        "offset": 0,
        "slot": "1",
        "type": "t_array(t_struct(TokenQuantity)1275_storage)dyn_storage"
      },
      {
        "astId": 1317,
        "contract": "contracts/ETFLock.sol:ETFLock",
        "label": "addressToToken",
        "offset": 0,
        "slot": "2",
        "type": "t_mapping(t_address,t_struct(TokenQuantity)1275_storage)"
      },
      {
        "astId": 1319,
        "contract": "contracts/ETFLock.sol:ETFLock",
        "label": "chainId",
        "offset": 0,
        "slot": "3",
        "type": "t_uint32"
      },
      {
        "astId": 1321,
        "contract": "contracts/ETFLock.sol:ETFLock",
        "label": "mainChainId",
        "offset": 4,
        "slot": "3",
        "type": "t_uint32"
      },
      {
        "astId": 1323,
        "contract": "contracts/ETFLock.sol:ETFLock",
        "label": "quasarAddress",
        "offset": 8,
        "slot": "3",
        "type": "t_address"
      },
      {
        "astId": 1326,
        "contract": "contracts/ETFLock.sol:ETFLock",
        "label": "receivedMessages",
        "offset": 0,
        "slot": "4",
        "type": "t_array(t_uint32)dyn_storage"
      },
      {
        "astId": 1328,
        "contract": "contracts/ETFLock.sol:ETFLock",
        "label": "mainChainLock",
        "offset": 0,
        "slot": "5",
        "type": "t_address"
      },
      {
        "astId": 1331,
        "contract": "contracts/ETFLock.sol:ETFLock",
        "label": "outbox",
        "offset": 0,
        "slot": "6",
        "type": "t_contract(IMailbox)247"
      },
      {
        "astId": 1334,
        "contract": "contracts/ETFLock.sol:ETFLock",
        "label": "securityModule",
        "offset": 0,
        "slot": "7",
        "type": "t_contract(IInterchainSecurityModule)73"
      },
      {
        "astId": 1336,
        "contract": "contracts/ETFLock.sol:ETFLock",
        "label": "etfToken",
        "offset": 0,
        "slot": "8",
        "type": "t_address"
      },
      {
        "astId": 1338,
        "contract": "contracts/ETFLock.sol:ETFLock",
        "label": "etfTokenPerVault",
        "offset": 0,
        "slot": "9",
        "type": "t_uint256"
      },
      {
        "astId": 1343,
        "contract": "contracts/ETFLock.sol:ETFLock",
        "label": "contributorsByVault",
        "offset": 0,
        "slot": "10",
        "type": "t_mapping(t_uint256,t_array(t_address)dyn_storage)"
      },
      {
        "astId": 1349,
        "contract": "contracts/ETFLock.sol:ETFLock",
        "label": "accountContributionsPerVault",
        "offset": 0,
        "slot": "11",
        "type": "t_mapping(t_uint256,t_mapping(t_address,t_uint256))"
      },
      {
        "astId": 1366,
        "contract": "contracts/ETFLock.sol:ETFLock",
        "label": "vaults",
        "offset": 0,
        "slot": "12",
        "type": "t_mapping(t_uint256,t_struct(Vault)1283_storage)"
      }
    ],
    "types": {
      "t_address": {
        "encoding": "inplace",
        "label": "address",
        "numberOfBytes": "20"
      },
      "t_array(t_address)dyn_storage": {
        "base": "t_address",
        "encoding": "dynamic_array",
        "label": "address[]",
        "numberOfBytes": "32"
      },
      "t_array(t_struct(TokenQuantity)1275_storage)dyn_storage": {
        "base": "t_struct(TokenQuantity)1275_storage",
        "encoding": "dynamic_array",
        "label": "struct TokenQuantity[]",
        "numberOfBytes": "32"
      },
      "t_array(t_uint32)dyn_storage": {
        "base": "t_uint32",
        "encoding": "dynamic_array",
        "label": "uint32[]",
        "numberOfBytes": "32"
      },
      "t_contract(IInterchainSecurityModule)73": {
        "encoding": "inplace",
        "label": "contract IInterchainSecurityModule",
        "numberOfBytes": "20"
      },
      "t_contract(IMailbox)247": {
        "encoding": "inplace",
        "label": "contract IMailbox",
        "numberOfBytes": "20"
      },
      "t_enum(VaultState)1288": {
        "encoding": "inplace",
        "label": "enum VaultState",
        "numberOfBytes": "1"
      },
      "t_mapping(t_address,t_struct(TokenQuantity)1275_storage)": {
        "encoding": "mapping",
        "key": "t_address",
        "label": "mapping(address => struct TokenQuantity)",
        "numberOfBytes": "32",
        "value": "t_struct(TokenQuantity)1275_storage"
      },
      "t_mapping(t_address,t_uint256)": {
        "encoding": "mapping",
        "key": "t_address",
        "label": "mapping(address => uint256)",
        "numberOfBytes": "32",
        "value": "t_uint256"
      },
      "t_mapping(t_uint256,t_array(t_address)dyn_storage)": {
        "encoding": "mapping",
        "key": "t_uint256",
        "label": "mapping(uint256 => address[])",
        "numberOfBytes": "32",
        "value": "t_array(t_address)dyn_storage"
      },
      "t_mapping(t_uint256,t_mapping(t_address,t_uint256))": {
        "encoding": "mapping",
        "key": "t_uint256",
        "label": "mapping(uint256 => mapping(address => uint256))",
        "numberOfBytes": "32",
        "value": "t_mapping(t_address,t_uint256)"
      },
      "t_mapping(t_uint256,t_struct(Vault)1283_storage)": {
        "encoding": "mapping",
        "key": "t_uint256",
        "label": "mapping(uint256 => struct Vault)",
        "numberOfBytes": "32",
        "value": "t_struct(Vault)1283_storage"
      },
      "t_struct(TokenQuantity)1275_storage": {
        "encoding": "inplace",
        "label": "struct TokenQuantity",
        "members": [
          {
            "astId": 1266,
            "contract": "contracts/ETFLock.sol:ETFLock",
            "label": "_address",
            "offset": 0,
            "slot": "0",
            "type": "t_address"
          },
          {
            "astId": 1268,
            "contract": "contracts/ETFLock.sol:ETFLock",
            "label": "_quantity",
            "offset": 0,
            "slot": "1",
            "type": "t_uint256"
          },
          {
            "astId": 1270,
            "contract": "contracts/ETFLock.sol:ETFLock",
            "label": "_chainId",
            "offset": 0,
            "slot": "2",
            "type": "t_uint32"
          },
          {
            "astId": 1272,
            "contract": "contracts/ETFLock.sol:ETFLock",
            "label": "_contributor",
            "offset": 4,
            "slot": "2",
            "type": "t_address"
          },
          {
            "astId": 1274,
            "contract": "contracts/ETFLock.sol:ETFLock",
            "label": "_tokenId",
            "offset": 24,
            "slot": "2",
            "type": "t_uint64"
          }
        ],
        "numberOfBytes": "96"
      },
      "t_struct(Vault)1283_storage": {
        "encoding": "inplace",
        "label": "struct Vault",
        "members": [
          {
            "astId": 1279,
            "contract": "contracts/ETFLock.sol:ETFLock",
            "label": "_tokens",
            "offset": 0,
            "slot": "0",
            "type": "t_array(t_struct(TokenQuantity)1275_storage)dyn_storage"
          },
          {
            "astId": 1282,
            "contract": "contracts/ETFLock.sol:ETFLock",
            "label": "state",
            "offset": 0,
            "slot": "1",
            "type": "t_enum(VaultState)1288"
          }
        ],
        "numberOfBytes": "64"
      },
      "t_uint256": {
        "encoding": "inplace",
        "label": "uint256",
        "numberOfBytes": "32"
      },
      "t_uint32": {
        "encoding": "inplace",
        "label": "uint32",
        "numberOfBytes": "4"
      },
      "t_uint64": {
        "encoding": "inplace",
        "label": "uint64",
        "numberOfBytes": "8"
      }
    }
  }
}