{
  "address": "0x7494Db5833D2FC9f4E0Eb8B1aDf86eAA566C298f",
  "abi": [
    {
      "inputs": [
        {
          "internalType": "uint32",
          "name": "_mainChain",
          "type": "uint32"
        },
        {
          "internalType": "uint32",
          "name": "_chainId",
          "type": "uint32"
        },
        {
          "components": [
            {
              "internalType": "address",
              "name": "_address",
              "type": "address"
            },
            {
              "internalType": "uint256",
              "name": "_quantity",
              "type": "uint256"
            },
            {
              "internalType": "uint32",
              "name": "_chainId",
              "type": "uint32"
            },
            {
              "internalType": "address",
              "name": "_contributor",
              "type": "address"
            },
            {
              "internalType": "address",
              "name": "_aggregator",
              "type": "address"
            }
          ],
          "internalType": "struct TokenQuantity[]",
          "name": "_requiredTokens",
          "type": "tuple[]"
        },
        {
          "internalType": "address",
          "name": "_etfToken",
          "type": "address"
        },
        {
          "internalType": "uint256",
          "name": "_etfTokenPerVault",
          "type": "uint256"
        }
      ],
      "stateMutability": "nonpayable",
      "type": "constructor"
    },
    {
      "inputs": [],
      "name": "CalldataMustHaveValidPayload",
      "type": "error"
    },
    {
      "inputs": [],
      "name": "CalldataOverOrUnderFlow",
      "type": "error"
    },
    {
      "inputs": [],
      "name": "CanNotPickMedianOfEmptyArray",
      "type": "error"
    },
    {
      "inputs": [],
      "name": "DataPackageTimestampMustNotBeZero",
      "type": "error"
    },
    {
      "inputs": [],
      "name": "DataPackageTimestampsMustBeEqual",
      "type": "error"
    },
    {
      "inputs": [],
      "name": "EachSignerMustProvideTheSameValue",
      "type": "error"
    },
    {
      "inputs": [],
      "name": "EmptyCalldataPointersArr",
      "type": "error"
    },
    {
      "inputs": [],
      "name": "GetDataServiceIdNotImplemented",
      "type": "error"
    },
    {
      "inputs": [],
      "name": "IncorrectUnsignedMetadataSize",
      "type": "error"
    },
    {
      "inputs": [
        {
          "internalType": "uint256",
          "name": "receivedSignersCount",
          "type": "uint256"
        },
        {
          "internalType": "uint256",
          "name": "requiredSignersCount",
          "type": "uint256"
        }
      ],
      "name": "InsufficientNumberOfUniqueSigners",
      "type": "error"
    },
    {
      "inputs": [],
      "name": "InvalidCalldataPointer",
      "type": "error"
    },
    {
      "inputs": [],
      "name": "RedstonePayloadMustHaveAtLeastOneDataPackage",
      "type": "error"
    },
    {
      "inputs": [
        {
          "internalType": "address",
          "name": "receivedSigner",
          "type": "address"
        }
      ],
      "name": "SignerNotAuthorised",
      "type": "error"
    },
    {
      "inputs": [
        {
          "internalType": "uint256",
          "name": "receivedTimestampSeconds",
          "type": "uint256"
        },
        {
          "internalType": "uint256",
          "name": "blockTimestamp",
          "type": "uint256"
        }
      ],
      "name": "TimestampFromTooLongFuture",
      "type": "error"
    },
    {
      "inputs": [
        {
          "internalType": "uint256",
          "name": "receivedTimestampSeconds",
          "type": "uint256"
        },
        {
          "internalType": "uint256",
          "name": "blockTimestamp",
          "type": "uint256"
        }
      ],
      "name": "TimestampIsTooOld",
      "type": "error"
    },
    {
      "anonymous": false,
      "inputs": [
        {
          "indexed": false,
          "internalType": "uint256",
          "name": "_vaultId",
          "type": "uint256"
        },
        {
          "indexed": false,
          "internalType": "address",
          "name": "_address",
          "type": "address"
        },
        {
          "indexed": false,
          "internalType": "uint256",
          "name": "_quantity",
          "type": "uint256"
        },
        {
          "indexed": false,
          "internalType": "uint32",
          "name": "_chainId",
          "type": "uint32"
        },
        {
          "indexed": false,
          "internalType": "address",
          "name": "_contributor",
          "type": "address"
        }
      ],
      "name": "Deposit",
      "type": "event"
    },
    {
      "inputs": [
        {
          "internalType": "uint256",
          "name": "",
          "type": "uint256"
        },
        {
          "internalType": "address",
          "name": "",
          "type": "address"
        }
      ],
      "name": "accountContributionsPerVault",
      "outputs": [
        {
          "internalType": "uint256",
          "name": "",
          "type": "uint256"
        }
      ],
      "stateMutability": "view",
      "type": "function"
    },
    {
      "inputs": [
        {
          "internalType": "address",
          "name": "",
          "type": "address"
        }
      ],
      "name": "addressToToken",
      "outputs": [
        {
          "internalType": "address",
          "name": "_address",
          "type": "address"
        },
        {
          "internalType": "uint256",
          "name": "_quantity",
          "type": "uint256"
        },
        {
          "internalType": "uint32",
          "name": "_chainId",
          "type": "uint32"
        },
        {
          "internalType": "address",
          "name": "_contributor",
          "type": "address"
        },
        {
          "internalType": "address",
          "name": "_aggregator",
          "type": "address"
        }
      ],
      "stateMutability": "view",
      "type": "function"
    },
    {
      "inputs": [
        {
          "internalType": "uint256[]",
          "name": "values",
          "type": "uint256[]"
        }
      ],
      "name": "aggregateValues",
      "outputs": [
        {
          "internalType": "uint256",
          "name": "",
          "type": "uint256"
        }
      ],
      "stateMutability": "view",
      "type": "function"
    },
    {
      "inputs": [
        {
          "internalType": "uint256",
          "name": "_vaultId",
          "type": "uint256"
        }
      ],
      "name": "burn",
      "outputs": [],
      "stateMutability": "nonpayable",
      "type": "function"
    },
    {
      "inputs": [],
      "name": "chainId",
      "outputs": [
        {
          "internalType": "uint32",
          "name": "",
          "type": "uint32"
        }
      ],
      "stateMutability": "view",
      "type": "function"
    },
    {
      "inputs": [
        {
          "components": [
            {
              "internalType": "uint256",
              "name": "vaultId",
              "type": "uint256"
            },
            {
              "components": [
                {
                  "internalType": "address",
                  "name": "_address",
                  "type": "address"
                },
                {
                  "internalType": "uint256",
                  "name": "_quantity",
                  "type": "uint256"
                },
                {
                  "internalType": "uint32",
                  "name": "_chainId",
                  "type": "uint32"
                },
                {
                  "internalType": "address",
                  "name": "_contributor",
                  "type": "address"
                },
                {
                  "internalType": "address",
                  "name": "_aggregator",
                  "type": "address"
                }
              ],
              "internalType": "struct TokenQuantity[]",
              "name": "tokens",
              "type": "tuple[]"
            }
          ],
          "internalType": "struct DepositInfo",
          "name": "_depositInfo",
          "type": "tuple"
        }
      ],
      "name": "deposit",
      "outputs": [],
      "stateMutability": "payable",
      "type": "function"
    },
    {
      "inputs": [],
      "name": "etfToken",
      "outputs": [
        {
          "internalType": "address",
          "name": "",
          "type": "address"
        }
      ],
      "stateMutability": "view",
      "type": "function"
    },
    {
      "inputs": [],
      "name": "etfTokenPerVault",
      "outputs": [
        {
          "internalType": "uint256",
          "name": "",
          "type": "uint256"
        }
      ],
      "stateMutability": "view",
      "type": "function"
    },
    {
      "inputs": [],
      "name": "extractTimestampsAndAssertAllAreEqual",
      "outputs": [
        {
          "internalType": "uint256",
          "name": "extractedTimestamp",
          "type": "uint256"
        }
      ],
      "stateMutability": "pure",
      "type": "function"
    },
    {
      "inputs": [
        {
          "internalType": "address",
          "name": "signerAddress",
          "type": "address"
        }
      ],
      "name": "getAuthorisedSignerIndex",
      "outputs": [
        {
          "internalType": "uint8",
          "name": "",
          "type": "uint8"
        }
      ],
      "stateMutability": "view",
      "type": "function"
    },
    {
      "inputs": [],
      "name": "getDataServiceId",
      "outputs": [
        {
          "internalType": "string",
          "name": "",
          "type": "string"
        }
      ],
      "stateMutability": "view",
      "type": "function"
    },
    {
      "inputs": [
        {
          "components": [
            {
              "internalType": "address",
              "name": "_address",
              "type": "address"
            },
            {
              "internalType": "uint256",
              "name": "_quantity",
              "type": "uint256"
            },
            {
              "internalType": "uint32",
              "name": "_chainId",
              "type": "uint32"
            },
            {
              "internalType": "address",
              "name": "_contributor",
              "type": "address"
            },
            {
              "internalType": "address",
              "name": "_aggregator",
              "type": "address"
            }
          ],
          "internalType": "struct TokenQuantity",
          "name": "_tokenQuantity",
          "type": "tuple"
        }
      ],
      "name": "getIndexForDepositInfo",
      "outputs": [
        {
          "internalType": "uint256",
          "name": "",
          "type": "uint256"
        }
      ],
      "stateMutability": "view",
      "type": "function"
    },
    {
      "inputs": [],
      "name": "getRequiredTokens",
      "outputs": [
        {
          "components": [
            {
              "internalType": "address",
              "name": "_address",
              "type": "address"
            },
            {
              "internalType": "uint256",
              "name": "_quantity",
              "type": "uint256"
            },
            {
              "internalType": "uint32",
              "name": "_chainId",
              "type": "uint32"
            },
            {
              "internalType": "address",
              "name": "_contributor",
              "type": "address"
            },
            {
              "internalType": "address",
              "name": "_aggregator",
              "type": "address"
            }
          ],
          "internalType": "struct TokenQuantity[]",
          "name": "",
          "type": "tuple[]"
        }
      ],
      "stateMutability": "view",
      "type": "function"
    },
    {
      "inputs": [],
      "name": "getUniqueSignersThreshold",
      "outputs": [
        {
          "internalType": "uint8",
          "name": "",
          "type": "uint8"
        }
      ],
      "stateMutability": "view",
      "type": "function"
    },
    {
      "inputs": [
        {
          "internalType": "uint256",
          "name": "_vaultId",
          "type": "uint256"
        }
      ],
      "name": "getVault",
      "outputs": [
        {
          "components": [
            {
              "components": [
                {
                  "internalType": "address",
                  "name": "_address",
                  "type": "address"
                },
                {
                  "internalType": "uint256",
                  "name": "_quantity",
                  "type": "uint256"
                },
                {
                  "internalType": "uint32",
                  "name": "_chainId",
                  "type": "uint32"
                },
                {
                  "internalType": "address",
                  "name": "_contributor",
                  "type": "address"
                },
                {
                  "internalType": "address",
                  "name": "_aggregator",
                  "type": "address"
                }
              ],
              "internalType": "struct TokenQuantity[]",
              "name": "_tokens",
              "type": "tuple[]"
            },
            {
              "internalType": "enum VaultState",
              "name": "state",
              "type": "uint8"
            }
          ],
          "internalType": "struct Vault",
          "name": "",
          "type": "tuple"
        }
      ],
      "stateMutability": "view",
      "type": "function"
    },
    {
      "inputs": [],
      "name": "getVaultStates",
      "outputs": [
        {
          "internalType": "enum VaultState[]",
          "name": "",
          "type": "uint8[]"
        }
      ],
      "stateMutability": "view",
      "type": "function"
    },
    {
      "inputs": [
        {
          "internalType": "uint32",
          "name": "_origin",
          "type": "uint32"
        },
        {
          "internalType": "bytes32",
          "name": "_sender",
          "type": "bytes32"
        },
        {
          "internalType": "bytes",
          "name": "_message",
          "type": "bytes"
        }
      ],
      "name": "handle",
      "outputs": [],
      "stateMutability": "payable",
      "type": "function"
    },
    {
      "inputs": [],
      "name": "isMainChain",
      "outputs": [
        {
          "internalType": "bool",
          "name": "",
          "type": "bool"
        }
      ],
      "stateMutability": "view",
      "type": "function"
    },
    {
      "inputs": [],
      "name": "mainChainId",
      "outputs": [
        {
          "internalType": "uint32",
          "name": "",
          "type": "uint32"
        }
      ],
      "stateMutability": "view",
      "type": "function"
    },
    {
      "inputs": [],
      "name": "mainChainLock",
      "outputs": [
        {
          "internalType": "address",
          "name": "",
          "type": "address"
        }
      ],
      "stateMutability": "view",
      "type": "function"
    },
    {
      "inputs": [
        {
          "internalType": "uint256",
          "name": "",
          "type": "uint256"
        }
      ],
      "name": "receivedMessages",
      "outputs": [
        {
          "internalType": "uint32",
          "name": "",
          "type": "uint32"
        }
      ],
      "stateMutability": "view",
      "type": "function"
    },
    {
      "inputs": [
        {
          "internalType": "uint256",
          "name": "",
          "type": "uint256"
        }
      ],
      "name": "requiredTokens",
      "outputs": [
        {
          "internalType": "address",
          "name": "_address",
          "type": "address"
        },
        {
          "internalType": "uint256",
          "name": "_quantity",
          "type": "uint256"
        },
        {
          "internalType": "uint32",
          "name": "_chainId",
          "type": "uint32"
        },
        {
          "internalType": "address",
          "name": "_contributor",
          "type": "address"
        },
        {
          "internalType": "address",
          "name": "_aggregator",
          "type": "address"
        }
      ],
      "stateMutability": "view",
      "type": "function"
    },
    {
      "inputs": [
        {
          "internalType": "address",
          "name": "_sideChainLock",
          "type": "address"
        },
        {
          "internalType": "uint32",
          "name": "_sideChainId",
          "type": "uint32"
        },
        {
          "internalType": "address",
          "name": "_outbox",
          "type": "address"
        },
        {
          "internalType": "address",
          "name": "_securityModule",
          "type": "address"
        }
      ],
      "name": "setMainChainParams",
      "outputs": [],
      "stateMutability": "nonpayable",
      "type": "function"
    },
    {
      "inputs": [
        {
          "internalType": "address",
          "name": "_mainChainLock",
          "type": "address"
        },
        {
          "internalType": "address",
          "name": "_outbox",
          "type": "address"
        },
        {
          "internalType": "address",
          "name": "_securityModule",
          "type": "address"
        }
      ],
      "name": "setSideChainParams",
      "outputs": [],
      "stateMutability": "nonpayable",
      "type": "function"
    },
    {
      "inputs": [
        {
          "internalType": "uint256",
          "name": "_vaultId",
          "type": "uint256"
        },
        {
          "internalType": "enum VaultState",
          "name": "_state",
          "type": "uint8"
        }
      ],
      "name": "setVaultState",
      "outputs": [],
      "stateMutability": "nonpayable",
      "type": "function"
    },
    {
      "inputs": [],
      "name": "sideChainId",
      "outputs": [
        {
          "internalType": "uint32",
          "name": "",
          "type": "uint32"
        }
      ],
      "stateMutability": "view",
      "type": "function"
    },
    {
      "inputs": [],
      "name": "sideChainLock",
      "outputs": [
        {
          "internalType": "address",
          "name": "",
          "type": "address"
        }
      ],
      "stateMutability": "view",
      "type": "function"
    },
    {
      "inputs": [
        {
          "internalType": "uint256",
          "name": "receivedTimestampMilliseconds",
          "type": "uint256"
        }
      ],
      "name": "validateTimestamp",
      "outputs": [],
      "stateMutability": "view",
      "type": "function"
    },
    {
      "inputs": [
        {
          "internalType": "uint256",
          "name": "",
          "type": "uint256"
        }
      ],
      "name": "vaults",
      "outputs": [
        {
          "internalType": "enum VaultState",
          "name": "state",
          "type": "uint8"
        }
      ],
      "stateMutability": "view",
      "type": "function"
    }
  ],
  "transactionHash": "0xe6b2cc773ecd28d63428186fac2db773b6b70ad274e15ada6cde4b7e73b9c6a7",
  "args": [
    686669576,
    686669576,
    [
      {
        "_address": "0xcc0d27fAb11dceA541e9cFFeB6fb5D0fd3D3e6eB",
        "_quantity": "100000000000000000000",
        "_chainId": 686669576,
        "_contributor": "0x2a1F5eB3e84e58e6F1e565306298B9dE1273f203",
        "_aggregator": "0xe6531282A7f4f253Ecc341B5Ef9680e72B3083Aa"
      },
      {
        "_address": "0x128BF1143e51E18E85e22f7b7017a264c0949EaD",
        "_quantity": "200000000000000000000",
        "_chainId": 686669576,
        "_contributor": "0x2a1F5eB3e84e58e6F1e565306298B9dE1273f203",
        "_aggregator": "0xe6531282A7f4f253Ecc341B5Ef9680e72B3083Aa"
      },
      {
        "_address": "0xA0ac5c99C36128C1De7F88e4f0894D8859Bbc2B2",
        "_quantity": "100000000000000000000",
        "_chainId": 11155111,
        "_contributor": "0x2a1F5eB3e84e58e6F1e565306298B9dE1273f203",
        "_aggregator": "0xe6531282A7f4f253Ecc341B5Ef9680e72B3083Aa"
      }
    ],
    "0x29d7CCF21E1204360C27ae7FA90CA5D0C364145e",
    "100000000000000000000"
  ],
  "numDeployments": 2,
  "solcInputHash": "89e55ea3beec74d94f9d878f8a0f0c16",
  "bytecode": "0x60806040523480156200001157600080fd5b5060405162003549380380620035498339810160408190526200003491620002dc565b600380546001600160401b03191664010000000063ffffffff8881169190910263ffffffff191691909117908616179055600880546001600160a01b0319166001600160a01b038416179055600981905560005b83518110156200022a576001848281518110620000a957620000a96200043a565b602090810291909101810151825460018082018555600094855293839020825160049092020180546001600160a01b03199081166001600160a01b0393841617825593830151948101949094556040820151600285018054606085015163ffffffff9093166001600160c01b0319909116176401000000009284169290920291909117905560809091015160039093018054909216921691909117905583518490829081106200015d576200015d6200043a565b6020026020010151600260008684815181106200017e576200017e6200043a565b602090810291909101810151516001600160a01b039081168352828201939093526040918201600020845181549085166001600160a01b03199182161782559185015160018201559184015160028301805460608701518616640100000000026001600160c01b031990911663ffffffff909316929092179190911790556080909301516003909101805491909216921691909117905580620002218162000450565b91505062000088565b50505050505062000478565b805163ffffffff811681146200024b57600080fd5b919050565b634e487b7160e01b600052604160045260246000fd5b60405160a081016001600160401b03811182821017156200028b576200028b62000250565b60405290565b604051601f8201601f191681016001600160401b0381118282101715620002bc57620002bc62000250565b604052919050565b80516001600160a01b03811681146200024b57600080fd5b600080600080600060a0808789031215620002f657600080fd5b620003018762000236565b955060206200031281890162000236565b604089810151919750906001600160401b03808211156200033257600080fd5b818b0191508b601f8301126200034757600080fd5b8151818111156200035c576200035c62000250565b6200036c858260051b0162000291565b818152858101925090860283018501908d8211156200038a57600080fd5b928501925b818410156200040f5786848f031215620003a95760008081fd5b620003b362000266565b620003be85620002c4565b81528685015187820152620003d586860162000236565b868201526060620003e8818701620002c4565b908201526080620003fb868201620002c4565b90820152835292860192918501916200038f565b809950505050505050506200042760608701620002c4565b9150608086015190509295509295909350565b634e487b7160e01b600052603260045260246000fd5b6000600182016200047157634e487b7160e01b600052601160045260246000fd5b5060010190565b6130c180620004886000396000f3fe6080604052600436106101c25760003560e01c80639403b634116100f7578063b98ee2b611610095578063e1a2d42411610064578063e1a2d4241461060f578063eb6a9aa01461062f578063f50b2efe1461064f578063f90c49241461066f57600080fd5b8063b98ee2b61461056b578063c274583a1461058b578063cca3ce2b146105cd578063d030366c146105ef57600080fd5b80639a9176c2116100d15780639a9176c2146104d55780639c58a5a4146104f9578063b24ebfcc14610519578063b834f6fb1461053957600080fd5b80639403b6341461046b578063956a45a6146104985780639a8a0592146104b857600080fd5b806355a547d51161016457806369abaac91161013e57806369abaac9146103325780636b8cf65e146103d357806384710c911461040b5780638c64ea4a1461042b57600080fd5b806355a547d5146102f757806356d5d4751461030c5780636059f0961461031f57600080fd5b8063250cab39116101a0578063250cab391461026d578063309bfe4a146102835780633ce142f5146102a557806342966c68146102d757600080fd5b8063014372eb146101c75780630badce41146102125780630f45ad4314610234575b600080fd5b3480156101d357600080fd5b506101ff6101e2366004612921565b600b60209081526000928352604080842090915290825290205481565b6040519081526020015b60405180910390f35b34801561021e57600080fd5b5061023261022d36600461294d565b610683565b005b34801561024057600080fd5b5060035461025890600160201b900463ffffffff1681565b60405163ffffffff9091168152602001610209565b34801561027957600080fd5b506101ff60095481565b34801561028f57600080fd5b506102986106bc565b60405161020991906129b9565b3480156102b157600080fd5b506102c56102c0366004612a04565b610764565b60405160ff9091168152602001610209565b3480156102e357600080fd5b506102326102f2366004612a1f565b6107c0565b34801561030357600080fd5b506101ff610bc6565b61023261031a366004612a4c565b610cde565b61023261032d366004612bf1565b610e6c565b34801561033e57600080fd5b5061039361034d366004612a04565b600260208190526000918252604090912080546001820154928201546003909201546001600160a01b03918216939263ffffffff811692600160201b9091048116911685565b604080516001600160a01b039687168152602081019590955263ffffffff909316928401929092528316606083015291909116608082015260a001610209565b3480156103df57600080fd5b506005546103f3906001600160a01b031681565b6040516001600160a01b039091168152602001610209565b34801561041757600080fd5b506101ff610426366004612cce565b610e83565b34801561043757600080fd5b5061045e610446366004612a1f565b600c6020526000908152604090206001015460ff1681565b6040516102099190612cea565b34801561047757600080fd5b5061048b610486366004612a1f565b610ef2565b6040516102099190612d71565b3480156104a457600080fd5b506103936104b3366004612a1f565b610ff3565b3480156104c457600080fd5b506003546102589063ffffffff1681565b3480156104e157600080fd5b5060005461025890600160a01b900463ffffffff1681565b34801561050557600080fd5b506000546103f3906001600160a01b031681565b34801561052557600080fd5b506101ff610534366004612da9565b61104b565b34801561054557600080fd5b50600354600160201b810463ffffffff9081169116146040519015158152602001610209565b34801561057757600080fd5b50610232610586366004612e3a565b61105c565b34801561059757600080fd5b50604080518082018252601381527272656473746f6e652d72617069642d64656d6f60681b602082015290516102099190612ec3565b3480156105d957600080fd5b506105e2611117565b6040516102099190612ed6565b3480156105fb57600080fd5b5061025861060a366004612a1f565b6111bc565b34801561061b57600080fd5b5061023261062a366004612ee9565b6111f6565b34801561063b57600080fd5b506008546103f3906001600160a01b031681565b34801561065b57600080fd5b5061023261066a366004612a1f565b6112cc565b34801561067b57600080fd5b5060016102c5565b6000828152600c6020526040902060019081018054839260ff19909116908360038111156106b3576106b3612981565b02179055505050565b60408051605a808252610b6082019092526060916000919060208201610b408036833701905050905060005b815181101561075e576000818152600c6020526040902060010154825160ff9091169083908390811061071d5761071d612f3d565b6020026020010190600381111561073657610736612981565b9081600381111561074957610749612981565b9052508061075681612f69565b9150506106e8565b50919050565b60006001600160a01b03821673f786a909d559f5dee2dc6706d8e5a81728a39ae90361079257506000919050565b6040516303b1166f60e61b81526001600160a01b03831660048201526024015b60405180910390fd5b919050565b60026000828152600c602052604090206001015460ff1660038111156107e8576107e8612981565b1461082b5760405162461bcd60e51b815260206004820152601360248201527215985d5b1d081a5cc81b9bdd081b5a5b9d1959606a1b60448201526064016107b2565b600354600160201b810463ffffffff90811691161461088c5760405162461bcd60e51b815260206004820152601860248201527f4f6e6c79206d61696e20636861696e2063616e206275726e000000000000000060448201526064016107b2565b600854600954604051632770a7eb60e21b815233600482015260248101919091526001600160a01b0390911690639dc29fac90604401600060405180830381600087803b1580156108dc57600080fd5b505af11580156108f0573d6000803e3d6000fd5b5050505060005b6000828152600c6020526040902054811015610a58576003546000838152600c60205260409020805463ffffffff909216918390811061093957610939612f3d565b600091825260209091206002600490920201015463ffffffff1603610a46576000828152600c6020526040902080548290811061097857610978612f3d565b60009182526020808320600490920290910154848352600c909152604090912080546001600160a01b039092169163a9059cbb913391859081106109be576109be612f3d565b9060005260206000209060040201600101546040518363ffffffff1660e01b8152600401610a019291906001600160a01b03929092168252602082015260400190565b6020604051808303816000875af1158015610a20573d6000803e3d6000fd5b505050506040513d601f19601f82011682018060405250810190610a449190612f82565b505b80610a5081612f69565b9150506108f7565b506000818152600c60209081526040808320600101805460ff1916600317905582546006548251808501879052835180820390950185528084019384905263138857a360e31b9093526001600160a01b038083169594911692639c42bd1892610ad592600160a01b90910463ffffffff1691879190604401612fa4565b602060405180830381865afa158015610af2573d6000803e3d6000fd5b505050506040513d601f19601f82011682018060405250810190610b169190612fd2565b60065460005460408051602081018890529394506001600160a01b039092169263fa31de01928592600160a01b900463ffffffff16918791015b6040516020818303038152906040526040518563ffffffff1660e01b8152600401610b7d93929190612fa4565b60206040518083038185885af1158015610b9b573d6000803e3d6000fd5b50505050506040513d601f19601f82011682018060405250810190610bc09190612fd2565b50505050565b600080610bd16112d5565b90506000610bde82611383565b61ffff16905080600003610c0557604051632154bfcf60e21b815260040160405180910390fd5b610c10600283612feb565b915060005b81811015610cd8576000610c28846113bd565b9050600080610c38606887612feb565b90506000610c468236612ffe565b9050803592508265ffffffffffff16600003610c7557604051630336dc9d60e41b815260040160405180910390fd5b87600003610c8d578265ffffffffffff169750610cb5565b878365ffffffffffff1614610cb55760405163d9d1f46560e01b815260040160405180910390fd5b610cbf8488612feb565b9650505050508080610cd090612f69565b915050610c15565b50505090565b600354600160201b810463ffffffff9081169116148015610d1257506000546001600160a01b0316836001600160a01b0316145b610d735760405162461bcd60e51b815260206004820152602c60248201527f53656e64657220746f206d61696e436861696e206973206e6f7420746865207360448201526b696465436861696e4c6f636b60a01b60648201526084016107b2565b600354600160201b810463ffffffff908116911614158015610da857506005546001600160a01b0316836001600160a01b0316145b610e095760405162461bcd60e51b815260206004820152602c60248201527f53656e64657220746f2073696465436861696e206973206e6f7420746865206d60448201526b61696e436861696e4c6f636b60a01b60648201526084016107b2565b60035463ffffffff600160201b82048116911603610e4c576000610e2f82840184612bf1565b600354909150610e4690829063ffffffff166113f9565b50610bc0565b6000610e5a82840184612a1f565b9050610e65816107c0565b5050505050565b600354610e8090829063ffffffff166113f9565b50565b6000805b600154811015610ee95782600001516001600160a01b031660018281548110610eb257610eb2612f3d565b60009182526020909120600490910201546001600160a01b031603610ed75792915050565b80610ee181612f69565b915050610e87565b50600092915050565b6040805180820190915260608152600060208201526000828152600c60209081526040808320815181546060948102820185018452928101838152909491938593919285929185015b82821015610fb35760008481526020908190206040805160a0810182526004860290920180546001600160a01b03908116845260018083015485870152600283015463ffffffff811694860194909452600160201b909304811660608501526003909101541660808301529083529092019101610f3b565b50505090825250600182015460209091019060ff166003811115610fd957610fd9612981565b6003811115610fea57610fea612981565b90525092915050565b6001818154811061100357600080fd5b600091825260209091206004909102018054600182015460028301546003909301546001600160a01b039283169450909263ffffffff811692600160201b9091048116911685565b600061105682611dd5565b92915050565b60035463ffffffff600160201b820481169116036110d85760405162461bcd60e51b815260206004820152603360248201527f4d61696e20636861696e206c6f636b20616464726573732063616e6e6f742062604482015272329039b2ba1037b71036b0b4b71031b430b4b760691b60648201526084016107b2565b600580546001600160a01b039485166001600160a01b031991821617909155600680549385169382169390931790925560078054919093169116179055565b60606001805480602002602001604051908101604052809291908181526020016000905b828210156111b35760008481526020908190206040805160a0810182526004860290920180546001600160a01b03908116845260018083015485870152600283015463ffffffff811694860194909452600160201b90930481166060850152600390910154166080830152908352909201910161113b565b50505050905090565b600481815481106111cc57600080fd5b9060005260206000209060089182820401919006600402915054906101000a900463ffffffff1681565b600354600160201b810463ffffffff9081169116146112715760405162461bcd60e51b815260206004820152603160248201527f5369646520436861696e206c6f636b20616464726573732063616e206f6e6c796044820152701031329039b2ba1036b0b4b731b430b4b760791b60648201526084016107b2565b600680546001600160a01b039384166001600160a01b0319918216179091556000805460078054948616948416949094179093559490921663ffffffff909316600160a01b029091166001600160c01b031990911617179055565b610e8081611de0565b60006602ed57011e0000601f1936013581161480611306576040516373bb264f60e11b815260040160405180910390fd5b6000366029111561132a57604051632bcb7bc560e11b815260040160405180910390fd5b5060281936013560006009611345600362ffffff8516612feb565b61134f9190612feb565b90503661135d600283612feb565b111561137c5760405163c30a7bd760e01b815260040160405180910390fd5b9392505050565b600080611391602084612feb565b9050368111156113b457604051632bcb7bc560e11b815260040160405180910390fd5b36033592915050565b60008060006113cb84611e64565b9092509050604e6113dd826020612feb565b6113e79084613011565b6113f19190612feb565b949350505050565b8151602083015160016000838152600c602052604090206001015460ff16600381111561142857611428612981565b148061145757506000828152600c602052604081206001015460ff16600381111561145557611455612981565b145b6114a35760405162461bcd60e51b815260206004820152601a60248201527f5661756c74206973206e6f74206f70656e206f7220656d70747900000000000060448201526064016107b2565b60035463ffffffff8481169116146115115760405162461bcd60e51b815260206004820152602b60248201527f436861696e496420646f6573206e6f74206d617463682074686520636f6e747260448201526a1858dd0818da185a5b925960aa1b60648201526084016107b2565b6000828152600c602052604081206001015460ff16600381111561153757611537612981565b036116d35760005b6001548110156116b357600c60008481526020019081526020016000206000016040518060a001604052806001848154811061157d5761157d612f3d565b600091825260208083206004909202909101546001600160a01b0316835282015260018054604090920191859081106115b8576115b8612f3d565b600091825260208083206002600490930201919091015463ffffffff16835282015260018054604090920191859081106115f4576115f4612f3d565b60009182526020808320600360049384029091018101546001600160a01b039081169095528654600181810189559785529382902086519490930290920180549385166001600160a01b03199485161781559085015195810195909555604084015160028601805460608701518616600160201b026001600160c01b031990911663ffffffff909316929092179190911790556080909301519390920180549390911692909116919091179055806116ab81612f69565b91505061153f565b506000828152600c602052604090206001908101805460ff191690911790555b60005b8151811015611cfd578363ffffffff168282815181106116f8576116f8612f3d565b60200260200101516040015163ffffffff161461177d5760405162461bcd60e51b815260206004820152603860248201527f546f6b656e20636861696e496420646f6573206e6f74206d617463682074686560448201527f20636861696e4964206f662074686520636f6e7472616374000000000000000060648201526084016107b2565b6002600083838151811061179357611793612f3d565b6020026020010151600001516001600160a01b03166001600160a01b0316815260200190815260200160002060010154600c600085815260200190815260200160002060000182815481106117ea576117ea612f3d565b90600052602060002090600402016001015483838151811061180e5761180e612f3d565b6020026020010151602001516118249190612feb565b11156118855760405162461bcd60e51b815260206004820152602a60248201527f546f6b656e207175616e746974792065786365656473207468652072657175696044820152691c995908185b5bdd5b9d60b21b60648201526084016107b2565b60006118a983838151811061189c5761189c612f3d565b6020026020010151610e83565b90508463ffffffff168383815181106118c4576118c4612f3d565b60200260200101516040015163ffffffff16036119c0578282815181106118ed576118ed612f3d565b6020026020010151600001516001600160a01b03166323b872dd84848151811061191957611919612f3d565b6020026020010151606001513086868151811061193857611938612f3d565b60209081029190910181015101516040516001600160e01b031960e086901b1681526001600160a01b03938416600482015292909116602483015260448201526064016020604051808303816000875af115801561199a573d6000803e3d6000fd5b505050506040513d601f19601f820116820180604052508101906119be9190612f82565b505b8282815181106119d2576119d2612f3d565b602002602001015160200151600c60008681526020019081526020016000206000018281548110611a0557611a05612f3d565b90600052602060002090600402016001016000828254611a259190612feb565b925050819055507f80590f9d7015c327349ea64242fc29353801fcad956721a0e45f725338db06f484848481518110611a6057611a60612f3d565b602002602001015160000151858581518110611a7e57611a7e612f3d565b602002602001015160200151868681518110611a9c57611a9c612f3d565b602002602001015160400151878781518110611aba57611aba612f3d565b602002602001015160600151604051611b049594939291909485526001600160a01b039384166020860152604085019290925263ffffffff16606084015216608082015260a00190565b60405180910390a160035463ffffffff600160201b82048116911603611cea57600b60008581526020019081526020016000206000848481518110611b4b57611b4b612f3d565b6020026020010151606001516001600160a01b03166001600160a01b0316815260200190815260200160002054600003611be1576000848152600a602052604090208351849084908110611ba157611ba1612f3d565b6020908102919091018101516060015182546001810184556000938452919092200180546001600160a01b0319166001600160a01b039092169190911790555b60408051600680825260e082019092526000916020820160c0803683370190505090506221272160e91b81600081518110611c1e57611c1e612f3d565b6020026020010181815250506000611c3582611ebb565b9050600081600081518110611c4c57611c4c612f3d565b6020026020010151905080868681518110611c6957611c69612f3d565b602002602001015160200151611c7f9190613011565b600b60008981526020019081526020016000206000888881518110611ca657611ca6612f3d565b6020026020010151606001516001600160a01b03166001600160a01b031681526020019081526020016000206000828254611ce19190612feb565b90915550505050505b5080611cf581612f69565b9150506116d6565b5060005b600154811015611d885760018181548110611d1e57611d1e612f3d565b906000526020600020906004020160010154600c60008581526020019081526020016000206000018281548110611d5757611d57612f3d565b9060005260206000209060040201600101541015611d76575050505050565b80611d8081612f69565b915050611d01565b506000828152600c60205260409020600101805460ff1916600217905560035463ffffffff808216600160201b9092041603611dcc57611dc782611ec6565b610bc0565b610bc084612097565b600061105682612186565b6000611dee6103e88361303e565b905080421015611e3057603c611e044283612ffe565b1115611e2c5760405163b6b0916d60e01b8152600481018290524260248201526044016107b2565b5050565b60b4611e3c8242612ffe565b1115611e2c57604051630321d0b560e01b8152600481018290524260248201526044016107b2565b600080808080611e75604187612feb565b90506000611e8e611e87602084612feb565b3690612251565b803594509050611e9f816003612251565b62ffffff9490941697933563ffffffff16965092945050505050565b60606110568261225d565b6000805b6000838152600a6020526040902054811015611f50576000838152600b60209081526040808320600a9092528220805491929184908110611f0d57611f0d612f3d565b60009182526020808320909101546001600160a01b03168352820192909252604001902054611f3c9083612feb565b915080611f4881612f69565b915050611eca565b5060005b6000838152600a6020526040902054811015612092576009546000848152600b60209081526040808320600a9092528220805492938693909291859187908110611fa057611fa0612f3d565b60009182526020808320909101546001600160a01b03168352820192909252604001902054611fcf9190613011565b611fd9919061303e565b6008546000868152600a6020526040902080549293506001600160a01b03909116916340c10f1991908590811061201257612012612f3d565b60009182526020909120015460405160e083901b6001600160e01b03191681526001600160a01b03909116600482015260248101849052604401600060405180830381600087803b15801561206657600080fd5b505af115801561207a573d6000803e3d6000fd5b5050505050808061208a90612f69565b915050611f54565b505050565b6005546006546003546040516001600160a01b03938416936000931691639c42bd1891600160201b90910463ffffffff169085906120d9908890602001613052565b6040516020818303038152906040526040518463ffffffff1660e01b815260040161210693929190612fa4565b602060405180830381865afa158015612123573d6000803e3d6000fd5b505050506040513d601f19601f820116820180604052508101906121479190612fd2565b6006546003546040519293506001600160a01b039091169163fa31de01918491600160201b90910463ffffffff16908690610b50908990602001613052565b600081516000036121aa57604051639e198af960e01b815260040160405180910390fd5b6121b382612421565b6000600283516121c3919061303e565b9050600283516121d39190613077565b60000361222f576000612222846121eb600185612ffe565b815181106121fb576121fb612f3d565b602002602001015185848151811061221557612215612f3d565b6020026020010151612469565b90506113f160028261303e565b82818151811061224157612241612f3d565b6020026020010151915050919050565b600061137c8284612ffe565b60606000825167ffffffffffffffff81111561227b5761227b612ad3565b6040519080825280602002602001820160405280156122a4578160200160208202803683370190505b5090506000835167ffffffffffffffff8111156122c3576122c3612ad3565b6040519080825280602002602001820160405280156122ec578160200160208202803683370190505b5090506000845167ffffffffffffffff81111561230b5761230b612ad3565b60405190808252806020026020018201604052801561233e57816020015b60608152602001906001900390816123295790505b50905060005b855181101561239b5760408051600180825281830190925290602080830190803683370190505082828151811061237d5761237d612f3d565b6020026020010181905250808061239390612f69565b915050612344565b5060006123a66112d5565b905060006123b382611383565b61ffff1690506123c4600283612feb565b60405190925060005b8281101561240a5760006123e48a89898989612475565b90506123f08186612feb565b94508260405250808061240290612f69565b9150506123cd565b50612415848761270e565b98975050505050505050565b8051602082016020820281019150805b82811015610bc057815b81811015612460578151815180821015612456578084528183525b505060200161243b565b50602001612431565b600061137c8284612feb565b60008060008061248485611e64565b909250905060008080606081600d6124a76124a0602089612feb565b8990612827565b6124b19190612feb565b905060006124c3611e8760688d612feb565b905060006124e0836124d660418f612feb565b611e879190612feb565b90506124ec83826124ff565b9350826020850120945081359650612523565b60408051838152602081850181019092526000910183838237601f19019392505050565b6125348765ffffffffffff166112cc565b6125488561254360418f612feb565b612833565b955061255386610764565b60ff1699505050505050505060008060005b848110156126db576125788885836128ab565b909350915060005b8c518110156126c8578c818151811061259b5761259b612f3d565b602002602001015184036126b65760008b82815181106125bd576125bd612f3d565b602002602001015190506125d681896001901b16151590565b1580156125ff5750600160ff168d83815181106125f5576125f5612f3d565b6020026020010151105b156126b0578c828151811061261657612616612f3d565b60200260200101805180919061262b90612f69565b81525050838b838151811061264257612642612f3d565b602002602001015160018f858151811061265e5761265e612f3d565b60200260200101516126709190612ffe565b8151811061268057612680612f3d565b60209081029190910101526001881b81178c83815181106126a3576126a3612f3d565b6020026020010181815250505b506126c8565b806126c081612f69565b915050612580565b50806126d381612f69565b915050612565565b505050816020826126ec9190612feb565b6126f69190613011565b61270190604e612feb565b9998505050505050505050565b60606000835167ffffffffffffffff81111561272c5761272c612ad3565b604051908082528060200260200182016040528015612755578160200160208202803683370190505b509050600160005b855181101561281d578185828151811061277957612779612f3d565b602002602001015110156127c65784818151811061279957612799612f3d565b602002602001015182604051632b13aef560e01b81526004016107b2929190918252602082015260400190565b60006127ea8783815181106127dd576127dd612f3d565b602002602001015161104b565b9050808483815181106127ff576127ff612f3d565b6020908102919091010152508061281581612f69565b91505061275d565b5090949350505050565b600061137c8284613011565b60408051600080825260208083018085528690523685900380850135831a948401859052803560608501819052910135608084018190529193909260019060a0016020604051602081039080840390855afa158015612896573d6000803e3d6000fd5b5050604051601f190151979650505050505050565b600080806128ba604e87612feb565b905060006128e76128e06128cf602089612feb565b6128da886001612feb565b90612827565b8390612469565b905060006128f53683612251565b80359960209091013598509650505050505050565b80356001600160a01b03811681146107bb57600080fd5b6000806040838503121561293457600080fd5b823591506129446020840161290a565b90509250929050565b6000806040838503121561296057600080fd5b8235915060208301356004811061297657600080fd5b809150509250929050565b634e487b7160e01b600052602160045260246000fd5b600481106129b557634e487b7160e01b600052602160045260246000fd5b9052565b6020808252825182820181905260009190848201906040850190845b818110156129f8576129e8838551612997565b92840192918401916001016129d5565b50909695505050505050565b600060208284031215612a1657600080fd5b61137c8261290a565b600060208284031215612a3157600080fd5b5035919050565b803563ffffffff811681146107bb57600080fd5b60008060008060608587031215612a6257600080fd5b612a6b85612a38565b935060208501359250604085013567ffffffffffffffff80821115612a8f57600080fd5b818701915087601f830112612aa357600080fd5b813581811115612ab257600080fd5b886020828501011115612ac457600080fd5b95989497505060200194505050565b634e487b7160e01b600052604160045260246000fd5b6040805190810167ffffffffffffffff81118282101715612b0c57612b0c612ad3565b60405290565b604051601f8201601f1916810167ffffffffffffffff81118282101715612b3b57612b3b612ad3565b604052919050565b600067ffffffffffffffff821115612b5d57612b5d612ad3565b5060051b60200190565b600060a08284031215612b7957600080fd5b60405160a0810181811067ffffffffffffffff82111715612b9c57612b9c612ad3565b604052905080612bab8361290a565b815260208301356020820152612bc360408401612a38565b6040820152612bd46060840161290a565b6060820152612be56080840161290a565b60808201525092915050565b60006020808385031215612c0457600080fd5b823567ffffffffffffffff80821115612c1c57600080fd5b9084019060408287031215612c3057600080fd5b612c38612ae9565b823581528383013582811115612c4d57600080fd5b80840193505086601f840112612c6257600080fd5b82359150612c77612c7283612b43565b612b12565b82815260a09283028401850192858201919089851115612c9657600080fd5b948601945b84861015612cbc57612cad8a87612b67565b83529485019491860191612c9b565b50948201949094529695505050505050565b600060a08284031215612ce057600080fd5b61137c8383612b67565b602081016110568284612997565b600081518084526020808501945080840160005b83811015612d6657815180516001600160a01b03908116895284820151858a015260408083015163ffffffff16908a01526060808301518216908a0152608091820151169088015260a09096019590820190600101612d0c565b509495945050505050565b602081526000825160406020840152612d8d6060840182612cf8565b90506020840151612da16040850182612997565b509392505050565b60006020808385031215612dbc57600080fd5b823567ffffffffffffffff811115612dd357600080fd5b8301601f81018513612de457600080fd5b8035612df2612c7282612b43565b81815260059190911b82018301908381019087831115612e1157600080fd5b928401925b82841015612e2f57833582529284019290840190612e16565b979650505050505050565b600080600060608486031215612e4f57600080fd5b612e588461290a565b9250612e666020850161290a565b9150612e746040850161290a565b90509250925092565b6000815180845260005b81811015612ea357602081850181015186830182015201612e87565b506000602082860101526020601f19601f83011685010191505092915050565b60208152600061137c6020830184612e7d565b60208152600061137c6020830184612cf8565b60008060008060808587031215612eff57600080fd5b612f088561290a565b9350612f1660208601612a38565b9250612f246040860161290a565b9150612f326060860161290a565b905092959194509250565b634e487b7160e01b600052603260045260246000fd5b634e487b7160e01b600052601160045260246000fd5b600060018201612f7b57612f7b612f53565b5060010190565b600060208284031215612f9457600080fd5b8151801515811461137c57600080fd5b63ffffffff84168152826020820152606060408201526000612fc96060830184612e7d565b95945050505050565b600060208284031215612fe457600080fd5b5051919050565b8082018082111561105657611056612f53565b8181038181111561105657611056612f53565b808202811582820484141761105657611056612f53565b634e487b7160e01b600052601260045260246000fd5b60008261304d5761304d613028565b500490565b6020815281516020820152600060208301516040808401526113f16060840182612cf8565b60008261308657613086613028565b50069056fea264697066735822122070a4974cc26a0874769564071cd0d7000db8d24255b0d025212ef51ddad48dc664736f6c63430008110033",
  "devdoc": {
    "kind": "dev",
    "methods": {
      "aggregateValues(uint256[])": {
        "details": "This function may be overridden by the child consumer contract. It should aggregate values from different signers to a single uint value. By default, it calculates the median value",
        "params": {
          "values": "An array of uint256 values from different signers"
        },
        "returns": {
          "_0": "Result of the aggregation in the form of a single number"
        }
      },
      "getDataServiceId()": {
        "details": "This function must be implemented by the child consumer contract. It should return dataServiceId which DataServiceWrapper will use if not provided explicitly . If not overridden, value will always have to be provided explicitly in DataServiceWrapper.",
        "returns": {
          "_0": "dataServiceId being consumed by contract"
        }
      },
      "getUniqueSignersThreshold()": {
        "details": "This function should be overridden by the child consumer contract.",
        "returns": {
          "_0": "The minimum required value of unique authorised signers"
        }
      },
      "validateTimestamp(uint256)": {
        "details": "This function may be overridden by the child consumer contract. It should validate the timestamp against the current time (block.timestamp) It should revert with a helpful message if the timestamp is not valid",
        "params": {
          "receivedTimestampMilliseconds": "Timestamp extracted from calldata"
        }
      }
    },
    "version": 1
  },
  "userdoc": {
    "kind": "user",
    "methods": {},
    "version": 1
  },
  "storageLayout": {
    "storage": [
      {
        "astId": 5790,
        "contract": "contracts/ETFLock.sol:ETFLock",
        "label": "sideChainLock",
        "offset": 0,
        "slot": "0",
        "type": "t_address"
      },
      {
        "astId": 5792,
        "contract": "contracts/ETFLock.sol:ETFLock",
        "label": "sideChainId",
        "offset": 20,
        "slot": "0",
        "type": "t_uint32"
      },
      {
        "astId": 5796,
        "contract": "contracts/ETFLock.sol:ETFLock",
        "label": "requiredTokens",
        "offset": 0,
        "slot": "1",
        "type": "t_array(t_struct(TokenQuantity)5757_storage)dyn_storage"
      },
      {
        "astId": 5801,
        "contract": "contracts/ETFLock.sol:ETFLock",
        "label": "addressToToken",
        "offset": 0,
        "slot": "2",
        "type": "t_mapping(t_address,t_struct(TokenQuantity)5757_storage)"
      },
      {
        "astId": 5803,
        "contract": "contracts/ETFLock.sol:ETFLock",
        "label": "chainId",
        "offset": 0,
        "slot": "3",
        "type": "t_uint32"
      },
      {
        "astId": 5805,
        "contract": "contracts/ETFLock.sol:ETFLock",
        "label": "mainChainId",
        "offset": 4,
        "slot": "3",
        "type": "t_uint32"
      },
      {
        "astId": 5808,
        "contract": "contracts/ETFLock.sol:ETFLock",
        "label": "receivedMessages",
        "offset": 0,
        "slot": "4",
        "type": "t_array(t_uint32)dyn_storage"
      },
      {
        "astId": 5810,
        "contract": "contracts/ETFLock.sol:ETFLock",
        "label": "mainChainLock",
        "offset": 0,
        "slot": "5",
        "type": "t_address"
      },
      {
        "astId": 5813,
        "contract": "contracts/ETFLock.sol:ETFLock",
        "label": "outbox",
        "offset": 0,
        "slot": "6",
        "type": "t_contract(IMailbox)1319"
      },
      {
        "astId": 5816,
        "contract": "contracts/ETFLock.sol:ETFLock",
        "label": "securityModule",
        "offset": 0,
        "slot": "7",
        "type": "t_contract(IInterchainSecurityModule)1145"
      },
      {
        "astId": 5818,
        "contract": "contracts/ETFLock.sol:ETFLock",
        "label": "etfToken",
        "offset": 0,
        "slot": "8",
        "type": "t_address"
      },
      {
        "astId": 5820,
        "contract": "contracts/ETFLock.sol:ETFLock",
        "label": "etfTokenPerVault",
        "offset": 0,
        "slot": "9",
        "type": "t_uint256"
      },
      {
        "astId": 5825,
        "contract": "contracts/ETFLock.sol:ETFLock",
        "label": "contributorsByVault",
        "offset": 0,
        "slot": "10",
        "type": "t_mapping(t_uint256,t_array(t_address)dyn_storage)"
      },
      {
        "astId": 5831,
        "contract": "contracts/ETFLock.sol:ETFLock",
        "label": "accountContributionsPerVault",
        "offset": 0,
        "slot": "11",
        "type": "t_mapping(t_uint256,t_mapping(t_address,t_uint256))"
      },
      {
        "astId": 5848,
        "contract": "contracts/ETFLock.sol:ETFLock",
        "label": "vaults",
        "offset": 0,
        "slot": "12",
        "type": "t_mapping(t_uint256,t_struct(Vault)5765_storage)"
      }
    ],
    "types": {
      "t_address": {
        "encoding": "inplace",
        "label": "address",
        "numberOfBytes": "20"
      },
      "t_array(t_address)dyn_storage": {
        "base": "t_address",
        "encoding": "dynamic_array",
        "label": "address[]",
        "numberOfBytes": "32"
      },
      "t_array(t_struct(TokenQuantity)5757_storage)dyn_storage": {
        "base": "t_struct(TokenQuantity)5757_storage",
        "encoding": "dynamic_array",
        "label": "struct TokenQuantity[]",
        "numberOfBytes": "32"
      },
      "t_array(t_uint32)dyn_storage": {
        "base": "t_uint32",
        "encoding": "dynamic_array",
        "label": "uint32[]",
        "numberOfBytes": "32"
      },
      "t_contract(IInterchainSecurityModule)1145": {
        "encoding": "inplace",
        "label": "contract IInterchainSecurityModule",
        "numberOfBytes": "20"
      },
      "t_contract(IMailbox)1319": {
        "encoding": "inplace",
        "label": "contract IMailbox",
        "numberOfBytes": "20"
      },
      "t_enum(VaultState)5770": {
        "encoding": "inplace",
        "label": "enum VaultState",
        "numberOfBytes": "1"
      },
      "t_mapping(t_address,t_struct(TokenQuantity)5757_storage)": {
        "encoding": "mapping",
        "key": "t_address",
        "label": "mapping(address => struct TokenQuantity)",
        "numberOfBytes": "32",
        "value": "t_struct(TokenQuantity)5757_storage"
      },
      "t_mapping(t_address,t_uint256)": {
        "encoding": "mapping",
        "key": "t_address",
        "label": "mapping(address => uint256)",
        "numberOfBytes": "32",
        "value": "t_uint256"
      },
      "t_mapping(t_uint256,t_array(t_address)dyn_storage)": {
        "encoding": "mapping",
        "key": "t_uint256",
        "label": "mapping(uint256 => address[])",
        "numberOfBytes": "32",
        "value": "t_array(t_address)dyn_storage"
      },
      "t_mapping(t_uint256,t_mapping(t_address,t_uint256))": {
        "encoding": "mapping",
        "key": "t_uint256",
        "label": "mapping(uint256 => mapping(address => uint256))",
        "numberOfBytes": "32",
        "value": "t_mapping(t_address,t_uint256)"
      },
      "t_mapping(t_uint256,t_struct(Vault)5765_storage)": {
        "encoding": "mapping",
        "key": "t_uint256",
        "label": "mapping(uint256 => struct Vault)",
        "numberOfBytes": "32",
        "value": "t_struct(Vault)5765_storage"
      },
      "t_struct(TokenQuantity)5757_storage": {
        "encoding": "inplace",
        "label": "struct TokenQuantity",
        "members": [
          {
            "astId": 5748,
            "contract": "contracts/ETFLock.sol:ETFLock",
            "label": "_address",
            "offset": 0,
            "slot": "0",
            "type": "t_address"
          },
          {
            "astId": 5750,
            "contract": "contracts/ETFLock.sol:ETFLock",
            "label": "_quantity",
            "offset": 0,
            "slot": "1",
            "type": "t_uint256"
          },
          {
            "astId": 5752,
            "contract": "contracts/ETFLock.sol:ETFLock",
            "label": "_chainId",
            "offset": 0,
            "slot": "2",
            "type": "t_uint32"
          },
          {
            "astId": 5754,
            "contract": "contracts/ETFLock.sol:ETFLock",
            "label": "_contributor",
            "offset": 4,
            "slot": "2",
            "type": "t_address"
          },
          {
            "astId": 5756,
            "contract": "contracts/ETFLock.sol:ETFLock",
            "label": "_aggregator",
            "offset": 0,
            "slot": "3",
            "type": "t_address"
          }
        ],
        "numberOfBytes": "128"
      },
      "t_struct(Vault)5765_storage": {
        "encoding": "inplace",
        "label": "struct Vault",
        "members": [
          {
            "astId": 5761,
            "contract": "contracts/ETFLock.sol:ETFLock",
            "label": "_tokens",
            "offset": 0,
            "slot": "0",
            "type": "t_array(t_struct(TokenQuantity)5757_storage)dyn_storage"
          },
          {
            "astId": 5764,
            "contract": "contracts/ETFLock.sol:ETFLock",
            "label": "state",
            "offset": 0,
            "slot": "1",
            "type": "t_enum(VaultState)5770"
          }
        ],
        "numberOfBytes": "64"
      },
      "t_uint256": {
        "encoding": "inplace",
        "label": "uint256",
        "numberOfBytes": "32"
      },
      "t_uint32": {
        "encoding": "inplace",
        "label": "uint32",
        "numberOfBytes": "4"
      }
    }
  }
}