{
  "address": "0xa7fC563eFa7f2B737E41Bf975e6cF1D46f0E4Ed8",
  "abi": [
    {
      "inputs": [],
      "stateMutability": "nonpayable",
      "type": "constructor"
    },
    {
      "anonymous": false,
      "inputs": [
        {
          "indexed": true,
          "internalType": "uint64",
          "name": "id",
          "type": "uint64"
        },
        {
          "indexed": false,
          "internalType": "string",
          "name": "name",
          "type": "string"
        },
        {
          "indexed": false,
          "internalType": "string",
          "name": "symbol",
          "type": "string"
        }
      ],
      "name": "CurrencyAdded",
      "type": "event"
    },
    {
      "anonymous": false,
      "inputs": [
        {
          "indexed": true,
          "internalType": "uint64",
          "name": "id",
          "type": "uint64"
        },
        {
          "indexed": false,
          "internalType": "bool",
          "name": "state",
          "type": "bool"
        }
      ],
      "name": "CurrencyStateChanged",
      "type": "event"
    },
    {
      "anonymous": false,
      "inputs": [
        {
          "indexed": true,
          "internalType": "uint64",
          "name": "id",
          "type": "uint64"
        },
        {
          "indexed": false,
          "internalType": "string",
          "name": "name",
          "type": "string"
        },
        {
          "indexed": false,
          "internalType": "string",
          "name": "symbol",
          "type": "string"
        }
      ],
      "name": "CurrencyUpdated",
      "type": "event"
    },
    {
      "anonymous": false,
      "inputs": [
        {
          "indexed": true,
          "internalType": "address",
          "name": "previousOwner",
          "type": "address"
        },
        {
          "indexed": true,
          "internalType": "address",
          "name": "newOwner",
          "type": "address"
        }
      ],
      "name": "OwnershipTransferred",
      "type": "event"
    },
    {
      "anonymous": false,
      "inputs": [
        {
          "indexed": true,
          "internalType": "uint64",
          "name": "id",
          "type": "uint64"
        },
        {
          "indexed": false,
          "internalType": "uint256",
          "name": "price",
          "type": "uint256"
        }
      ],
      "name": "PriceUpdated",
      "type": "event"
    },
    {
      "inputs": [
        {
          "internalType": "string",
          "name": "name",
          "type": "string"
        },
        {
          "internalType": "string",
          "name": "symbol",
          "type": "string"
        }
      ],
      "name": "addCurrency",
      "outputs": [],
      "stateMutability": "nonpayable",
      "type": "function"
    },
    {
      "inputs": [
        {
          "internalType": "uint64",
          "name": "id",
          "type": "uint64"
        },
        {
          "internalType": "bool",
          "name": "state",
          "type": "bool"
        }
      ],
      "name": "changeCurrencyState",
      "outputs": [],
      "stateMutability": "nonpayable",
      "type": "function"
    },
    {
      "inputs": [
        {
          "internalType": "string",
          "name": "symbol",
          "type": "string"
        }
      ],
      "name": "getCurrencyID",
      "outputs": [
        {
          "internalType": "uint64",
          "name": "",
          "type": "uint64"
        },
        {
          "internalType": "bool",
          "name": "",
          "type": "bool"
        }
      ],
      "stateMutability": "view",
      "type": "function"
    },
    {
      "inputs": [
        {
          "internalType": "uint64",
          "name": "id",
          "type": "uint64"
        }
      ],
      "name": "getCurrencyMetadata",
      "outputs": [
        {
          "components": [
            {
              "internalType": "string",
              "name": "name",
              "type": "string"
            },
            {
              "internalType": "string",
              "name": "symbol",
              "type": "string"
            }
          ],
          "internalType": "struct Quasar.Currency",
          "name": "",
          "type": "tuple"
        }
      ],
      "stateMutability": "view",
      "type": "function"
    },
    {
      "inputs": [],
      "name": "getNextID",
      "outputs": [
        {
          "internalType": "uint64",
          "name": "",
          "type": "uint64"
        }
      ],
      "stateMutability": "view",
      "type": "function"
    },
    {
      "inputs": [
        {
          "internalType": "uint64",
          "name": "id",
          "type": "uint64"
        }
      ],
      "name": "getPrice",
      "outputs": [
        {
          "internalType": "uint256",
          "name": "",
          "type": "uint256"
        }
      ],
      "stateMutability": "view",
      "type": "function"
    },
    {
      "inputs": [],
      "name": "getSupportedCurrencies",
      "outputs": [
        {
          "components": [
            {
              "internalType": "string",
              "name": "name",
              "type": "string"
            },
            {
              "internalType": "string",
              "name": "symbol",
              "type": "string"
            }
          ],
          "internalType": "struct Quasar.Currency[]",
          "name": "",
          "type": "tuple[]"
        },
        {
          "internalType": "bool[]",
          "name": "",
          "type": "bool[]"
        }
      ],
      "stateMutability": "view",
      "type": "function"
    },
    {
      "inputs": [
        {
          "internalType": "uint64",
          "name": "id",
          "type": "uint64"
        }
      ],
      "name": "isCurrencySupported",
      "outputs": [
        {
          "internalType": "bool",
          "name": "",
          "type": "bool"
        }
      ],
      "stateMutability": "view",
      "type": "function"
    },
    {
      "inputs": [],
      "name": "owner",
      "outputs": [
        {
          "internalType": "address",
          "name": "",
          "type": "address"
        }
      ],
      "stateMutability": "view",
      "type": "function"
    },
    {
      "inputs": [
        {
          "internalType": "uint64",
          "name": "id",
          "type": "uint64"
        },
        {
          "internalType": "uint256",
          "name": "price",
          "type": "uint256"
        }
      ],
      "name": "pushPrice",
      "outputs": [],
      "stateMutability": "nonpayable",
      "type": "function"
    },
    {
      "inputs": [],
      "name": "renounceOwnership",
      "outputs": [],
      "stateMutability": "nonpayable",
      "type": "function"
    },
    {
      "inputs": [
        {
          "internalType": "address",
          "name": "newOwner",
          "type": "address"
        }
      ],
      "name": "transferOwnership",
      "outputs": [],
      "stateMutability": "nonpayable",
      "type": "function"
    },
    {
      "inputs": [
        {
          "internalType": "uint64",
          "name": "id",
          "type": "uint64"
        },
        {
          "internalType": "string",
          "name": "name",
          "type": "string"
        },
        {
          "internalType": "string",
          "name": "symbol",
          "type": "string"
        }
      ],
      "name": "updateCurrency",
      "outputs": [],
      "stateMutability": "nonpayable",
      "type": "function"
    }
  ],
  "transactionHash": "0xf7da95473a1369df8a5228c5bf8e0644d37bba12f80f02722f6f567f681ba8cb",
  "args": [],
  "numDeployments": 2,
  "solcInputHash": "79d6541e189c3b8764f07ec13b2c944c",
  "bytecode": "0x608060405234801561001057600080fd5b5061001a33610038565b60008054600160a01b600160e01b031916600160a01b179055610088565b600080546001600160a01b038381166001600160a01b0319831681178455604051919092169283917f8be0079c531659141344cd1fd0a4f28419497f9722a3daafe3b4186f6b6457e09190a35050565b6114e2806100976000396000f3fe608060405234801561001057600080fd5b50600436106100cf5760003560e01c806379e6c42a1161008c578063abc5e6a611610066578063abc5e6a6146101dc578063ce36ad73146101ef578063f2fde38b14610202578063fd30e0a01461021557600080fd5b806379e6c42a1461019b578063861d0d35146101ae5780638da5cb5b146101c157600080fd5b8063184ca4f2146100d45780631c3fcee0146100fd5780632b0b086e1461012f5780632ce758631461015a578063520bcf4b14610170578063715018a614610191575b600080fd5b6100e76100e2366004610e32565b610251565b6040516100f49190610ed1565b60405180910390f35b61011061010b366004610f86565b6103b1565b604080516001600160401b0390931683529015156020830152016100f4565b600054600160a01b90046001600160401b03166040516001600160401b0390911681526020016100f4565b6101626104bc565b6040516100f4929190610fc2565b61018361017e366004610e32565b6107df565b6040519081526020016100f4565b610199610857565b005b6101996101a936600461105f565b61086b565b6101996101bc366004611089565b610904565b6000546040516001600160a01b0390911681526020016100f4565b6101996101ea3660046110c5565b6109b9565b6101996101fd366004611138565b610b2d565b61019961021036600461119b565b610cc3565b610241610223366004610e32565b6001600160401b031660009081526003602052604090205460ff1690565b60405190151581526020016100f4565b60408051808201909152606080825260208201526001600160401b038216600090815260016020526040908190208151808301909252805482908290610296906111c4565b80601f01602080910402602001604051908101604052809291908181526020018280546102c2906111c4565b801561030f5780601f106102e45761010080835404028352916020019161030f565b820191906000526020600020905b8154815290600101906020018083116102f257829003601f168201915b50505050508152602001600182018054610328906111c4565b80601f0160208091040260200160405190810160405280929190818152602001828054610354906111c4565b80156103a15780601f10610376576101008083540402835291602001916103a1565b820191906000526020600020905b81548152906001019060200180831161038457829003601f168201915b5050505050815250509050919050565b60008060005b6000546001600160401b03600160a01b909104811690821610156104b057836040516020016103e691906111fe565b604051602081830303815290604052805190602001206001600083600161040d9190611227565b6001600160401b03166001600160401b03168152602001908152602001600020600101604051602001610440919061124e565b604051602081830303815290604052805190602001200361049e57610466816001611227565b60036000610475846001611227565b6001600160401b03168152602081019190915260400160002054909560ff909116945092505050565b806104a8816112d9565b9150506103b7565b50600093849350915050565b6000805460609182916104e190600190600160a01b90046001600160401b03166112ff565b6001600160401b03166001600160401b0381111561050157610501610ee4565b60405190808252806020026020018201604052801561054657816020015b604080518082019091526060808252602082015281526020019060019003908161051f5790505b50600080549192509061056b90600190600160a01b90046001600160401b03166112ff565b6001600160401b03166001600160401b0381111561058b5761058b610ee4565b6040519080825280602002602001820160405280156105b4578160200160208202803683370190505b50905060005b6000546001600160401b03600160a01b909104811690821610156107d557600160006105e68383611227565b6001600160401b03166001600160401b03168152602001908152602001600020604051806040016040529081600082018054610621906111c4565b80601f016020809104026020016040519081016040528092919081815260200182805461064d906111c4565b801561069a5780601f1061066f5761010080835404028352916020019161069a565b820191906000526020600020905b81548152906001019060200180831161067d57829003601f168201915b505050505081526020016001820180546106b3906111c4565b80601f01602080910402602001604051908101604052809291908181526020018280546106df906111c4565b801561072c5780601f106107015761010080835404028352916020019161072c565b820191906000526020600020905b81548152906001019060200180831161070f57829003601f168201915b50505050508152505083826001600160401b0316815181106107505761075061131f565b60209081029190910101526003600061076a836001611227565b6001600160401b03166001600160401b0316815260200190815260200160002060009054906101000a900460ff1682826001600160401b0316815181106107b3576107b361131f565b91151560209283029190910190910152806107cd816112d9565b9150506105ba565b5090939092509050565b60006107ea82610d3c565b61083b5760405162461bcd60e51b815260206004820152601f60248201527f5175617361723a2063757272656e637920646f6573206e6f742065786973740060448201526064015b60405180910390fd5b506001600160401b031660009081526002602052604090205490565b61085f610d6c565b6108696000610dc6565b565b610873610d6c565b6001600160401b03821660009081526003602052604090205460ff166108ab5760405162461bcd60e51b815260040161083290611335565b6001600160401b03821660008181526002602052604090819020839055517f07ff9b8a0601277d4417d6e639b80e205b57cb801379edfda2ab6820e3b7b30e906108f89084815260200190565b60405180910390a25050565b61090c610d6c565b61091582610d3c565b6109615760405162461bcd60e51b815260206004820152601f60248201527f5175617361723a2063757272656e637920646f6573206e6f74206578697374006044820152606401610832565b6001600160401b038216600081815260036020908152604091829020805460ff191685151590811790915591519182527fc491c163d3b6cfb2f97ec0acd164a01b48db3856f076d6079a1b7bd34525197691016108f8565b6109c1610d6c565b6001600160401b03831660009081526003602052604090205460ff166109f95760405162461bcd60e51b815260040161083290611335565b6000825111610a4a5760405162461bcd60e51b815260206004820152601c60248201527f5175617361723a206e616d652063616e6e6f7420626520626c616e6b000000006044820152606401610832565b6000815111610a9b5760405162461bcd60e51b815260206004820152601e60248201527f5175617361723a2073796d626f6c2063616e6e6f7420626520626c616e6b00006044820152606401610832565b6001600160401b0383166000908152600160205260409020610abd83826113c8565b506001600160401b038316600090815260016020819052604090912001610ae482826113c8565b50826001600160401b03167fc6b670b7657fbec139696e713de6494d3f00f0dcd52fba8b368bc306a33a6b688383604051610b20929190611487565b60405180910390a2505050565b610b35610d6c565b6000825111610b865760405162461bcd60e51b815260206004820152601c60248201527f5175617361723a206e616d652063616e6e6f7420626520626c616e6b000000006044820152606401610832565b6000815111610bd75760405162461bcd60e51b815260206004820152601e60248201527f5175617361723a2073796d626f6c2063616e6e6f7420626520626c616e6b00006044820152606401610832565b600080546040805180820182528581526020808201869052600160a01b9093046001600160401b03168085526001909352922082519192918190610c1b90826113c8565b5060208201516001820190610c3090826113c8565b505060008054600160a01b90046001600160401b031691506014610c53836112d9565b82546101009290920a6001600160401b03818102199093169183160217909155821660008181526003602052604090819020805460ff19166001179055519091507fad343e4211b41810d43dbf7ba860cd361ec4e7ecfeba134b4306a3251a35e3e890610b209086908690611487565b610ccb610d6c565b6001600160a01b038116610d305760405162461bcd60e51b815260206004820152602660248201527f4f776e61626c653a206e6577206f776e657220697320746865207a65726f206160448201526564647265737360d01b6064820152608401610832565b610d3981610dc6565b50565b6001600160401b03811660009081526001602052604081208054829190610d62906111c4565b9050119050919050565b6000546001600160a01b031633146108695760405162461bcd60e51b815260206004820181905260248201527f4f776e61626c653a2063616c6c6572206973206e6f7420746865206f776e65726044820152606401610832565b600080546001600160a01b038381166001600160a01b0319831681178455604051919092169283917f8be0079c531659141344cd1fd0a4f28419497f9722a3daafe3b4186f6b6457e09190a35050565b80356001600160401b0381168114610e2d57600080fd5b919050565b600060208284031215610e4457600080fd5b610e4d82610e16565b9392505050565b6000815180845260005b81811015610e7a57602081850181015186830182015201610e5e565b506000602082860101526020601f19601f83011685010191505092915050565b6000815160408452610eaf6040850182610e54565b905060208301518482036020860152610ec88282610e54565b95945050505050565b602081526000610e4d6020830184610e9a565b634e487b7160e01b600052604160045260246000fd5b600082601f830112610f0b57600080fd5b81356001600160401b0380821115610f2557610f25610ee4565b604051601f8301601f19908116603f01168101908282118183101715610f4d57610f4d610ee4565b81604052838152866020858801011115610f6657600080fd5b836020870160208301376000602085830101528094505050505092915050565b600060208284031215610f9857600080fd5b81356001600160401b03811115610fae57600080fd5b610fba84828501610efa565b949350505050565b6000604082016040835280855180835260608501915060608160051b8601019250602080880160005b8381101561101957605f19888703018552611007868351610e9a565b95509382019390820190600101610feb565b50508584038187015286518085528782019482019350915060005b82811015611052578451151584529381019392810192600101611034565b5091979650505050505050565b6000806040838503121561107257600080fd5b61107b83610e16565b946020939093013593505050565b6000806040838503121561109c57600080fd5b6110a583610e16565b9150602083013580151581146110ba57600080fd5b809150509250929050565b6000806000606084860312156110da57600080fd5b6110e384610e16565b925060208401356001600160401b03808211156110ff57600080fd5b61110b87838801610efa565b9350604086013591508082111561112157600080fd5b5061112e86828701610efa565b9150509250925092565b6000806040838503121561114b57600080fd5b82356001600160401b038082111561116257600080fd5b61116e86838701610efa565b9350602085013591508082111561118457600080fd5b5061119185828601610efa565b9150509250929050565b6000602082840312156111ad57600080fd5b81356001600160a01b0381168114610e4d57600080fd5b600181811c908216806111d857607f821691505b6020821081036111f857634e487b7160e01b600052602260045260246000fd5b50919050565b602081526000610e4d6020830184610e54565b634e487b7160e01b600052601160045260246000fd5b6001600160401b0381811683821601908082111561124757611247611211565b5092915050565b6000602080835260008454611262816111c4565b80848701526040600180841660008114611283576001811461129d576112cb565b60ff1985168984015283151560051b8901830195506112cb565b896000528660002060005b858110156112c35781548b82018601529083019088016112a8565b8a0184019650505b509398975050505050505050565b60006001600160401b038083168181036112f5576112f5611211565b6001019392505050565b6001600160401b0382811682821603908082111561124757611247611211565b634e487b7160e01b600052603260045260246000fd5b60208082526024908201527f5175617361723a2063757272656e63792073686f756c6420626520737570706f6040820152631c9d195960e21b606082015260800190565b601f8211156113c357600081815260208120601f850160051c810160208610156113a05750805b601f850160051c820191505b818110156113bf578281556001016113ac565b5050505b505050565b81516001600160401b038111156113e1576113e1610ee4565b6113f5816113ef84546111c4565b84611379565b602080601f83116001811461142a57600084156114125750858301515b600019600386901b1c1916600185901b1785556113bf565b600085815260208120601f198616915b828110156114595788860151825594840194600190910190840161143a565b50858210156114775787850151600019600388901b60f8161c191681555b5050505050600190811b01905550565b60408152600061149a6040830185610e54565b8281036020840152610ec88185610e5456fea2646970667358221220d4a4ca2be78e27c4594aaab068ddaf729f16737a7aa3d740ed761f47ba98695f64736f6c63430008110033",
  "devdoc": {
    "kind": "dev",
    "methods": {
      "owner()": {
        "details": "Returns the address of the current owner."
      },
      "renounceOwnership()": {
        "details": "Leaves the contract without owner. It will not be possible to call `onlyOwner` functions anymore. Can only be called by the current owner. NOTE: Renouncing ownership will leave the contract without an owner, thereby removing any functionality that is only available to the owner."
      },
      "transferOwnership(address)": {
        "details": "Transfers ownership of the contract to a new account (`newOwner`). Can only be called by the current owner."
      }
    },
    "version": 1
  },
  "userdoc": {
    "kind": "user",
    "methods": {},
    "version": 1
  },
  "storageLayout": {
    "storage": [
      {
        "astId": 301,
        "contract": "contracts/Quasar.sol:Quasar",
        "label": "_owner",
        "offset": 0,
        "slot": "0",
        "type": "t_address"
      },
      {
        "astId": 2411,
        "contract": "contracts/Quasar.sol:Quasar",
        "label": "_nextID",
        "offset": 20,
        "slot": "0",
        "type": "t_uint64"
      },
      {
        "astId": 2421,
        "contract": "contracts/Quasar.sol:Quasar",
        "label": "_currencies",
        "offset": 0,
        "slot": "1",
        "type": "t_mapping(t_uint64,t_struct(Currency)2416_storage)"
      },
      {
        "astId": 2425,
        "contract": "contracts/Quasar.sol:Quasar",
        "label": "_currencyPrices",
        "offset": 0,
        "slot": "2",
        "type": "t_mapping(t_uint64,t_uint256)"
      },
      {
        "astId": 2429,
        "contract": "contracts/Quasar.sol:Quasar",
        "label": "_isCurrencySupported",
        "offset": 0,
        "slot": "3",
        "type": "t_mapping(t_uint64,t_bool)"
      }
    ],
    "types": {
      "t_address": {
        "encoding": "inplace",
        "label": "address",
        "numberOfBytes": "20"
      },
      "t_bool": {
        "encoding": "inplace",
        "label": "bool",
        "numberOfBytes": "1"
      },
      "t_mapping(t_uint64,t_bool)": {
        "encoding": "mapping",
        "key": "t_uint64",
        "label": "mapping(uint64 => bool)",
        "numberOfBytes": "32",
        "value": "t_bool"
      },
      "t_mapping(t_uint64,t_struct(Currency)2416_storage)": {
        "encoding": "mapping",
        "key": "t_uint64",
        "label": "mapping(uint64 => struct Quasar.Currency)",
        "numberOfBytes": "32",
        "value": "t_struct(Currency)2416_storage"
      },
      "t_mapping(t_uint64,t_uint256)": {
        "encoding": "mapping",
        "key": "t_uint64",
        "label": "mapping(uint64 => uint256)",
        "numberOfBytes": "32",
        "value": "t_uint256"
      },
      "t_string_storage": {
        "encoding": "bytes",
        "label": "string",
        "numberOfBytes": "32"
      },
      "t_struct(Currency)2416_storage": {
        "encoding": "inplace",
        "label": "struct Quasar.Currency",
        "members": [
          {
            "astId": 2413,
            "contract": "contracts/Quasar.sol:Quasar",
            "label": "name",
            "offset": 0,
            "slot": "0",
            "type": "t_string_storage"
          },
          {
            "astId": 2415,
            "contract": "contracts/Quasar.sol:Quasar",
            "label": "symbol",
            "offset": 0,
            "slot": "1",
            "type": "t_string_storage"
          }
        ],
        "numberOfBytes": "64"
      },
      "t_uint256": {
        "encoding": "inplace",
        "label": "uint256",
        "numberOfBytes": "32"
      },
      "t_uint64": {
        "encoding": "inplace",
        "label": "uint64",
        "numberOfBytes": "8"
      }
    }
  }
}