{
  "address": "0x8663e490E2d016889E23F5e29Aa54937C73dff13",
  "abi": [
    {
      "inputs": [
        {
          "internalType": "uint32",
          "name": "_mainChain",
          "type": "uint32"
        },
        {
          "internalType": "uint32",
          "name": "_chainId",
          "type": "uint32"
        },
        {
          "components": [
            {
              "internalType": "address",
              "name": "_address",
              "type": "address"
            },
            {
              "internalType": "uint256",
              "name": "_quantity",
              "type": "uint256"
            },
            {
              "internalType": "uint32",
              "name": "_chainId",
              "type": "uint32"
            },
            {
              "internalType": "address",
              "name": "_contributor",
              "type": "address"
            },
            {
              "internalType": "address",
              "name": "_aggregator",
              "type": "address"
            }
          ],
          "internalType": "struct TokenQuantity[]",
          "name": "_requiredTokens",
          "type": "tuple[]"
        },
        {
          "internalType": "address",
          "name": "_etfToken",
          "type": "address"
        },
        {
          "internalType": "uint256",
          "name": "_etfTokenPerVault",
          "type": "uint256"
        }
      ],
      "stateMutability": "nonpayable",
      "type": "constructor"
    },
    {
      "anonymous": false,
      "inputs": [
        {
          "indexed": false,
          "internalType": "uint256",
          "name": "_vaultId",
          "type": "uint256"
        },
        {
          "indexed": false,
          "internalType": "address",
          "name": "_address",
          "type": "address"
        },
        {
          "indexed": false,
          "internalType": "uint256",
          "name": "_quantity",
          "type": "uint256"
        },
        {
          "indexed": false,
          "internalType": "uint32",
          "name": "_chainId",
          "type": "uint32"
        },
        {
          "indexed": false,
          "internalType": "address",
          "name": "_contributor",
          "type": "address"
        }
      ],
      "name": "Deposit",
      "type": "event"
    },
    {
      "inputs": [
        {
          "internalType": "uint256",
          "name": "",
          "type": "uint256"
        },
        {
          "internalType": "address",
          "name": "",
          "type": "address"
        }
      ],
      "name": "accountContributionsPerVault",
      "outputs": [
        {
          "internalType": "uint256",
          "name": "",
          "type": "uint256"
        }
      ],
      "stateMutability": "view",
      "type": "function"
    },
    {
      "inputs": [
        {
          "internalType": "address",
          "name": "",
          "type": "address"
        }
      ],
      "name": "addressToToken",
      "outputs": [
        {
          "internalType": "address",
          "name": "_address",
          "type": "address"
        },
        {
          "internalType": "uint256",
          "name": "_quantity",
          "type": "uint256"
        },
        {
          "internalType": "uint32",
          "name": "_chainId",
          "type": "uint32"
        },
        {
          "internalType": "address",
          "name": "_contributor",
          "type": "address"
        },
        {
          "internalType": "address",
          "name": "_aggregator",
          "type": "address"
        }
      ],
      "stateMutability": "view",
      "type": "function"
    },
    {
      "inputs": [
        {
          "internalType": "uint256",
          "name": "_vaultId",
          "type": "uint256"
        }
      ],
      "name": "burn",
      "outputs": [],
      "stateMutability": "nonpayable",
      "type": "function"
    },
    {
      "inputs": [],
      "name": "chainId",
      "outputs": [
        {
          "internalType": "uint32",
          "name": "",
          "type": "uint32"
        }
      ],
      "stateMutability": "view",
      "type": "function"
    },
    {
      "inputs": [
        {
          "components": [
            {
              "internalType": "uint256",
              "name": "vaultId",
              "type": "uint256"
            },
            {
              "components": [
                {
                  "internalType": "address",
                  "name": "_address",
                  "type": "address"
                },
                {
                  "internalType": "uint256",
                  "name": "_quantity",
                  "type": "uint256"
                },
                {
                  "internalType": "uint32",
                  "name": "_chainId",
                  "type": "uint32"
                },
                {
                  "internalType": "address",
                  "name": "_contributor",
                  "type": "address"
                },
                {
                  "internalType": "address",
                  "name": "_aggregator",
                  "type": "address"
                }
              ],
              "internalType": "struct TokenQuantity[]",
              "name": "tokens",
              "type": "tuple[]"
            }
          ],
          "internalType": "struct DepositInfo",
          "name": "_depositInfo",
          "type": "tuple"
        }
      ],
      "name": "deposit",
      "outputs": [],
      "stateMutability": "nonpayable",
      "type": "function"
    },
    {
      "inputs": [],
      "name": "etfToken",
      "outputs": [
        {
          "internalType": "address",
          "name": "",
          "type": "address"
        }
      ],
      "stateMutability": "view",
      "type": "function"
    },
    {
      "inputs": [],
      "name": "etfTokenPerVault",
      "outputs": [
        {
          "internalType": "uint256",
          "name": "",
          "type": "uint256"
        }
      ],
      "stateMutability": "view",
      "type": "function"
    },
    {
      "inputs": [],
      "name": "getRequiredTokens",
      "outputs": [
        {
          "components": [
            {
              "internalType": "address",
              "name": "_address",
              "type": "address"
            },
            {
              "internalType": "uint256",
              "name": "_quantity",
              "type": "uint256"
            },
            {
              "internalType": "uint32",
              "name": "_chainId",
              "type": "uint32"
            },
            {
              "internalType": "address",
              "name": "_contributor",
              "type": "address"
            },
            {
              "internalType": "address",
              "name": "_aggregator",
              "type": "address"
            }
          ],
          "internalType": "struct TokenQuantity[]",
          "name": "",
          "type": "tuple[]"
        }
      ],
      "stateMutability": "view",
      "type": "function"
    },
    {
      "inputs": [
        {
          "internalType": "uint256",
          "name": "_vaultId",
          "type": "uint256"
        }
      ],
      "name": "getVault",
      "outputs": [
        {
          "components": [
            {
              "components": [
                {
                  "internalType": "address",
                  "name": "_address",
                  "type": "address"
                },
                {
                  "internalType": "uint256",
                  "name": "_quantity",
                  "type": "uint256"
                },
                {
                  "internalType": "uint32",
                  "name": "_chainId",
                  "type": "uint32"
                },
                {
                  "internalType": "address",
                  "name": "_contributor",
                  "type": "address"
                },
                {
                  "internalType": "address",
                  "name": "_aggregator",
                  "type": "address"
                }
              ],
              "internalType": "struct TokenQuantity[]",
              "name": "_tokens",
              "type": "tuple[]"
            },
            {
              "internalType": "enum VaultState",
              "name": "state",
              "type": "uint8"
            }
          ],
          "internalType": "struct Vault",
          "name": "",
          "type": "tuple"
        }
      ],
      "stateMutability": "view",
      "type": "function"
    },
    {
      "inputs": [],
      "name": "getVaultStates",
      "outputs": [
        {
          "internalType": "enum VaultState[]",
          "name": "",
          "type": "uint8[]"
        }
      ],
      "stateMutability": "view",
      "type": "function"
    },
    {
      "inputs": [
        {
          "internalType": "uint32",
          "name": "_origin",
          "type": "uint32"
        },
        {
          "internalType": "bytes32",
          "name": "_sender",
          "type": "bytes32"
        },
        {
          "internalType": "bytes",
          "name": "_message",
          "type": "bytes"
        }
      ],
      "name": "handle",
      "outputs": [],
      "stateMutability": "payable",
      "type": "function"
    },
    {
      "inputs": [],
      "name": "isMainChain",
      "outputs": [
        {
          "internalType": "bool",
          "name": "",
          "type": "bool"
        }
      ],
      "stateMutability": "view",
      "type": "function"
    },
    {
      "inputs": [],
      "name": "mainChainId",
      "outputs": [
        {
          "internalType": "uint32",
          "name": "",
          "type": "uint32"
        }
      ],
      "stateMutability": "view",
      "type": "function"
    },
    {
      "inputs": [],
      "name": "mainChainLock",
      "outputs": [
        {
          "internalType": "address",
          "name": "",
          "type": "address"
        }
      ],
      "stateMutability": "view",
      "type": "function"
    },
    {
      "inputs": [
        {
          "internalType": "uint256",
          "name": "",
          "type": "uint256"
        }
      ],
      "name": "requiredTokens",
      "outputs": [
        {
          "internalType": "address",
          "name": "_address",
          "type": "address"
        },
        {
          "internalType": "uint256",
          "name": "_quantity",
          "type": "uint256"
        },
        {
          "internalType": "uint32",
          "name": "_chainId",
          "type": "uint32"
        },
        {
          "internalType": "address",
          "name": "_contributor",
          "type": "address"
        },
        {
          "internalType": "address",
          "name": "_aggregator",
          "type": "address"
        }
      ],
      "stateMutability": "view",
      "type": "function"
    },
    {
      "inputs": [
        {
          "internalType": "address",
          "name": "_mainChainLock",
          "type": "address"
        },
        {
          "internalType": "address",
          "name": "_outbox",
          "type": "address"
        },
        {
          "internalType": "address",
          "name": "_securityModule",
          "type": "address"
        }
      ],
      "name": "setSideChainParams",
      "outputs": [],
      "stateMutability": "nonpayable",
      "type": "function"
    },
    {
      "inputs": [
        {
          "internalType": "uint256",
          "name": "_vaultId",
          "type": "uint256"
        },
        {
          "internalType": "enum VaultState",
          "name": "_state",
          "type": "uint8"
        }
      ],
      "name": "setVaultState",
      "outputs": [],
      "stateMutability": "nonpayable",
      "type": "function"
    },
    {
      "inputs": [],
      "name": "sideChainLock",
      "outputs": [
        {
          "internalType": "address",
          "name": "",
          "type": "address"
        }
      ],
      "stateMutability": "view",
      "type": "function"
    },
    {
      "inputs": [
        {
          "internalType": "uint256",
          "name": "",
          "type": "uint256"
        }
      ],
      "name": "vaults",
      "outputs": [
        {
          "internalType": "enum VaultState",
          "name": "state",
          "type": "uint8"
        }
      ],
      "stateMutability": "view",
      "type": "function"
    }
  ],
  "transactionHash": "0xb45b22f5ca4aaffd00bf1144f0d5f28b920abe312264ed2561442e4caf111153",
  "args": [
    128123,
    11155111,
    [
      {
        "_address": "0xA0ac5c99C36128C1De7F88e4f0894D8859Bbc2B2",
        "_quantity": "100000000000000000000",
        "_chainId": 11155111,
        "_contributor": "0x2a1F5eB3e84e58e6F1e565306298B9dE1273f203",
        "_aggregator": "0x0000000000000000000000000000000000000000"
      }
    ],
    "0x0000000000000000000000000000000000000000",
    "100000000000000000000"
  ],
  "numDeployments": 1,
  "solcInputHash": "443d90e3da72e01ac465b0c58ca428b3",
  "bytecode": "0x60806040523480156200001157600080fd5b5060405162002255380380620022558339810160408190526200003491620002dc565b600380546001600160401b03191664010000000063ffffffff8881169190910263ffffffff191691909117908616179055600680546001600160a01b0319166001600160a01b038416179055600781905560005b83518110156200022a576001848281518110620000a957620000a96200043a565b602090810291909101810151825460018082018555600094855293839020825160049092020180546001600160a01b03199081166001600160a01b0393841617825593830151948101949094556040820151600285018054606085015163ffffffff9093166001600160c01b0319909116176401000000009284169290920291909117905560809091015160039093018054909216921691909117905583518490829081106200015d576200015d6200043a565b6020026020010151600260008684815181106200017e576200017e6200043a565b602090810291909101810151516001600160a01b039081168352828201939093526040918201600020845181549085166001600160a01b03199182161782559185015160018201559184015160028301805460608701518616640100000000026001600160c01b031990911663ffffffff909316929092179190911790556080909301516003909101805491909216921691909117905580620002218162000450565b91505062000088565b50505050505062000478565b805163ffffffff811681146200024b57600080fd5b919050565b634e487b7160e01b600052604160045260246000fd5b60405160a081016001600160401b03811182821017156200028b576200028b62000250565b60405290565b604051601f8201601f191681016001600160401b0381118282101715620002bc57620002bc62000250565b604052919050565b80516001600160a01b03811681146200024b57600080fd5b600080600080600060a0808789031215620002f657600080fd5b620003018762000236565b955060206200031281890162000236565b604089810151919750906001600160401b03808211156200033257600080fd5b818b0191508b601f8301126200034757600080fd5b8151818111156200035c576200035c62000250565b6200036c858260051b0162000291565b818152858101925090860283018501908d8211156200038a57600080fd5b928501925b818410156200040f5786848f031215620003a95760008081fd5b620003b362000266565b620003be85620002c4565b81528685015187820152620003d586860162000236565b868201526060620003e8818701620002c4565b908201526080620003fb868201620002c4565b90820152835292860192918501916200038f565b809950505050505050506200042760608701620002c4565b9150608086015190509295509295909350565b634e487b7160e01b600052603260045260246000fd5b6000600182016200047157634e487b7160e01b600052601160045260246000fd5b5060010190565b611dcd80620004886000396000f3fe6080604052600436106101145760003560e01c80636b8cf65e116100a05780639c58a5a4116100645780639c58a5a4146103d4578063b834f6fb146103f4578063b98ee2b614610426578063cca3ce2b14610446578063eb6a9aa01461046857600080fd5b80636b8cf65e146102eb5780638c64ea4a1461032a5780639403b6341461036a578063956a45a6146103975780639a8a0592146103b757600080fd5b8063309bfe4a116100e7578063309bfe4a146101d557806342966c68146101f757806356d5d475146102175780636059f0961461022a57806369abaac91461024a57600080fd5b8063014372eb146101195780630badce41146101645780630f45ad4314610186578063250cab39146101bf575b600080fd5b34801561012557600080fd5b5061015161013436600461174e565b600960209081526000928352604080842090915290825290205481565b6040519081526020015b60405180910390f35b34801561017057600080fd5b5061018461017f36600461177a565b610488565b005b34801561019257600080fd5b506003546101aa90600160201b900463ffffffff1681565b60405163ffffffff909116815260200161015b565b3480156101cb57600080fd5b5061015160075481565b3480156101e157600080fd5b506101ea6104c1565b60405161015b91906117e6565b34801561020357600080fd5b50610184610212366004611831565b610569565b61018461022536600461185e565b610825565b34801561023657600080fd5b50610184610245366004611978565b6108d1565b34801561025657600080fd5b506102ab610265366004611ab5565b600260208190526000918252604090912080546001820154928201546003909201546001600160a01b03918216939263ffffffff811692600160201b9091048116911685565b604080516001600160a01b039687168152602081019590955263ffffffff909316928401929092528316606083015291909116608082015260a00161015b565b3480156102f757600080fd5b5060035461031290600160401b90046001600160a01b031681565b6040516001600160a01b03909116815260200161015b565b34801561033657600080fd5b5061035d610345366004611831565b600a6020526000908152604090206001015460ff1681565b60405161015b9190611ad7565b34801561037657600080fd5b5061038a610385366004611831565b6108e8565b60405161015b9190611b64565b3480156103a357600080fd5b506102ab6103b2366004611831565b6109e9565b3480156103c357600080fd5b506003546101aa9063ffffffff1681565b3480156103e057600080fd5b50600054610312906001600160a01b031681565b34801561040057600080fd5b50600354600160201b810463ffffffff908116911614604051901515815260200161015b565b34801561043257600080fd5b50610184610441366004611b9c565b610a41565b34801561045257600080fd5b5061045b610b0e565b60405161015b9190611bdf565b34801561047457600080fd5b50600654610312906001600160a01b031681565b6000828152600a6020526040902060019081018054839260ff19909116908360038111156104b8576104b86117ae565b02179055505050565b60408051605a808252610b6082019092526060916000919060208201610b408036833701905050905060005b8151811015610563576000818152600a6020526040902060010154825160ff9091169083908390811061052257610522611bf2565b6020026020010190600381111561053b5761053b6117ae565b9081600381111561054e5761054e6117ae565b9052508061055b81611c1e565b9150506104ed565b50919050565b60026000828152600a602052604090206001015460ff166003811115610591576105916117ae565b146105d95760405162461bcd60e51b815260206004820152601360248201527215985d5b1d081a5cc81b9bdd081b5a5b9d1959606a1b60448201526064015b60405180910390fd5b600354600160201b810463ffffffff90811691161461063a5760405162461bcd60e51b815260206004820152601860248201527f4f6e6c79206d61696e20636861696e2063616e206275726e000000000000000060448201526064016105d0565b600654600754604051632770a7eb60e21b815233600482015260248101919091526001600160a01b0390911690639dc29fac90604401600060405180830381600087803b15801561068a57600080fd5b505af115801561069e573d6000803e3d6000fd5b5050505060005b6000828152600a6020526040902054811015610806576003546000838152600a60205260409020805463ffffffff90921691839081106106e7576106e7611bf2565b600091825260209091206002600490920201015463ffffffff16036107f4576000828152600a6020526040902080548290811061072657610726611bf2565b60009182526020808320600490920290910154848352600a909152604090912080546001600160a01b039092169163a9059cbb9133918590811061076c5761076c611bf2565b9060005260206000209060040201600101546040518363ffffffff1660e01b81526004016107af9291906001600160a01b03929092168252602082015260400190565b6020604051808303816000875af11580156107ce573d6000803e3d6000fd5b505050506040513d601f19601f820116820180604052508101906107f29190611c37565b505b806107fe81611c1e565b9150506106a5565b506000908152600a60205260409020600101805460ff19166003179055565b6000546001600160a01b0316836001600160a01b0316146108885760405162461bcd60e51b815260206004820152601f60248201527f53656e646572206973206e6f74207468652073696465436861696e4c6f636b0060448201526064016105d0565b600061089682840184611978565b9050600081602001516000815181106108b1576108b1611bf2565b60200260200101516040015190506108c98282610bb3565b505050505050565b6003546108e590829063ffffffff16610bb3565b50565b6040805180820190915260608152600060208201526000828152600a60209081526040808320815181546060948102820185018452928101838152909491938593919285929185015b828210156109a95760008481526020908190206040805160a0810182526004860290920180546001600160a01b03908116845260018083015485870152600283015463ffffffff811694860194909452600160201b909304811660608501526003909101541660808301529083529092019101610931565b50505090825250600182015460209091019060ff1660038111156109cf576109cf6117ae565b60038111156109e0576109e06117ae565b90525092915050565b600181815481106109f957600080fd5b600091825260209091206004909102018054600182015460028301546003909301546001600160a01b039283169450909263ffffffff811692600160201b9091048116911685565b60035463ffffffff600160201b82048116911603610abd5760405162461bcd60e51b815260206004820152603360248201527f4d61696e20636861696e206c6f636b20616464726573732063616e6e6f742062604482015272329039b2ba1037b71036b0b4b71031b430b4b760691b60648201526084016105d0565b600380546001600160a01b03948516600160401b0268010000000000000000600160e01b0319909116179055600480549284166001600160a01b031993841617905560058054919093169116179055565b60606001805480602002602001604051908101604052809291908181526020016000905b82821015610baa5760008481526020908190206040805160a0810182526004860290920180546001600160a01b03908116845260018083015485870152600283015463ffffffff811694860194909452600160201b909304811660608501526003909101541660808301529083529092019101610b32565b50505050905090565b8151602083015160016000838152600a602052604090206001015460ff166003811115610be257610be26117ae565b1480610c1157506000828152600a602052604081206001015460ff166003811115610c0f57610c0f6117ae565b145b610c5d5760405162461bcd60e51b815260206004820152601a60248201527f5661756c74206973206e6f74206f70656e206f7220656d70747900000000000060448201526064016105d0565b6000828152600a602052604081206001015460ff166003811115610c8357610c836117ae565b03610e1f5760005b600154811015610dff57600a60008481526020019081526020016000206000016040518060a0016040528060018481548110610cc957610cc9611bf2565b600091825260208083206004909202909101546001600160a01b031683528201526001805460409092019185908110610d0457610d04611bf2565b600091825260208083206002600490930201919091015463ffffffff1683528201526001805460409092019185908110610d4057610d40611bf2565b60009182526020808320600360049384029091018101546001600160a01b039081169095528654600181810189559785529382902086519490930290920180549385166001600160a01b03199485161781559085015195810195909555604084015160028601805460608701518616600160201b026001600160c01b031990911663ffffffff90931692909217919091179055608090930151939092018054939091169290911691909117905580610df781611c1e565b915050610c8b565b506000828152600a602052604090206001908101805460ff191690911790555b60005b81518110156112bf57610e8e60405180604001604052806011815260200170546f6b656e20616464726573733a20257360781b815250838381518110610e6a57610e6a611bf2565b602090810291909101810151516000878152600a909252604090912054849061139d565b60026000838381518110610ea457610ea4611bf2565b6020026020010151600001516001600160a01b03166001600160a01b0316815260200190815260200160002060010154600a60008581526020019081526020016000206000018281548110610efb57610efb611bf2565b906000526020600020906004020160010154838381518110610f1f57610f1f611bf2565b602002602001015160200151610f359190611c59565b1115610f965760405162461bcd60e51b815260206004820152602a60248201527f546f6b656e207175616e746974792065786365656473207468652072657175696044820152691c995908185b5bdd5b9d60b21b60648201526084016105d0565b8363ffffffff16828281518110610faf57610faf611bf2565b60200260200101516040015163ffffffff16036110ab57818181518110610fd857610fd8611bf2565b6020026020010151600001516001600160a01b03166323b872dd83838151811061100457611004611bf2565b6020026020010151606001513085858151811061102357611023611bf2565b60209081029190910181015101516040516001600160e01b031960e086901b1681526001600160a01b03938416600482015292909116602483015260448201526064016020604051808303816000875af1158015611085573d6000803e3d6000fd5b505050506040513d601f19601f820116820180604052508101906110a99190611c37565b505b8181815181106110bd576110bd611bf2565b602002602001015160200151600a600085815260200190815260200160002060000182815481106110f0576110f0611bf2565b906000526020600020906004020160010160008282546111109190611c59565b925050819055507f80590f9d7015c327349ea64242fc29353801fcad956721a0e45f725338db06f48383838151811061114b5761114b611bf2565b60200260200101516000015184848151811061116957611169611bf2565b60200260200101516020015185858151811061118757611187611bf2565b6020026020010151604001518686815181106111a5576111a5611bf2565b6020026020010151606001516040516111ef9594939291909485526001600160a01b039384166020860152604085019290925263ffffffff16606084015216608082015260a00190565b60405180910390a160035463ffffffff600160201b820481169116036112ad576000838152600960209081526040808320338452909152812054900361125e5760008381526008602090815260408220805460018101825590835291200180546001600160a01b031916331790555b81818151811061127057611270611bf2565b60209081029190910181015181015160008581526009835260408082203383529093529182208054919290916112a7908490611c59565b90915550505b806112b781611c1e565b915050610e22565b5060005b60015481101561134a57600181815481106112e0576112e0611bf2565b906000526020600020906004020160010154600a6000858152602001908152602001600020600001828154811061131957611319611bf2565b9060005260206000209060040201600101541015611338575050505050565b8061134281611c1e565b9150506112c3565b506000828152600a60205260409020600101805460ff1916600217905560035463ffffffff808216600160201b909204160361138e57611389826113e6565b611397565b611397846115b7565b50505050565b611397848484846040516024016113b79493929190611cb2565b60408051601f198184030181529190526020810180516001600160e01b0316637c7a8d8f60e11b17905261170d565b6000805b6000838152600860205260409020548110156114705760008381526009602090815260408083206008909252822080549192918490811061142d5761142d611bf2565b60009182526020808320909101546001600160a01b0316835282019290925260400190205461145c9083611c59565b91508061146881611c1e565b9150506113ea565b5060005b6000838152600860205260409020548110156115b2576007546000848152600960209081526040808320600890925282208054929386939092918591879081106114c0576114c0611bf2565b60009182526020808320909101546001600160a01b031683528201929092526040019020546114ef9190611cea565b6114f99190611d01565b600654600086815260086020526040902080549293506001600160a01b03909116916340c10f1991908590811061153257611532611bf2565b60009182526020909120015460405160e083901b6001600160e01b03191681526001600160a01b03909116600482015260248101849052604401600060405180830381600087803b15801561158657600080fd5b505af115801561159a573d6000803e3d6000fd5b505050505080806115aa90611c1e565b915050611474565b505050565b6003546004546040516001600160a01b03600160401b840481169360009390911691639c42bd189163ffffffff169085906115f6908890602001611d23565b6040516020818303038152906040526040518463ffffffff1660e01b815260040161162393929190611d50565b602060405180830381865afa158015611640573d6000803e3d6000fd5b505050506040513d601f19601f820116820180604052508101906116649190611d7e565b6004546003546040519293506001600160a01b039091169163fa31de0191849163ffffffff90911690869061169d908990602001611d23565b6040516020818303038152906040526040518563ffffffff1660e01b81526004016116ca93929190611d50565b60206040518083038185885af11580156116e8573d6000803e3d6000fd5b50505050506040513d601f19601f820116820180604052508101906113979190611d7e565b6108e58160006a636f6e736f6c652e6c6f679050600080835160208501845afa505050565b80356001600160a01b038116811461174957600080fd5b919050565b6000806040838503121561176157600080fd5b8235915061177160208401611732565b90509250929050565b6000806040838503121561178d57600080fd5b823591506020830135600481106117a357600080fd5b809150509250929050565b634e487b7160e01b600052602160045260246000fd5b600481106117e257634e487b7160e01b600052602160045260246000fd5b9052565b6020808252825182820181905260009190848201906040850190845b81811015611825576118158385516117c4565b9284019291840191600101611802565b50909695505050505050565b60006020828403121561184357600080fd5b5035919050565b803563ffffffff8116811461174957600080fd5b6000806000806060858703121561187457600080fd5b61187d8561184a565b935060208501359250604085013567ffffffffffffffff808211156118a157600080fd5b818701915087601f8301126118b557600080fd5b8135818111156118c457600080fd5b8860208285010111156118d657600080fd5b95989497505060200194505050565b634e487b7160e01b600052604160045260246000fd5b6040805190810167ffffffffffffffff8111828210171561191e5761191e6118e5565b60405290565b60405160a0810167ffffffffffffffff8111828210171561191e5761191e6118e5565b604051601f8201601f1916810167ffffffffffffffff81118282101715611970576119706118e5565b604052919050565b6000602080838503121561198b57600080fd5b823567ffffffffffffffff808211156119a357600080fd5b818501915060408083880312156119b957600080fd5b6119c16118fb565b8335815284840135838111156119d657600080fd5b80850194505087601f8501126119eb57600080fd5b8335838111156119fd576119fd6118e5565b611a0b868260051b01611947565b818152868101945060a091820286018701918a831115611a2a57600080fd5b958701955b82871015611aa25780878c031215611a475760008081fd5b611a4f611924565b611a5888611732565b81528888013589820152611a6d86890161184a565b868201526060611a7e818a01611732565b908201526080611a8f898201611732565b9082015286529586019594870194611a2f565b5095820195909552979650505050505050565b600060208284031215611ac757600080fd5b611ad082611732565b9392505050565b60208101611ae582846117c4565b92915050565b600081518084526020808501945080840160005b83811015611b5957815180516001600160a01b03908116895284820151858a015260408083015163ffffffff16908a01526060808301518216908a0152608091820151169088015260a09096019590820190600101611aff565b509495945050505050565b602081526000825160406020840152611b806060840182611aeb565b90506020840151611b9460408501826117c4565b509392505050565b600080600060608486031215611bb157600080fd5b611bba84611732565b9250611bc860208501611732565b9150611bd660408501611732565b90509250925092565b602081526000611ad06020830184611aeb565b634e487b7160e01b600052603260045260246000fd5b634e487b7160e01b600052601160045260246000fd5b600060018201611c3057611c30611c08565b5060010190565b600060208284031215611c4957600080fd5b81518015158114611ad057600080fd5b80820180821115611ae557611ae5611c08565b6000815180845260005b81811015611c9257602081850181015186830182015201611c76565b506000602082860101526020601f19601f83011685010191505092915050565b608081526000611cc56080830187611c6c565b6001600160a01b03959095166020830152506040810192909252606090910152919050565b8082028115828204841417611ae557611ae5611c08565b600082611d1e57634e487b7160e01b600052601260045260246000fd5b500490565b602081528151602082015260006020830151604080840152611d486060840182611aeb565b949350505050565b63ffffffff84168152826020820152606060408201526000611d756060830184611c6c565b95945050505050565b600060208284031215611d9057600080fd5b505191905056fea2646970667358221220672d3f5895db284514e4d0093b86077ad2d8a3d868e66457d4b79585d36c7dfc64736f6c63430008110033",
  "devdoc": {
    "kind": "dev",
    "methods": {},
    "version": 1
  },
  "userdoc": {
    "kind": "user",
    "methods": {},
    "version": 1
  },
  "storageLayout": {
    "storage": [
      {
        "astId": 1191,
        "contract": "contracts/ETFLock.sol:ETFLock",
        "label": "sideChainLock",
        "offset": 0,
        "slot": "0",
        "type": "t_address"
      },
      {
        "astId": 1195,
        "contract": "contracts/ETFLock.sol:ETFLock",
        "label": "requiredTokens",
        "offset": 0,
        "slot": "1",
        "type": "t_array(t_struct(TokenQuantity)1160_storage)dyn_storage"
      },
      {
        "astId": 1200,
        "contract": "contracts/ETFLock.sol:ETFLock",
        "label": "addressToToken",
        "offset": 0,
        "slot": "2",
        "type": "t_mapping(t_address,t_struct(TokenQuantity)1160_storage)"
      },
      {
        "astId": 1202,
        "contract": "contracts/ETFLock.sol:ETFLock",
        "label": "chainId",
        "offset": 0,
        "slot": "3",
        "type": "t_uint32"
      },
      {
        "astId": 1204,
        "contract": "contracts/ETFLock.sol:ETFLock",
        "label": "mainChainId",
        "offset": 4,
        "slot": "3",
        "type": "t_uint32"
      },
      {
        "astId": 1206,
        "contract": "contracts/ETFLock.sol:ETFLock",
        "label": "mainChainLock",
        "offset": 8,
        "slot": "3",
        "type": "t_address"
      },
      {
        "astId": 1209,
        "contract": "contracts/ETFLock.sol:ETFLock",
        "label": "outbox",
        "offset": 0,
        "slot": "4",
        "type": "t_contract(IMailbox)247"
      },
      {
        "astId": 1212,
        "contract": "contracts/ETFLock.sol:ETFLock",
        "label": "securityModule",
        "offset": 0,
        "slot": "5",
        "type": "t_contract(IInterchainSecurityModule)73"
      },
      {
        "astId": 1214,
        "contract": "contracts/ETFLock.sol:ETFLock",
        "label": "etfToken",
        "offset": 0,
        "slot": "6",
        "type": "t_address"
      },
      {
        "astId": 1216,
        "contract": "contracts/ETFLock.sol:ETFLock",
        "label": "etfTokenPerVault",
        "offset": 0,
        "slot": "7",
        "type": "t_uint256"
      },
      {
        "astId": 1221,
        "contract": "contracts/ETFLock.sol:ETFLock",
        "label": "contributorsByVault",
        "offset": 0,
        "slot": "8",
        "type": "t_mapping(t_uint256,t_array(t_address)dyn_storage)"
      },
      {
        "astId": 1227,
        "contract": "contracts/ETFLock.sol:ETFLock",
        "label": "accountContributionsPerVault",
        "offset": 0,
        "slot": "9",
        "type": "t_mapping(t_uint256,t_mapping(t_address,t_uint256))"
      },
      {
        "astId": 1244,
        "contract": "contracts/ETFLock.sol:ETFLock",
        "label": "vaults",
        "offset": 0,
        "slot": "10",
        "type": "t_mapping(t_uint256,t_struct(Vault)1168_storage)"
      }
    ],
    "types": {
      "t_address": {
        "encoding": "inplace",
        "label": "address",
        "numberOfBytes": "20"
      },
      "t_array(t_address)dyn_storage": {
        "base": "t_address",
        "encoding": "dynamic_array",
        "label": "address[]",
        "numberOfBytes": "32"
      },
      "t_array(t_struct(TokenQuantity)1160_storage)dyn_storage": {
        "base": "t_struct(TokenQuantity)1160_storage",
        "encoding": "dynamic_array",
        "label": "struct TokenQuantity[]",
        "numberOfBytes": "32"
      },
      "t_contract(IInterchainSecurityModule)73": {
        "encoding": "inplace",
        "label": "contract IInterchainSecurityModule",
        "numberOfBytes": "20"
      },
      "t_contract(IMailbox)247": {
        "encoding": "inplace",
        "label": "contract IMailbox",
        "numberOfBytes": "20"
      },
      "t_enum(VaultState)1173": {
        "encoding": "inplace",
        "label": "enum VaultState",
        "numberOfBytes": "1"
      },
      "t_mapping(t_address,t_struct(TokenQuantity)1160_storage)": {
        "encoding": "mapping",
        "key": "t_address",
        "label": "mapping(address => struct TokenQuantity)",
        "numberOfBytes": "32",
        "value": "t_struct(TokenQuantity)1160_storage"
      },
      "t_mapping(t_address,t_uint256)": {
        "encoding": "mapping",
        "key": "t_address",
        "label": "mapping(address => uint256)",
        "numberOfBytes": "32",
        "value": "t_uint256"
      },
      "t_mapping(t_uint256,t_array(t_address)dyn_storage)": {
        "encoding": "mapping",
        "key": "t_uint256",
        "label": "mapping(uint256 => address[])",
        "numberOfBytes": "32",
        "value": "t_array(t_address)dyn_storage"
      },
      "t_mapping(t_uint256,t_mapping(t_address,t_uint256))": {
        "encoding": "mapping",
        "key": "t_uint256",
        "label": "mapping(uint256 => mapping(address => uint256))",
        "numberOfBytes": "32",
        "value": "t_mapping(t_address,t_uint256)"
      },
      "t_mapping(t_uint256,t_struct(Vault)1168_storage)": {
        "encoding": "mapping",
        "key": "t_uint256",
        "label": "mapping(uint256 => struct Vault)",
        "numberOfBytes": "32",
        "value": "t_struct(Vault)1168_storage"
      },
      "t_struct(TokenQuantity)1160_storage": {
        "encoding": "inplace",
        "label": "struct TokenQuantity",
        "members": [
          {
            "astId": 1151,
            "contract": "contracts/ETFLock.sol:ETFLock",
            "label": "_address",
            "offset": 0,
            "slot": "0",
            "type": "t_address"
          },
          {
            "astId": 1153,
            "contract": "contracts/ETFLock.sol:ETFLock",
            "label": "_quantity",
            "offset": 0,
            "slot": "1",
            "type": "t_uint256"
          },
          {
            "astId": 1155,
            "contract": "contracts/ETFLock.sol:ETFLock",
            "label": "_chainId",
            "offset": 0,
            "slot": "2",
            "type": "t_uint32"
          },
          {
            "astId": 1157,
            "contract": "contracts/ETFLock.sol:ETFLock",
            "label": "_contributor",
            "offset": 4,
            "slot": "2",
            "type": "t_address"
          },
          {
            "astId": 1159,
            "contract": "contracts/ETFLock.sol:ETFLock",
            "label": "_aggregator",
            "offset": 0,
            "slot": "3",
            "type": "t_address"
          }
        ],
        "numberOfBytes": "128"
      },
      "t_struct(Vault)1168_storage": {
        "encoding": "inplace",
        "label": "struct Vault",
        "members": [
          {
            "astId": 1164,
            "contract": "contracts/ETFLock.sol:ETFLock",
            "label": "_tokens",
            "offset": 0,
            "slot": "0",
            "type": "t_array(t_struct(TokenQuantity)1160_storage)dyn_storage"
          },
          {
            "astId": 1167,
            "contract": "contracts/ETFLock.sol:ETFLock",
            "label": "state",
            "offset": 0,
            "slot": "1",
            "type": "t_enum(VaultState)1173"
          }
        ],
        "numberOfBytes": "64"
      },
      "t_uint256": {
        "encoding": "inplace",
        "label": "uint256",
        "numberOfBytes": "32"
      },
      "t_uint32": {
        "encoding": "inplace",
        "label": "uint32",
        "numberOfBytes": "4"
      }
    }
  }
}