{
  "address": "0x5788001D3816e173559B4A7b015b42759cD62a9a",
  "abi": [
    {
      "inputs": [
        {
          "internalType": "uint32",
          "name": "_mainChain",
          "type": "uint32"
        },
        {
          "internalType": "uint32",
          "name": "_chainId",
          "type": "uint32"
        },
        {
          "components": [
            {
              "internalType": "address",
              "name": "_address",
              "type": "address"
            },
            {
              "internalType": "uint256",
              "name": "_quantity",
              "type": "uint256"
            },
            {
              "internalType": "uint32",
              "name": "_chainId",
              "type": "uint32"
            },
            {
              "internalType": "address",
              "name": "_contributor",
              "type": "address"
            },
            {
              "internalType": "address",
              "name": "_aggregator",
              "type": "address"
            }
          ],
          "internalType": "struct TokenQuantity[]",
          "name": "_requiredTokens",
          "type": "tuple[]"
        },
        {
          "internalType": "address",
          "name": "_etfToken",
          "type": "address"
        },
        {
          "internalType": "uint256",
          "name": "_etfTokenPerVault",
          "type": "uint256"
        }
      ],
      "stateMutability": "nonpayable",
      "type": "constructor"
    },
    {
      "anonymous": false,
      "inputs": [
        {
          "indexed": false,
          "internalType": "uint256",
          "name": "_vaultId",
          "type": "uint256"
        },
        {
          "indexed": false,
          "internalType": "address",
          "name": "_address",
          "type": "address"
        },
        {
          "indexed": false,
          "internalType": "uint256",
          "name": "_quantity",
          "type": "uint256"
        },
        {
          "indexed": false,
          "internalType": "uint32",
          "name": "_chainId",
          "type": "uint32"
        },
        {
          "indexed": false,
          "internalType": "address",
          "name": "_contributor",
          "type": "address"
        }
      ],
      "name": "Deposit",
      "type": "event"
    },
    {
      "inputs": [
        {
          "internalType": "uint256",
          "name": "",
          "type": "uint256"
        },
        {
          "internalType": "address",
          "name": "",
          "type": "address"
        }
      ],
      "name": "accountContributionsPerVault",
      "outputs": [
        {
          "internalType": "uint256",
          "name": "",
          "type": "uint256"
        }
      ],
      "stateMutability": "view",
      "type": "function"
    },
    {
      "inputs": [
        {
          "internalType": "address",
          "name": "",
          "type": "address"
        }
      ],
      "name": "addressToToken",
      "outputs": [
        {
          "internalType": "address",
          "name": "_address",
          "type": "address"
        },
        {
          "internalType": "uint256",
          "name": "_quantity",
          "type": "uint256"
        },
        {
          "internalType": "uint32",
          "name": "_chainId",
          "type": "uint32"
        },
        {
          "internalType": "address",
          "name": "_contributor",
          "type": "address"
        },
        {
          "internalType": "address",
          "name": "_aggregator",
          "type": "address"
        }
      ],
      "stateMutability": "view",
      "type": "function"
    },
    {
      "inputs": [
        {
          "internalType": "uint256",
          "name": "_vaultId",
          "type": "uint256"
        }
      ],
      "name": "burn",
      "outputs": [],
      "stateMutability": "nonpayable",
      "type": "function"
    },
    {
      "inputs": [],
      "name": "chainId",
      "outputs": [
        {
          "internalType": "uint32",
          "name": "",
          "type": "uint32"
        }
      ],
      "stateMutability": "view",
      "type": "function"
    },
    {
      "inputs": [
        {
          "components": [
            {
              "internalType": "uint256",
              "name": "vaultId",
              "type": "uint256"
            },
            {
              "components": [
                {
                  "internalType": "address",
                  "name": "_address",
                  "type": "address"
                },
                {
                  "internalType": "uint256",
                  "name": "_quantity",
                  "type": "uint256"
                },
                {
                  "internalType": "uint32",
                  "name": "_chainId",
                  "type": "uint32"
                },
                {
                  "internalType": "address",
                  "name": "_contributor",
                  "type": "address"
                },
                {
                  "internalType": "address",
                  "name": "_aggregator",
                  "type": "address"
                }
              ],
              "internalType": "struct TokenQuantity[]",
              "name": "tokens",
              "type": "tuple[]"
            }
          ],
          "internalType": "struct DepositInfo",
          "name": "_depositInfo",
          "type": "tuple"
        }
      ],
      "name": "deposit",
      "outputs": [],
      "stateMutability": "payable",
      "type": "function"
    },
    {
      "inputs": [],
      "name": "etfToken",
      "outputs": [
        {
          "internalType": "address",
          "name": "",
          "type": "address"
        }
      ],
      "stateMutability": "view",
      "type": "function"
    },
    {
      "inputs": [],
      "name": "etfTokenPerVault",
      "outputs": [
        {
          "internalType": "uint256",
          "name": "",
          "type": "uint256"
        }
      ],
      "stateMutability": "view",
      "type": "function"
    },
    {
      "inputs": [],
      "name": "getRequiredTokens",
      "outputs": [
        {
          "components": [
            {
              "internalType": "address",
              "name": "_address",
              "type": "address"
            },
            {
              "internalType": "uint256",
              "name": "_quantity",
              "type": "uint256"
            },
            {
              "internalType": "uint32",
              "name": "_chainId",
              "type": "uint32"
            },
            {
              "internalType": "address",
              "name": "_contributor",
              "type": "address"
            },
            {
              "internalType": "address",
              "name": "_aggregator",
              "type": "address"
            }
          ],
          "internalType": "struct TokenQuantity[]",
          "name": "",
          "type": "tuple[]"
        }
      ],
      "stateMutability": "view",
      "type": "function"
    },
    {
      "inputs": [
        {
          "internalType": "uint256",
          "name": "_vaultId",
          "type": "uint256"
        }
      ],
      "name": "getVault",
      "outputs": [
        {
          "components": [
            {
              "components": [
                {
                  "internalType": "address",
                  "name": "_address",
                  "type": "address"
                },
                {
                  "internalType": "uint256",
                  "name": "_quantity",
                  "type": "uint256"
                },
                {
                  "internalType": "uint32",
                  "name": "_chainId",
                  "type": "uint32"
                },
                {
                  "internalType": "address",
                  "name": "_contributor",
                  "type": "address"
                },
                {
                  "internalType": "address",
                  "name": "_aggregator",
                  "type": "address"
                }
              ],
              "internalType": "struct TokenQuantity[]",
              "name": "_tokens",
              "type": "tuple[]"
            },
            {
              "internalType": "enum VaultState",
              "name": "state",
              "type": "uint8"
            }
          ],
          "internalType": "struct Vault",
          "name": "",
          "type": "tuple"
        }
      ],
      "stateMutability": "view",
      "type": "function"
    },
    {
      "inputs": [],
      "name": "getVaultStates",
      "outputs": [
        {
          "internalType": "enum VaultState[]",
          "name": "",
          "type": "uint8[]"
        }
      ],
      "stateMutability": "view",
      "type": "function"
    },
    {
      "inputs": [
        {
          "internalType": "uint32",
          "name": "_origin",
          "type": "uint32"
        },
        {
          "internalType": "bytes32",
          "name": "_sender",
          "type": "bytes32"
        },
        {
          "internalType": "bytes",
          "name": "_message",
          "type": "bytes"
        }
      ],
      "name": "handle",
      "outputs": [],
      "stateMutability": "payable",
      "type": "function"
    },
    {
      "inputs": [],
      "name": "isMainChain",
      "outputs": [
        {
          "internalType": "bool",
          "name": "",
          "type": "bool"
        }
      ],
      "stateMutability": "view",
      "type": "function"
    },
    {
      "inputs": [],
      "name": "mainChainId",
      "outputs": [
        {
          "internalType": "uint32",
          "name": "",
          "type": "uint32"
        }
      ],
      "stateMutability": "view",
      "type": "function"
    },
    {
      "inputs": [],
      "name": "mainChainLock",
      "outputs": [
        {
          "internalType": "address",
          "name": "",
          "type": "address"
        }
      ],
      "stateMutability": "view",
      "type": "function"
    },
    {
      "inputs": [
        {
          "internalType": "uint256",
          "name": "",
          "type": "uint256"
        }
      ],
      "name": "requiredTokens",
      "outputs": [
        {
          "internalType": "address",
          "name": "_address",
          "type": "address"
        },
        {
          "internalType": "uint256",
          "name": "_quantity",
          "type": "uint256"
        },
        {
          "internalType": "uint32",
          "name": "_chainId",
          "type": "uint32"
        },
        {
          "internalType": "address",
          "name": "_contributor",
          "type": "address"
        },
        {
          "internalType": "address",
          "name": "_aggregator",
          "type": "address"
        }
      ],
      "stateMutability": "view",
      "type": "function"
    },
    {
      "inputs": [
        {
          "internalType": "address",
          "name": "_sideChainLock",
          "type": "address"
        },
        {
          "internalType": "uint32",
          "name": "_sideChainId",
          "type": "uint32"
        },
        {
          "internalType": "address",
          "name": "_outbox",
          "type": "address"
        },
        {
          "internalType": "address",
          "name": "_securityModule",
          "type": "address"
        }
      ],
      "name": "setMainChainParams",
      "outputs": [],
      "stateMutability": "nonpayable",
      "type": "function"
    },
    {
      "inputs": [
        {
          "internalType": "address",
          "name": "_mainChainLock",
          "type": "address"
        },
        {
          "internalType": "address",
          "name": "_outbox",
          "type": "address"
        },
        {
          "internalType": "address",
          "name": "_securityModule",
          "type": "address"
        }
      ],
      "name": "setSideChainParams",
      "outputs": [],
      "stateMutability": "nonpayable",
      "type": "function"
    },
    {
      "inputs": [
        {
          "internalType": "uint256",
          "name": "_vaultId",
          "type": "uint256"
        },
        {
          "internalType": "enum VaultState",
          "name": "_state",
          "type": "uint8"
        }
      ],
      "name": "setVaultState",
      "outputs": [],
      "stateMutability": "nonpayable",
      "type": "function"
    },
    {
      "inputs": [],
      "name": "sideChainId",
      "outputs": [
        {
          "internalType": "uint32",
          "name": "",
          "type": "uint32"
        }
      ],
      "stateMutability": "view",
      "type": "function"
    },
    {
      "inputs": [],
      "name": "sideChainLock",
      "outputs": [
        {
          "internalType": "address",
          "name": "",
          "type": "address"
        }
      ],
      "stateMutability": "view",
      "type": "function"
    },
    {
      "inputs": [
        {
          "internalType": "uint256",
          "name": "",
          "type": "uint256"
        }
      ],
      "name": "vaults",
      "outputs": [
        {
          "internalType": "enum VaultState",
          "name": "state",
          "type": "uint8"
        }
      ],
      "stateMutability": "view",
      "type": "function"
    }
  ],
  "transactionHash": "0x19c1bd4b2a55a54c94e80454b8d5ba22d95f5a6306082f2b3ea00dbd2e98ddf1",
  "args": [
    128123,
    11155111,
    [
      {
        "_address": "0xA0ac5c99C36128C1De7F88e4f0894D8859Bbc2B2",
        "_quantity": "100000000000000000000",
        "_chainId": 11155111,
        "_contributor": "0x2a1F5eB3e84e58e6F1e565306298B9dE1273f203",
        "_aggregator": "0x0000000000000000000000000000000000000000"
      }
    ],
    "0x0000000000000000000000000000000000000000",
    "100000000000000000000"
  ],
  "numDeployments": 6,
  "solcInputHash": "2ebffc763522fcae24447082cd29d062",
  "bytecode": "0x60806040523480156200001157600080fd5b506040516200249f3803806200249f8339810160408190526200003491620002dc565b600380546001600160401b03191664010000000063ffffffff8881169190910263ffffffff191691909117908616179055600680546001600160a01b0319166001600160a01b038416179055600781905560005b83518110156200022a576001848281518110620000a957620000a96200043a565b602090810291909101810151825460018082018555600094855293839020825160049092020180546001600160a01b03199081166001600160a01b0393841617825593830151948101949094556040820151600285018054606085015163ffffffff9093166001600160c01b0319909116176401000000009284169290920291909117905560809091015160039093018054909216921691909117905583518490829081106200015d576200015d6200043a565b6020026020010151600260008684815181106200017e576200017e6200043a565b602090810291909101810151516001600160a01b039081168352828201939093526040918201600020845181549085166001600160a01b03199182161782559185015160018201559184015160028301805460608701518616640100000000026001600160c01b031990911663ffffffff909316929092179190911790556080909301516003909101805491909216921691909117905580620002218162000450565b91505062000088565b50505050505062000478565b805163ffffffff811681146200024b57600080fd5b919050565b634e487b7160e01b600052604160045260246000fd5b60405160a081016001600160401b03811182821017156200028b576200028b62000250565b60405290565b604051601f8201601f191681016001600160401b0381118282101715620002bc57620002bc62000250565b604052919050565b80516001600160a01b03811681146200024b57600080fd5b600080600080600060a0808789031215620002f657600080fd5b620003018762000236565b955060206200031281890162000236565b604089810151919750906001600160401b03808211156200033257600080fd5b818b0191508b601f8301126200034757600080fd5b8151818111156200035c576200035c62000250565b6200036c858260051b0162000291565b818152858101925090860283018501908d8211156200038a57600080fd5b928501925b818410156200040f5786848f031215620003a95760008081fd5b620003b362000266565b620003be85620002c4565b81528685015187820152620003d586860162000236565b868201526060620003e8818701620002c4565b908201526080620003fb868201620002c4565b90820152835292860192918501916200038f565b809950505050505050506200042760608701620002c4565b9150608086015190509295509295909350565b634e487b7160e01b600052603260045260246000fd5b6000600182016200047157634e487b7160e01b600052601160045260246000fd5b5060010190565b61201780620004886000396000f3fe60806040526004361061012a5760003560e01c80638c64ea4a116100ab5780639c58a5a41161006f5780639c58a5a414610401578063b834f6fb14610421578063b98ee2b614610453578063cca3ce2b14610473578063e1a2d42414610495578063eb6a9aa0146104b557600080fd5b80638c64ea4a146103335780639403b63414610373578063956a45a6146103a05780639a8a0592146103c05780639a9176c2146103dd57600080fd5b806342966c68116100f257806342966c681461020d57806356d5d4751461022d5780636059f0961461024057806369abaac9146102535780636b8cf65e146102f457600080fd5b8063014372eb1461012f5780630badce411461017a5780630f45ad431461019c578063250cab39146101d5578063309bfe4a146101eb575b600080fd5b34801561013b57600080fd5b5061016761014a36600461198d565b600960209081526000928352604080842090915290825290205481565b6040519081526020015b60405180910390f35b34801561018657600080fd5b5061019a6101953660046119b9565b6104d5565b005b3480156101a857600080fd5b506003546101c090600160201b900463ffffffff1681565b60405163ffffffff9091168152602001610171565b3480156101e157600080fd5b5061016760075481565b3480156101f757600080fd5b5061020061050e565b6040516101719190611a25565b34801561021957600080fd5b5061019a610228366004611a70565b6105b6565b61019a61023b366004611a9d565b6109c1565b61019a61024e366004611bb7565b610b73565b34801561025f57600080fd5b506102b461026e366004611cf4565b600260208190526000918252604090912080546001820154928201546003909201546001600160a01b03918216939263ffffffff811692600160201b9091048116911685565b604080516001600160a01b039687168152602081019590955263ffffffff909316928401929092528316606083015291909116608082015260a001610171565b34801561030057600080fd5b5060035461031b90600160401b90046001600160a01b031681565b6040516001600160a01b039091168152602001610171565b34801561033f57600080fd5b5061036661034e366004611a70565b600a6020526000908152604090206001015460ff1681565b6040516101719190611d16565b34801561037f57600080fd5b5061039361038e366004611a70565b610b8a565b6040516101719190611da3565b3480156103ac57600080fd5b506102b46103bb366004611a70565b610c8b565b3480156103cc57600080fd5b506003546101c09063ffffffff1681565b3480156103e957600080fd5b506000546101c090600160a01b900463ffffffff1681565b34801561040d57600080fd5b5060005461031b906001600160a01b031681565b34801561042d57600080fd5b50600354600160201b810463ffffffff9081169116146040519015158152602001610171565b34801561045f57600080fd5b5061019a61046e366004611ddb565b610ce3565b34801561047f57600080fd5b50610488610db0565b6040516101719190611e1e565b3480156104a157600080fd5b5061019a6104b0366004611e31565b610e55565b3480156104c157600080fd5b5060065461031b906001600160a01b031681565b6000828152600a6020526040902060019081018054839260ff1990911690836003811115610505576105056119ed565b02179055505050565b60408051605a808252610b6082019092526060916000919060208201610b408036833701905050905060005b81518110156105b0576000818152600a6020526040902060010154825160ff9091169083908390811061056f5761056f611e85565b60200260200101906003811115610588576105886119ed565b9081600381111561059b5761059b6119ed565b905250806105a881611eb1565b91505061053a565b50919050565b60026000828152600a602052604090206001015460ff1660038111156105de576105de6119ed565b146106265760405162461bcd60e51b815260206004820152601360248201527215985d5b1d081a5cc81b9bdd081b5a5b9d1959606a1b60448201526064015b60405180910390fd5b600354600160201b810463ffffffff9081169116146106875760405162461bcd60e51b815260206004820152601860248201527f4f6e6c79206d61696e20636861696e2063616e206275726e0000000000000000604482015260640161061d565b600654600754604051632770a7eb60e21b815233600482015260248101919091526001600160a01b0390911690639dc29fac90604401600060405180830381600087803b1580156106d757600080fd5b505af11580156106eb573d6000803e3d6000fd5b5050505060005b6000828152600a6020526040902054811015610853576003546000838152600a60205260409020805463ffffffff909216918390811061073457610734611e85565b600091825260209091206002600490920201015463ffffffff1603610841576000828152600a6020526040902080548290811061077357610773611e85565b60009182526020808320600490920290910154848352600a909152604090912080546001600160a01b039092169163a9059cbb913391859081106107b9576107b9611e85565b9060005260206000209060040201600101546040518363ffffffff1660e01b81526004016107fc9291906001600160a01b03929092168252602082015260400190565b6020604051808303816000875af115801561081b573d6000803e3d6000fd5b505050506040513d601f19601f8201168201806040525081019061083f9190611eca565b505b8061084b81611eb1565b9150506106f2565b506000818152600a60209081526040808320600101805460ff1916600317905582546004548251808501879052835180820390950185528084019384905263138857a360e31b9093526001600160a01b038083169594911692639c42bd18926108d092600160a01b90910463ffffffff1691879190604401611eec565b602060405180830381865afa1580156108ed573d6000803e3d6000fd5b505050506040513d601f19601f820116820180604052508101906109119190611f4f565b60045460005460408051602081018890529394506001600160a01b039092169263fa31de01928592600160a01b900463ffffffff16918791015b6040516020818303038152906040526040518563ffffffff1660e01b815260040161097893929190611eec565b60206040518083038185885af1158015610996573d6000803e3d6000fd5b50505050506040513d601f19601f820116820180604052508101906109bb9190611f4f565b50505050565b600354600160201b810463ffffffff90811691161480156109f557506000546001600160a01b0316836001600160a01b0316145b610a565760405162461bcd60e51b815260206004820152602c60248201527f53656e64657220746f206d61696e436861696e206973206e6f7420746865207360448201526b696465436861696e4c6f636b60a01b606482015260840161061d565b600354600160201b810463ffffffff908116911614158015610a925750600354600160401b90046001600160a01b0316836001600160a01b0316145b610af35760405162461bcd60e51b815260206004820152602c60248201527f53656e64657220746f2073696465436861696e206973206e6f7420746865206d60448201526b61696e436861696e4c6f636b60a01b606482015260840161061d565b60035463ffffffff600160201b82048116911603610b53576000610b1982840184611bb7565b905060008160200151600081518110610b3457610b34611e85565b6020026020010151604001519050610b4c8282610f2b565b50506109bb565b6000610b6182840184611a70565b9050610b6c816105b6565b5050505050565b600354610b8790829063ffffffff16610f2b565b50565b6040805180820190915260608152600060208201526000828152600a60209081526040808320815181546060948102820185018452928101838152909491938593919285929185015b82821015610c4b5760008481526020908190206040805160a0810182526004860290920180546001600160a01b03908116845260018083015485870152600283015463ffffffff811694860194909452600160201b909304811660608501526003909101541660808301529083529092019101610bd3565b50505090825250600182015460209091019060ff166003811115610c7157610c716119ed565b6003811115610c8257610c826119ed565b90525092915050565b60018181548110610c9b57600080fd5b600091825260209091206004909102018054600182015460028301546003909301546001600160a01b039283169450909263ffffffff811692600160201b9091048116911685565b60035463ffffffff600160201b82048116911603610d5f5760405162461bcd60e51b815260206004820152603360248201527f4d61696e20636861696e206c6f636b20616464726573732063616e6e6f742062604482015272329039b2ba1037b71036b0b4b71031b430b4b760691b606482015260840161061d565b600380546001600160a01b03948516600160401b0268010000000000000000600160e01b0319909116179055600480549284166001600160a01b031993841617905560058054919093169116179055565b60606001805480602002602001604051908101604052809291908181526020016000905b82821015610e4c5760008481526020908190206040805160a0810182526004860290920180546001600160a01b03908116845260018083015485870152600283015463ffffffff811694860194909452600160201b909304811660608501526003909101541660808301529083529092019101610dd4565b50505050905090565b600354600160201b810463ffffffff908116911614610ed05760405162461bcd60e51b815260206004820152603160248201527f5369646520436861696e206c6f636b20616464726573732063616e206f6e6c796044820152701031329039b2ba1036b0b4b731b430b4b760791b606482015260840161061d565b600480546001600160a01b039384166001600160a01b0319918216179091556000805460058054948616948416949094179093559490921663ffffffff909316600160a01b029091166001600160c01b031990911617179055565b8151602083015160016000838152600a602052604090206001015460ff166003811115610f5a57610f5a6119ed565b1480610f8957506000828152600a602052604081206001015460ff166003811115610f8757610f876119ed565b145b610fd55760405162461bcd60e51b815260206004820152601a60248201527f5661756c74206973206e6f74206f70656e206f7220656d707479000000000000604482015260640161061d565b6000828152600a602052604081206001015460ff166003811115610ffb57610ffb6119ed565b036111975760005b60015481101561117757600a60008481526020019081526020016000206000016040518060a001604052806001848154811061104157611041611e85565b600091825260208083206004909202909101546001600160a01b03168352820152600180546040909201918590811061107c5761107c611e85565b600091825260208083206002600490930201919091015463ffffffff16835282015260018054604090920191859081106110b8576110b8611e85565b60009182526020808320600360049384029091018101546001600160a01b039081169095528654600181810189559785529382902086519490930290920180549385166001600160a01b03199485161781559085015195810195909555604084015160028601805460608701518616600160201b026001600160c01b031990911663ffffffff9093169290921791909117905560809093015193909201805493909116929091169190911790558061116f81611eb1565b915050611003565b506000828152600a602052604090206001908101805460ff191690911790555b60005b81518110156115d457600260008383815181106111b9576111b9611e85565b6020026020010151600001516001600160a01b03166001600160a01b0316815260200190815260200160002060010154600a6000858152602001908152602001600020600001828154811061121057611210611e85565b90600052602060002090600402016001015483838151811061123457611234611e85565b60200260200101516020015161124a9190611f68565b11156112ab5760405162461bcd60e51b815260206004820152602a60248201527f546f6b656e207175616e746974792065786365656473207468652072657175696044820152691c995908185b5bdd5b9d60b21b606482015260840161061d565b8363ffffffff168282815181106112c4576112c4611e85565b60200260200101516040015163ffffffff16036113c0578181815181106112ed576112ed611e85565b6020026020010151600001516001600160a01b03166323b872dd83838151811061131957611319611e85565b6020026020010151606001513085858151811061133857611338611e85565b60209081029190910181015101516040516001600160e01b031960e086901b1681526001600160a01b03938416600482015292909116602483015260448201526064016020604051808303816000875af115801561139a573d6000803e3d6000fd5b505050506040513d601f19601f820116820180604052508101906113be9190611eca565b505b8181815181106113d2576113d2611e85565b602002602001015160200151600a6000858152602001908152602001600020600001828154811061140557611405611e85565b906000526020600020906004020160010160008282546114259190611f68565b925050819055507f80590f9d7015c327349ea64242fc29353801fcad956721a0e45f725338db06f48383838151811061146057611460611e85565b60200260200101516000015184848151811061147e5761147e611e85565b60200260200101516020015185858151811061149c5761149c611e85565b6020026020010151604001518686815181106114ba576114ba611e85565b6020026020010151606001516040516115049594939291909485526001600160a01b039384166020860152604085019290925263ffffffff16606084015216608082015260a00190565b60405180910390a160035463ffffffff600160201b820481169116036115c257600083815260096020908152604080832033845290915281205490036115735760008381526008602090815260408220805460018101825590835291200180546001600160a01b031916331790555b81818151811061158557611585611e85565b60209081029190910181015181015160008581526009835260408082203383529093529182208054919290916115bc908490611f68565b90915550505b806115cc81611eb1565b91505061119a565b5060005b60015481101561165f57600181815481106115f5576115f5611e85565b906000526020600020906004020160010154600a6000858152602001908152602001600020600001828154811061162e5761162e611e85565b906000526020600020906004020160010154101561164d575050505050565b8061165781611eb1565b9150506115d8565b506000828152600a60205260409020600101805460ff1916600217905560035463ffffffff808216600160201b90920416036116a35761169e826116ac565b6109bb565b6109bb8461187d565b6000805b600083815260086020526040902054811015611736576000838152600960209081526040808320600890925282208054919291849081106116f3576116f3611e85565b60009182526020808320909101546001600160a01b031683528201929092526040019020546117229083611f68565b91508061172e81611eb1565b9150506116b0565b5060005b6000838152600860205260409020548110156118785760075460008481526009602090815260408083206008909252822080549293869390929185918790811061178657611786611e85565b60009182526020808320909101546001600160a01b031683528201929092526040019020546117b59190611f7b565b6117bf9190611f92565b600654600086815260086020526040902080549293506001600160a01b03909116916340c10f199190859081106117f8576117f8611e85565b60009182526020909120015460405160e083901b6001600160e01b03191681526001600160a01b03909116600482015260248101849052604401600060405180830381600087803b15801561184c57600080fd5b505af1158015611860573d6000803e3d6000fd5b5050505050808061187090611eb1565b91505061173a565b505050565b6003546004546040516001600160a01b03600160401b840481169360009390911691639c42bd189163ffffffff600160201b909104169085906118c4908890602001611fb4565b6040516020818303038152906040526040518463ffffffff1660e01b81526004016118f193929190611eec565b602060405180830381865afa15801561190e573d6000803e3d6000fd5b505050506040513d601f19601f820116820180604052508101906119329190611f4f565b6004546003546040519293506001600160a01b039091169163fa31de01918491600160201b90910463ffffffff1690869061094b908990602001611fb4565b80356001600160a01b038116811461198857600080fd5b919050565b600080604083850312156119a057600080fd5b823591506119b060208401611971565b90509250929050565b600080604083850312156119cc57600080fd5b823591506020830135600481106119e257600080fd5b809150509250929050565b634e487b7160e01b600052602160045260246000fd5b60048110611a2157634e487b7160e01b600052602160045260246000fd5b9052565b6020808252825182820181905260009190848201906040850190845b81811015611a6457611a54838551611a03565b9284019291840191600101611a41565b50909695505050505050565b600060208284031215611a8257600080fd5b5035919050565b803563ffffffff8116811461198857600080fd5b60008060008060608587031215611ab357600080fd5b611abc85611a89565b935060208501359250604085013567ffffffffffffffff80821115611ae057600080fd5b818701915087601f830112611af457600080fd5b813581811115611b0357600080fd5b886020828501011115611b1557600080fd5b95989497505060200194505050565b634e487b7160e01b600052604160045260246000fd5b6040805190810167ffffffffffffffff81118282101715611b5d57611b5d611b24565b60405290565b60405160a0810167ffffffffffffffff81118282101715611b5d57611b5d611b24565b604051601f8201601f1916810167ffffffffffffffff81118282101715611baf57611baf611b24565b604052919050565b60006020808385031215611bca57600080fd5b823567ffffffffffffffff80821115611be257600080fd5b81850191506040808388031215611bf857600080fd5b611c00611b3a565b833581528484013583811115611c1557600080fd5b80850194505087601f850112611c2a57600080fd5b833583811115611c3c57611c3c611b24565b611c4a868260051b01611b86565b818152868101945060a091820286018701918a831115611c6957600080fd5b958701955b82871015611ce15780878c031215611c865760008081fd5b611c8e611b63565b611c9788611971565b81528888013589820152611cac868901611a89565b868201526060611cbd818a01611971565b908201526080611cce898201611971565b9082015286529586019594870194611c6e565b5095820195909552979650505050505050565b600060208284031215611d0657600080fd5b611d0f82611971565b9392505050565b60208101611d248284611a03565b92915050565b600081518084526020808501945080840160005b83811015611d9857815180516001600160a01b03908116895284820151858a015260408083015163ffffffff16908a01526060808301518216908a0152608091820151169088015260a09096019590820190600101611d3e565b509495945050505050565b602081526000825160406020840152611dbf6060840182611d2a565b90506020840151611dd36040850182611a03565b509392505050565b600080600060608486031215611df057600080fd5b611df984611971565b9250611e0760208501611971565b9150611e1560408501611971565b90509250925092565b602081526000611d0f6020830184611d2a565b60008060008060808587031215611e4757600080fd5b611e5085611971565b9350611e5e60208601611a89565b9250611e6c60408601611971565b9150611e7a60608601611971565b905092959194509250565b634e487b7160e01b600052603260045260246000fd5b634e487b7160e01b600052601160045260246000fd5b600060018201611ec357611ec3611e9b565b5060010190565b600060208284031215611edc57600080fd5b81518015158114611d0f57600080fd5b63ffffffff8416815260006020848184015260606040840152835180606085015260005b81811015611f2c57858101830151858201608001528201611f10565b506000608082860101526080601f19601f83011685010192505050949350505050565b600060208284031215611f6157600080fd5b5051919050565b80820180821115611d2457611d24611e9b565b8082028115828204841417611d2457611d24611e9b565b600082611faf57634e487b7160e01b600052601260045260246000fd5b500490565b602081528151602082015260006020830151604080840152611fd96060840182611d2a565b94935050505056fea2646970667358221220abfc203bd9b7b19301fc13aa2c4df4a795d8860cc67ced6c957aa78fbd1609bc64736f6c63430008110033",
  "devdoc": {
    "kind": "dev",
    "methods": {},
    "version": 1
  },
  "userdoc": {
    "kind": "user",
    "methods": {},
    "version": 1
  },
  "storageLayout": {
    "storage": [
      {
        "astId": 1191,
        "contract": "contracts/ETFLock.sol:ETFLock",
        "label": "sideChainLock",
        "offset": 0,
        "slot": "0",
        "type": "t_address"
      },
      {
        "astId": 1193,
        "contract": "contracts/ETFLock.sol:ETFLock",
        "label": "sideChainId",
        "offset": 20,
        "slot": "0",
        "type": "t_uint32"
      },
      {
        "astId": 1197,
        "contract": "contracts/ETFLock.sol:ETFLock",
        "label": "requiredTokens",
        "offset": 0,
        "slot": "1",
        "type": "t_array(t_struct(TokenQuantity)1160_storage)dyn_storage"
      },
      {
        "astId": 1202,
        "contract": "contracts/ETFLock.sol:ETFLock",
        "label": "addressToToken",
        "offset": 0,
        "slot": "2",
        "type": "t_mapping(t_address,t_struct(TokenQuantity)1160_storage)"
      },
      {
        "astId": 1204,
        "contract": "contracts/ETFLock.sol:ETFLock",
        "label": "chainId",
        "offset": 0,
        "slot": "3",
        "type": "t_uint32"
      },
      {
        "astId": 1206,
        "contract": "contracts/ETFLock.sol:ETFLock",
        "label": "mainChainId",
        "offset": 4,
        "slot": "3",
        "type": "t_uint32"
      },
      {
        "astId": 1208,
        "contract": "contracts/ETFLock.sol:ETFLock",
        "label": "mainChainLock",
        "offset": 8,
        "slot": "3",
        "type": "t_address"
      },
      {
        "astId": 1211,
        "contract": "contracts/ETFLock.sol:ETFLock",
        "label": "outbox",
        "offset": 0,
        "slot": "4",
        "type": "t_contract(IMailbox)247"
      },
      {
        "astId": 1214,
        "contract": "contracts/ETFLock.sol:ETFLock",
        "label": "securityModule",
        "offset": 0,
        "slot": "5",
        "type": "t_contract(IInterchainSecurityModule)73"
      },
      {
        "astId": 1216,
        "contract": "contracts/ETFLock.sol:ETFLock",
        "label": "etfToken",
        "offset": 0,
        "slot": "6",
        "type": "t_address"
      },
      {
        "astId": 1218,
        "contract": "contracts/ETFLock.sol:ETFLock",
        "label": "etfTokenPerVault",
        "offset": 0,
        "slot": "7",
        "type": "t_uint256"
      },
      {
        "astId": 1223,
        "contract": "contracts/ETFLock.sol:ETFLock",
        "label": "contributorsByVault",
        "offset": 0,
        "slot": "8",
        "type": "t_mapping(t_uint256,t_array(t_address)dyn_storage)"
      },
      {
        "astId": 1229,
        "contract": "contracts/ETFLock.sol:ETFLock",
        "label": "accountContributionsPerVault",
        "offset": 0,
        "slot": "9",
        "type": "t_mapping(t_uint256,t_mapping(t_address,t_uint256))"
      },
      {
        "astId": 1246,
        "contract": "contracts/ETFLock.sol:ETFLock",
        "label": "vaults",
        "offset": 0,
        "slot": "10",
        "type": "t_mapping(t_uint256,t_struct(Vault)1168_storage)"
      }
    ],
    "types": {
      "t_address": {
        "encoding": "inplace",
        "label": "address",
        "numberOfBytes": "20"
      },
      "t_array(t_address)dyn_storage": {
        "base": "t_address",
        "encoding": "dynamic_array",
        "label": "address[]",
        "numberOfBytes": "32"
      },
      "t_array(t_struct(TokenQuantity)1160_storage)dyn_storage": {
        "base": "t_struct(TokenQuantity)1160_storage",
        "encoding": "dynamic_array",
        "label": "struct TokenQuantity[]",
        "numberOfBytes": "32"
      },
      "t_contract(IInterchainSecurityModule)73": {
        "encoding": "inplace",
        "label": "contract IInterchainSecurityModule",
        "numberOfBytes": "20"
      },
      "t_contract(IMailbox)247": {
        "encoding": "inplace",
        "label": "contract IMailbox",
        "numberOfBytes": "20"
      },
      "t_enum(VaultState)1173": {
        "encoding": "inplace",
        "label": "enum VaultState",
        "numberOfBytes": "1"
      },
      "t_mapping(t_address,t_struct(TokenQuantity)1160_storage)": {
        "encoding": "mapping",
        "key": "t_address",
        "label": "mapping(address => struct TokenQuantity)",
        "numberOfBytes": "32",
        "value": "t_struct(TokenQuantity)1160_storage"
      },
      "t_mapping(t_address,t_uint256)": {
        "encoding": "mapping",
        "key": "t_address",
        "label": "mapping(address => uint256)",
        "numberOfBytes": "32",
        "value": "t_uint256"
      },
      "t_mapping(t_uint256,t_array(t_address)dyn_storage)": {
        "encoding": "mapping",
        "key": "t_uint256",
        "label": "mapping(uint256 => address[])",
        "numberOfBytes": "32",
        "value": "t_array(t_address)dyn_storage"
      },
      "t_mapping(t_uint256,t_mapping(t_address,t_uint256))": {
        "encoding": "mapping",
        "key": "t_uint256",
        "label": "mapping(uint256 => mapping(address => uint256))",
        "numberOfBytes": "32",
        "value": "t_mapping(t_address,t_uint256)"
      },
      "t_mapping(t_uint256,t_struct(Vault)1168_storage)": {
        "encoding": "mapping",
        "key": "t_uint256",
        "label": "mapping(uint256 => struct Vault)",
        "numberOfBytes": "32",
        "value": "t_struct(Vault)1168_storage"
      },
      "t_struct(TokenQuantity)1160_storage": {
        "encoding": "inplace",
        "label": "struct TokenQuantity",
        "members": [
          {
            "astId": 1151,
            "contract": "contracts/ETFLock.sol:ETFLock",
            "label": "_address",
            "offset": 0,
            "slot": "0",
            "type": "t_address"
          },
          {
            "astId": 1153,
            "contract": "contracts/ETFLock.sol:ETFLock",
            "label": "_quantity",
            "offset": 0,
            "slot": "1",
            "type": "t_uint256"
          },
          {
            "astId": 1155,
            "contract": "contracts/ETFLock.sol:ETFLock",
            "label": "_chainId",
            "offset": 0,
            "slot": "2",
            "type": "t_uint32"
          },
          {
            "astId": 1157,
            "contract": "contracts/ETFLock.sol:ETFLock",
            "label": "_contributor",
            "offset": 4,
            "slot": "2",
            "type": "t_address"
          },
          {
            "astId": 1159,
            "contract": "contracts/ETFLock.sol:ETFLock",
            "label": "_aggregator",
            "offset": 0,
            "slot": "3",
            "type": "t_address"
          }
        ],
        "numberOfBytes": "128"
      },
      "t_struct(Vault)1168_storage": {
        "encoding": "inplace",
        "label": "struct Vault",
        "members": [
          {
            "astId": 1164,
            "contract": "contracts/ETFLock.sol:ETFLock",
            "label": "_tokens",
            "offset": 0,
            "slot": "0",
            "type": "t_array(t_struct(TokenQuantity)1160_storage)dyn_storage"
          },
          {
            "astId": 1167,
            "contract": "contracts/ETFLock.sol:ETFLock",
            "label": "state",
            "offset": 0,
            "slot": "1",
            "type": "t_enum(VaultState)1173"
          }
        ],
        "numberOfBytes": "64"
      },
      "t_uint256": {
        "encoding": "inplace",
        "label": "uint256",
        "numberOfBytes": "32"
      },
      "t_uint32": {
        "encoding": "inplace",
        "label": "uint32",
        "numberOfBytes": "4"
      }
    }
  }
}