{
  "address": "0x946d990cCCb7f6049DE3C4D4A547A3C3d979Da34",
  "abi": [
    {
      "inputs": [
        {
          "internalType": "address",
          "name": "_inbox",
          "type": "address"
        },
        {
          "internalType": "address",
          "name": "_securityModule",
          "type": "address"
        }
      ],
      "stateMutability": "nonpayable",
      "type": "constructor"
    },
    {
      "anonymous": false,
      "inputs": [
        {
          "indexed": false,
          "internalType": "uint32",
          "name": "origin",
          "type": "uint32"
        },
        {
          "indexed": false,
          "internalType": "bytes32",
          "name": "sender",
          "type": "bytes32"
        },
        {
          "indexed": false,
          "internalType": "bytes",
          "name": "message",
          "type": "bytes"
        }
      ],
      "name": "ReceivedMessage",
      "type": "event"
    },
    {
      "inputs": [
        {
          "internalType": "uint32",
          "name": "_origin",
          "type": "uint32"
        },
        {
          "internalType": "bytes32",
          "name": "_sender",
          "type": "bytes32"
        },
        {
          "internalType": "bytes",
          "name": "_message",
          "type": "bytes"
        }
      ],
      "name": "handle",
      "outputs": [],
      "stateMutability": "payable",
      "type": "function"
    },
    {
      "inputs": [],
      "name": "interchainSecurityModule",
      "outputs": [
        {
          "internalType": "contract IInterchainSecurityModule",
          "name": "",
          "type": "address"
        }
      ],
      "stateMutability": "view",
      "type": "function"
    },
    {
      "inputs": [],
      "name": "lastMessage",
      "outputs": [
        {
          "internalType": "string",
          "name": "",
          "type": "string"
        }
      ],
      "stateMutability": "view",
      "type": "function"
    },
    {
      "inputs": [],
      "name": "lastSender",
      "outputs": [
        {
          "internalType": "bytes32",
          "name": "",
          "type": "bytes32"
        }
      ],
      "stateMutability": "view",
      "type": "function"
    },
    {
      "inputs": [],
      "name": "version",
      "outputs": [
        {
          "internalType": "string",
          "name": "",
          "type": "string"
        }
      ],
      "stateMutability": "view",
      "type": "function"
    }
  ],
  "transactionHash": "0x4c506e4e8e58958eb30ea6b733824670ed15d0cf75eb235a35e2c7105b458080",
  "args": [
    "0xfFAEF09B3cd11D9b20d1a19bECca54EEC2884766",
    "0xa717195377ad63B5EF830548492878ED9A1528D0"
  ],
  "numDeployments": 3,
  "solcInputHash": "1f8e39f1c86d11f0bbe764bc81d12f70",
  "bytecode": "0x60c060405260056080908152640312e302e360dc1b60a0526004906100249082610120565b5034801561003157600080fd5b506040516106d33803806106d3833981016040819052610050916101fb565b600080546001600160a01b039384166001600160a01b0319918216179091556001805492909316911617905561022e565b634e487b7160e01b600052604160045260246000fd5b600181811c908216806100ab57607f821691505b6020821081036100cb57634e487b7160e01b600052602260045260246000fd5b50919050565b601f82111561011b57600081815260208120601f850160051c810160208610156100f85750805b601f850160051c820191505b8181101561011757828155600101610104565b5050505b505050565b81516001600160401b0381111561013957610139610081565b61014d816101478454610097565b846100d1565b602080601f831160018114610182576000841561016a5750858301515b600019600386901b1c1916600185901b178555610117565b600085815260208120601f198616915b828110156101b157888601518255948401946001909101908401610192565b50858210156101cf5787850151600019600388901b60f8161c191681555b5050505050600190811b01905550565b80516001600160a01b03811681146101f657600080fd5b919050565b6000806040838503121561020e57600080fd5b610217836101df565b9150610225602084016101df565b90509250929050565b6104968061023d6000396000f3fe60806040526004361061004a5760003560e01c8063256fec881461004f578063329707101461007857806354fd4d501461009a57806356d5d475146100af578063de523cf3146100c4575b600080fd5b34801561005b57600080fd5b5061006560025481565b6040519081526020015b60405180910390f35b34801561008457600080fd5b5061008d6100ec565b60405161006f91906101dd565b3480156100a657600080fd5b5061008d61017a565b6100c26100bd36600461022b565b610187565b005b3480156100d057600080fd5b506001546040516001600160a01b03909116815260200161006f565b600380546100f9906102bd565b80601f0160208091040260200160405190810160405280929190818152602001828054610125906102bd565b80156101725780601f1061014757610100808354040283529160200191610172565b820191906000526020600020905b81548152906001019060200180831161015557829003601f168201915b505050505081565b600480546100f9906102bd565b6002839055600361019982848361035c565b507fc9f92737086b645b21611169d04fa8cc1b05a453ea6a9befbf3930d619e23bec848484846040516101cf949392919061041d565b60405180910390a150505050565b600060208083528351808285015260005b8181101561020a578581018301518582016040015282016101ee565b506000604082860101526040601f19601f8301168501019250505092915050565b6000806000806060858703121561024157600080fd5b843563ffffffff8116811461025557600080fd5b935060208501359250604085013567ffffffffffffffff8082111561027957600080fd5b818701915087601f83011261028d57600080fd5b81358181111561029c57600080fd5b8860208285010111156102ae57600080fd5b95989497505060200194505050565b600181811c908216806102d157607f821691505b6020821081036102f157634e487b7160e01b600052602260045260246000fd5b50919050565b634e487b7160e01b600052604160045260246000fd5b601f82111561035757600081815260208120601f850160051c810160208610156103345750805b601f850160051c820191505b8181101561035357828155600101610340565b5050505b505050565b67ffffffffffffffff831115610374576103746102f7565b6103888361038283546102bd565b8361030d565b6000601f8411600181146103bc57600085156103a45750838201355b600019600387901b1c1916600186901b178355610416565b600083815260209020601f19861690835b828110156103ed57868501358255602094850194600190920191016103cd565b508682101561040a5760001960f88860031b161c19848701351681555b505060018560011b0183555b5050505050565b63ffffffff8516815283602082015260606040820152816060820152818360808301376000818301608090810191909152601f909201601f19160101939250505056fea2646970667358221220023ed6fd07c5f45bab46cf0a561883f3dae8745baa865b5d2b510797164ac86e64736f6c63430008110033",
  "devdoc": {
    "kind": "dev",
    "methods": {},
    "version": 1
  },
  "userdoc": {
    "kind": "user",
    "methods": {},
    "version": 1
  },
  "storageLayout": {
    "storage": [
      {
        "astId": 264,
        "contract": "contracts/HyperlaneMessageReceiver.sol:HyperlaneMessageReceiver",
        "label": "inbox",
        "offset": 0,
        "slot": "0",
        "type": "t_contract(IMailbox)201"
      },
      {
        "astId": 267,
        "contract": "contracts/HyperlaneMessageReceiver.sol:HyperlaneMessageReceiver",
        "label": "securityModule",
        "offset": 0,
        "slot": "1",
        "type": "t_contract(IInterchainSecurityModule)27"
      },
      {
        "astId": 269,
        "contract": "contracts/HyperlaneMessageReceiver.sol:HyperlaneMessageReceiver",
        "label": "lastSender",
        "offset": 0,
        "slot": "2",
        "type": "t_bytes32"
      },
      {
        "astId": 271,
        "contract": "contracts/HyperlaneMessageReceiver.sol:HyperlaneMessageReceiver",
        "label": "lastMessage",
        "offset": 0,
        "slot": "3",
        "type": "t_string_storage"
      },
      {
        "astId": 274,
        "contract": "contracts/HyperlaneMessageReceiver.sol:HyperlaneMessageReceiver",
        "label": "version",
        "offset": 0,
        "slot": "4",
        "type": "t_string_storage"
      }
    ],
    "types": {
      "t_bytes32": {
        "encoding": "inplace",
        "label": "bytes32",
        "numberOfBytes": "32"
      },
      "t_contract(IInterchainSecurityModule)27": {
        "encoding": "inplace",
        "label": "contract IInterchainSecurityModule",
        "numberOfBytes": "20"
      },
      "t_contract(IMailbox)201": {
        "encoding": "inplace",
        "label": "contract IMailbox",
        "numberOfBytes": "20"
      },
      "t_string_storage": {
        "encoding": "bytes",
        "label": "string",
        "numberOfBytes": "32"
      }
    }
  }
}